:020000040800F2
:2000000000040020310100081D580008712D0008330100083301000833010008330100086F
:200020003301000833010008330100083301000833010008330100083301000833010008E0
:200040003301000833010008330100083301000833010008892E0008BD2E0008F12E00089B
:2000600033010008C14E0008053F00082D3F00083301000833010008330100087D400008F4
:20008000330100083301000833010008330100083301000833010008330100083301000880
:2000A00033010008330100083301000875390008B9390008FD3900083301000851470008C2
:2000C00011010008D1150008B9170008B9200008BD24000811290008F1330008E900000817
:2000E000512300084129000810B5064C2378002B07D1054B002B02D0044800E000BF012301
:20010000237010BD8808002000000000C46E0008044B10B5002B03D00349044800E000BF4C
:2001200010BDC046000000008C080020C46E00082AE000F000F8FEE7F0B544464D465646C9
:200140005F46F0B46B46CB60C3689D46F0BCA046A946B246BB46F0BD04F0D2FE62B6281C25
:20016000A047002005F018FAFEE704F0B9FE05F0C7F804F0C5FE024A024B1360FEE7C0467F
:2001800004ED00E00000008072B6244880F30888234880F30988022080F31488BFF36F8F27
:2001A00003F082FE03F0D8F81E481F491B4A914202DA08600431FAE71C49194A914202DA32
:2001C00008600431FAE71A491A4A1B4B9A4204DA0868106004310432F8E700201749184AAE
:2001E000914202DA08600431FAE703F061FE03F05CFE144C144DAC4203DA21688847043417
:20020000F9E701F055FE114C114DAC4203DA216888470434F9E70F490847000000040020F9
:2002200000080020555555550000002000040020C46E000800080020840800208808002040
:20024000C03D0020C0000008DC000008DC000008E8000008AD3E00080023C25C0133002A6F
:20026000FBD1581E7047000002B4714649084900095C49008E4402BC7047C04603B4714615
:20028000490840004900095E49008E4403BC7047002243088B4274D303098B425FD3030AF3
:2002A0008B4244D3030B8B4228D3030C8B420DD3FF22090212BA030C8B4202D312120902F0
:2002C00065D0030B8B4219D300E0090AC30B8B4201D3CB03C01A5241830B8B4201D38B03C8
:2002E000C01A5241430B8B4201D34B03C01A5241030B8B4201D30B03C01A5241C30A8B4223
:2003000001D3CB02C01A5241830A8B4201D38B02C01A5241430A8B4201D34B02C01A5241FF
:20032000030A8B4201D30B02C01A5241CDD2C3098B4201D3CB01C01A524183098B4201D323
:200340008B01C01A524143098B4201D34B01C01A524103098B4201D30B01C01A5241C3080D
:200360008B4201D3CB00C01A524183088B4201D38B00C01A524143088B4201D34B00C01A6F
:200380005241411A00D20146524110467047FFE701B5002000F006F802BDC0460029F7D057
:2003A00076E770477047C046002B11D1002A0FD1002900D1002802D00021C943081C07B455
:2003C000024802A14018029003BDC046D9FFFFFF03B4684601B5029800F02EF8019B9E465F
:2003E00002B00CBC7047C046F0B515042D0C0F0001002E00C64684460004140C000C090C76
:2004000046434D43604361434019340C241800B5A54203D98020400280464144250C6D184C
:20042000614659437A43300449192404000C2018891880BCB846F0BDF0B557464E464546D1
:20044000DE46E0B504000D009246994683B08B4230D82DD04946504600F0D8F82900060002
:20046000200000F0D3F8331A9846203B9B4633D45A465346934042461F00534693401E00F6
:20048000AF423AD8AF4200D178E05B46A41BBD41002B00DA75E000220023009201930123F8
:2004A0005A4693400193012342469340009328E08242CFD900220023009201930C9B002B72
:2004C00001D01C605D600098019903B0F0BCBB46B246A946A046F0BD424620239B1A5246EE
:2004E000DA40414613004A468A40170042461F43534693401E00AF42C4D9002200230092FE
:2005000001934346002BD9D0FB0772081A4346467B080EE0AB4201D1A2420CD8A41A9D41F1
:20052000012024196D410021013E24184D41002E06D0AB42EED9013E24196D41002EF8D1AC
:20054000009801995B4600196941002B24DB2B005A464446D3402A00E2401C005B46150055
:20056000002B2ADB26009E40330026004746BE403200801A9941009001919FE7A342BCD89C
:2005800083E74246202300219B1A0022009101920122DA40019286E7424620239B1A2A0023
:2005A00046469A402300F340444613432A00E2401C005B461500002BD4DA42462F002023AE
:2005C000260097409B1ADE403B003343CDE7C0461C2101231B04984201D3000C10391B0A38
:2005E000984201D3000A08391B09984201D30009043902A2105C40187047C04604030202BA
:2006000001010101000000000000000010B5002903D1FFF7DDFF203002E0081CFFF7D8FF1F
:2006200010BDC046002070470020704710B510001A0005F035F9002010BDC37882781B02E8
:20064000134342781B02007813431B0218437047C2680239023A030000208A4203D9588923
:200660004143186A081870470268131E03D1012040420EE001331978202909D93A29F9D180
:20068000511C8B42F3D11278302AF0D1013303600020704770B504000D00002804D10022F4
:2006A000092318002A6070BD0368002BF7D01A78002AF4D0D98882889142F0D15878FFF79D
:2006C000B3FF0122030013401042E8D12268E8E770B50400636A0D0000208B420CD00A00B5
:2006E0002100012360782831FFF7A0FF002802D0012501206D42656270BD0000002370B5C3
:20070000C370013B43620400FFF7E2FF051E26D1164BE25C164B1202E35C1343154A1BB2FB
:2007200093421ED1230028331B78E92B05D0A26A114B1340114A934215D120005E30FFF786
:200740007CFF0F4B0002000A984206D020007A30FFF773FF0B4B984205D1280070BD042552
:20076000FBE70325F9E70225F7E7C046270200002602000055AAFFFFFF00FF00EB009000BD
:2007800046415400464154330023F0B50B608DB00D00FFF769FF0B26041E1EDB864B8200F6
:2007A000D7580136002F18D03B782F60002B0CD10023E0B23B707870FFF734FF01240600D6
:2007C000264020420CD0032607E07878FFF72CFF012306001E401842EAD130000DB0F0BD1D
:2007E00031003800FFF78AFF022828D13C00734BEB34FB18FF3408AD0093002023788342C7
:2008000002D0201DFFF719FF009B103401C5A342F3D100240325A30008AAD35828000093E6
:20082000002B05D019003800FFF768FF01280ED90134042CEFD10126042806D1CDE70428CB
:2008400000D1B6E00096012801D90D26C5E73B0034331A78013B1B781202134380221BB2DD
:2008600012019342F1D13B003A003F331B783E3210781B02184300D184E00190019B3B61E6
:200880003B0038331C78631EBC70012BDDD83B0035331D78ABB27B81002BD6D06B1E1D4246
:2008A000D3D13B003A331A78013B1B78120213431AB2079202933B819B06C6D13B003C3389
:2008C0001A78013B18781202104303D138004830FFF7B3FE3B003A0037331B7836321278C4
:2008E0001B021A430392B0D0019B63430593029B9B099B18059A9B1804938342A5D8C31A93
:20090000180029000693FFF7C3FC069B0400AB429BD32B4B0325984204D82A4D8542AD41C8
:200920006D420135009A009B94467B61049A039B023463446244FC60BB613A62032D26D1ED
:200940003B0053331A78013B1B7812021343079A1A4313B2002B00D077E738005430FFF73D
:200960006CFEA400F861184BE418019BE40AA34200D26AE7154A3D70138801339BB2138064
:20098000FB802AE738004C30FFF757FE75E7029A002A00D159E7059AD318FB61022D01D1B2
:2009A0006400E0E70320012360431C4040080419D9E7260011E7C046A40800202A02000085
:2009C000F5FF0000F50F0000FF070000A8080020F7B5012604000D00B14214D9C36899427F
:2009E00011D20378022B2ED0032B3DD0B3420AD14F0883697F18F90AC918FFF769FE002820
:200A000003D0012676423000FEBD7B1C7F05D90A01937F0DA369E71928372000C9183F78F8
:200A2000FFF756FE0028ECD1019B5805400D24182834207800020743354201D03E09E2E76D
:200A40003F053E0DDFE78369890AC918FFF740FE0028D6D10D496D0028340D406419667817
:200A6000207836020643CEE78369490AC918FFF72FFE0028C5D12000054CAD0028302540CC
:200A80004019FFF7DAFD06013609BCE7FE070000FC070000002370B5856804000668036134
:200AA0009D4215D13378022B02D9F369002B0ED13389002B01D1022070BDF369A361A369E4
:200AC0006561002BF7D028360020E661F4E71D007389002B0CD129002068FFF779FF050079
:200AE000431C0BD00128E6D9F3689842F3D3E2E729003000FFF7ACFDA061E0E70120DBE76D
:200B00001FB5019003A8140000910391FFF7ACFD03000B20002B15DB0B499B005A58002AD9
:200B200001D000201070019A002A01D000201070101ECA5006D00020012C03D1684601A977
:200B4000FFF722FE04B010BDA4080020F0B593B00400092505910492002800D142E106A921
:200B600005A8FFF711FE051E19D1069B059E0293079333782F2B15D05C2B13D00023099330
:200B800033781F2B00D9ADE0372304AA9B18802207A81A70FFF77EFF051E00D1F5E0002305
:200BA00023601FE10136E4E70137B5E02E2B00D11BE1954201D80625F1E75FB2002F02DAEE
:200BC0008D4F803BFB5C8D4F3878002803D08342F1D00137F8E71F00613F192F01D8203BC8
:200BE000DBB22C2704A8C01983540132019B0133019386E03F22CB7A08251A40BA7108223A
:200C00001D4013420BD12B002C2704A8C019CA5CC05C121A0A2B25D00133002AF4D00B9BE3
:200C20001F0003930D9B2037002B00D1A3E080229203974200D39EE07A05510D079D03910B
:200C4000002A09D10C9901330D93002916D12A897B09934200D38EE0039B2835ED180B9718
:200C60000E957BE0002ADAD1372304AA9B181B7807A9002D1CD0042D91D180E06B89FA0A9F
:200C8000013B1A42E8D12800FFF7A2FE010001280AD9431C0AD0EB6898426CD20C902800D0
:200CA000FFF7D6FC0D90D7E70225DDE70125DBE75B076AD48B79DB0663D50B69029A5B0511
:200CC00028325B0DD318DA7E987E1202024302980078032805D1587D1B7D000203431B04B9
:200CE0001A438A60002120232C2004AA1218535401310B29F8D10123002208259B1B01968F
:200D00000393039B01981F180378202B0BD92F2B02D05C2B00D049E7F15D2F2900D143E7D1
:200D20005C2900D140E7F619002A00D143E70D2204A95218D17FE52901D1E039D177042205
:200D4000202B00D90022372304A95B181A70079B07A80193FFF79EFE051E85D101980D991A
:200D6000FFF7B6FC07AF051E00D07DE7F9690B78002B00D03EE7372304AA9B181B785B0709
:200D800001D405250BE7042509E7372204A95218127807AB7F2A00D90DE7997910220D00D6
:200DA00015401142EFD1D869069EC37E827E1B0213433278032A05D1417D027D09020A43F0
:200DC00012041343A3601C30FFF737FC0122E0602660F388A380049B134023740023637425
:200DE000E3616361280013B0F0BD0B2D00D1E2E60D000822FAE6C046A36500089465000854
:200E0000F0B589B0049300231500049A0191136007A90400FFF73EFC0090002827D1637C0F
:200E20000093002B23D1227C01331100194005911A4200D17EE0E36862699F1AAF4200D90A
:200E40002F00002F13D0626953055ED1D10A0800079B5B89013B18400390194217D1002A02
:200E600008D1A06801280AD8022060740090009809B0F0BDA1692068FFF7AAFDF2E7431C9B
:200E800004D101236374059B0093F0E7A061079DA1692800FFF7DCFB0028E5D0039B1E1823
:200EA00080231B019F4223D3FB0A039A0293F90A6B8952189A4202D9039A9B1A02936B46B5
:200EC00032001B7A68780199FFF7B0FB0028D8D1029BDD02019B049A5B19019363697F1B3B
:200EE0005B196361049B1B6802935B191360A8E7E369B34208D021000123320068782031CC
:200F0000FFF794FB0028BCD1E6618022636912015B055B0D3D00D21A974200D915002200F5
:200F20002032D3180022995C0198815401329542F9D1CFE70723A7E713B501A90400FFF741
:200F4000A9FB002800D1206016BDF0B585B00F0003A90400FFF79EFB061E0BD1667C002E69
:200F600008D1E568BD4200D93D00002263696261954202D1300005B0F0BD039A5789FF02CB
:200F8000002B28D0013B3900681E0093FFF780F9390001900098FFF77BF9019B83421AD317
:200FA000009A7B421A40A1696261AD1A00292AD1002563695B05DDD0E369AB42DAD02100C6
:200FC000039B2A00587820310123FFF72FFB061E0DD1E561CEE7A168A161E7E7DB19206892
:200FE0006361FFF7F5FCED1B0100431C02D101266674BFE7012803D9039BDB68834201D8E0
:201000000226F5E7A0616369BD42E7D8EB1863616B05CDD00398FFF71BFB0028F0D0ED0AE7
:201020002D18C6E7F0B5050017000600002485B00191019B0096013BA34210DD03AB0122FB
:20104000380002A9FFF7DCFE039B012B07D102AB1B78009A0136137001340A2BE9D1002360
:201060003370631E9C4164422540280005B0F0BD0378013B1F2B01D80130F9E7704710B573
:201080000400FFF7E9F8431EE3185A1C944203D21978013B2029F8D900232000137010BD7E
:2010A00010B50400012208002100FFF74FFD021E0CD02100042805D1094802F0E1FA012279
:2010C000100010BD074802F0DBFAF8E70648C368002BF5D1FFF730FF044802F0D1FAEEE7D1
:2010E0003266000861660008AC0800205566000810B5FFF721FF10BDF7B50F000021160050
:201100000093FFF722FF3800FFF7A6F80024019080213E4D3E4A28004900FFF783FF0028DF
:2011200005D139003B4802F0ABFA0120FEBD2800FFF79EFF037805005B2B03D15D2105F0A2
:2011400031F904003900019A681C05F039F90028DED13000FFF780F8070080212B4D2C4AD7
:2011600028004900FFF75EFF002806D02800FFF77FFF037805005B2B02D131002648D2E7E0
:201180003B2B07D0232B05D03D2105F00BF90400031E07D0621E531CAB4203D91178013A20
:2011A0002029F8D95B1BBB42D7D128003A00310005F006F9051ED0D1601CFFF759FF0126BE
:2011C000040003001A78002A17D03B2A01D0232A01D1002D11D0191BFF290ED85878591C7B
:2011E000222A04D1222806D075400133EAE75C2AFBD12228F9D10B00F7E7002520001D70D3
:20120000FFF73DFF009B28001C608FE7CC100020AC080020796600088A66000813B51C0054
:20122000002300936B46FFF767FF0122002809D10932009801A905F061F9019B1A78002AA2
:2012400002D12060100016BD0D22FBE773B572B6002403F067FE1C4B1C481C701C4B9C60C1
:2012600001F08EF904236A46537103F0ABFE194D2E00AC363368A34221DD03F0A3FE2A000D
:2012800033689432013B33601368684619000079083111601871684640791C7058716846C6
:2012A00080795C7098716846C0799C70DC70D871094B994200D31560084804F087F803F0AB
:2012C00043FE62B673BDC046D4110020202900200074004058120020E8120020F012002097
:2012E00070B504000D0072B603F0FAFD2000E56102F044F803F004FE62B670BD0369034A1F
:201300009B1802689B00D31859637047FFFFFF3F70B500241E4802F0B3F91E4BFA211C602E
:20132000E1231D4DDB00C9001C482B8001F094F92A881B4B1B489A6001221B4B1A7000F096
:201340002BFA1A4B21001868194A0023FFF74CF80023184A80185941FA2200239200FFF724
:2013600023F8050072B603F0BBFD03F02BFE124C2368002B02D0200004F0B8F90023290067
:2013800020000E4A04F096F903F0BAFD62B670BD97660008D0110020CC11002020290020F7
:2013A0000074004018120020D4110020681B002010270000E7030000001200204D120008CD
:2013C000042210B5094B0A4C1A70A36F0948590089B2FFF793FFDC34074800F0D4F92368C8
:2013E000064907485943FFF77BFF10BDFC110020681B0020301200201812002010270000C3
:20140000D81100200E4B10B5996A0E48490089B2FFF774FF0C4800F073F900220B4B1A70AD
:2014200072B603F05DFD03F0CDFD09484368002B02D0043004F05AF903F062FD62B610BDCF
:20144000681B00203012002018120020FC110020D8110020012210B5094B0A4C1A70E36B9D
:201460000948590089B2FFF749FFA034074800F081F92368064907485943FFF731FF10BD04
:20148000FC110020681B0020301200201812002010270000D81100208022114B920259693C
:2014A00010B50A4390215A61C022C9050868920002430A608022D96992050A43DA61012227
:2014C000DB69084B1A6000229A60074B8C331B68934202D1FFF7BEFF10BDFFF793FFFBE7B9
:2014E0000010024000740040681B0020154B10B51878042806D8FEF7B7FE03061C1F220074
:20150000FFF7A8FF10BD02220F4C1A70236D0F48590089B2FFF7F2FEC8340D4800F02AF993
:201520002368002BEED00B490B485943FFF7D8FEE8E7FFF745FFE5E7FFF7EAFEE2E7FFF7B6
:2015400061FFDFE7FC110020681B0020301200201812002010270000D811002010B5044B95
:201560000448196802F08CF8FFF72AFF10BDC046D01100209D66000810B5FFF7C9FE10BDDB
:201580000D4B1B78002B10D00C4A0D49138888420CD92C2B0DD92D3B13801288094B9A603F
:2015A000094B1A68824200D21860704707498B42F3D82D33F0E7C046D4110020CC11002069
:2015C000DC05000000740040D0110020D10F0000034B044A1A60044ADA6103221A8470477C
:2015E000D8110020E8680008E703000010B5040003F0E8FC2368002B02D0200004F076F8F6
:2016000010BD10B5040072B603F06AFC2000FFF7EDFF03F075FC62B610BD000073B52B4BCA
:20162000858F0400466B12209D420AD80E21FA2371439B002648C918FEF72AFE002800D1EE
:201640000130A369281A80B201366663A087D862CA235B0098420AD9A56B2000FFF7C6FF88
:201660000023290020001B4A04F024F873BD03236A46537103F0A6FC174C2500AC352B682E
:20168000002BF3DD03F09EFC21002B689431013B2B600B6800221800083008601A705A70E1
:2016A0009A70DA706A4612791A716A4652795A716A4692799A716A46D279DA71074B984292
:2016C00000D30C60064803F081FECFE78C0A000050460000E516000858120020E812002082
:2016E000F012002010B572B603F01CFC0348FFF795FF03F029FC62B610BDC04618120020AE
:20170000F8B5E1260025164B164A8C331B6836019B00040086874563290098580023124ACA
:20172000FEF762FE0023114A80185941FA2200239200FEF739FEA369A0630700DE6272B629
:2017400003F0CEFB2000FFF751FF2B0039002000074A03F0AFFF03F0D3FB62B6F8BDC0465D
:20176000681B0020A866000810270000E7030000E516000810B50400FFF743FF9622A369C7
:20178000FF32DA6210BD10B50400FFF73AFFE122A3691201DA6210BD10B50400FFF731FFFD
:2017A000A36A044A9B18A2699B00D31800225A6310BDC046FFFFFF3F084B094A09499A61A9
:2017C0005A620122D96106219A620022198427319A8519635A639A639A877047181200203F
:2017E0000004004000080048012210B5036A818E046B8A405968C9B2002904D1A26208333F
:201800000362002010BDA261F9E70000002170B50C000D000F4B1A6A13685268D21A5210D3
:201820005208914206D0188801312D18588804332418F6E7084B09481B8809495843FEF735
:2018400027FD240929096043FEF722FDFFF798FE70BDC04620290020BAF7FF1FE8800000EF
:20186000FF0F000010B5040003F0ACFB2368002B02D0200003F03AFF10BD10B572B603F076
:201880002FFB10BD10B503F03BFB62B610BD0123818E026B8B4093627047000010B5036837
:2018A00001491B68984710BDD06600089022F0B503688588D2058079934228D180222449F5
:2018C00092024C6922434A6103216C00E4B2A1401A68A8408A431A6001221700A740AA40EC
:2018E0003C001E683E431E605E6896435E605E6830435860D8688843D860D868D86098681E
:201900008843986099680C439C609A62F0BD114A934204D180220E49D2024C69D2E70E4A77
:20192000934204D180220A4912034C69CAE70B4A934204D18022064952034C69C2E7084A98
:201940009342C1D180220249D2034C69BAE7C046001002400004004800080048000C0048C0
:201960000014004810B503000400C26801690B48FFF754FC002809D12268A3689A4201D9C5
:20198000236002E063689A42FAD310BD0448E268216901F075FE0120F7E7C046AC08002044
:2019A000D566000870B5304D060029002F48FFF777FB0124002855D13000FFF7D3FF0400C5
:2019C00030001430FFF7CEFF0443E4B2601E844130002830E4B2FFF7C5FF002800D00124BB
:2019E00030003C30FFF7BEFF002800D0012430005030FFF7B7FF002800D00124300064303E
:201A0000FFF7B0FF002800D0012430007830FFF7A9FF002800D0012430008C30FFF7A2FFEE
:201A2000002800D001243000A030FFF79BFF002800D001243000B430FFF794FF002800D047
:201A400001243000C830FFF78DFF002800D001243000DC30FFF786FF002800D0012428009E
:201A6000FFF746FB200070BDAC080020E666000870B504000D00FFF700FF01235B42636209
:201A8000236820001B68E56125629847FFF7FAFE70BD0000037810B5012B07D11448154953
:201AA000C3698B4201D0FFF7E3FF10BD022BFCD1114A0F4C1278E369002A04D00F498B420E
:201AC000F3D02000EFE7002B0ED0FFF7D6FE03F079FA6368002B02D0201DFFF7C3FE002335
:201AE000E3612362FFF7CEFE2000FFF7D0FEDCE7301B0020346800089C2700205C680008F6
:201B000070B504002600AC360D0003F05BFA33680220002B37DD03F055FA21003368943180
:201B20000A68013B3360130008330B6068782B7800021843AB781B041843EB781B06034364
:201B4000180A13705070180C1B0E9070D37068792B7900021843AB791B041843EB791B068B
:201B60000343180A13715071180C1B0ED371230090710A6890339A4200D30C6020009830CB
:201B800003F024FC002070BD70B50D000400FFF774FE29002000FFF7B3FF040003F0D0FB94
:201BA000FFF770FE200070BD037807B59A1E012A0ED80E4A1378002B09D101210093117056
:201BC00005336A4669460A485371FFF7DDFF07BD042B01D0012BFAD1044A1378002BF6D001
:201BE0000023137000930633EBE7C0469C2700205812002037B50500FC3504001249A8699C
:201C000001F0FCFB002803D12000FFF747FE37BD0E49A86901F0F2FB002808D102236A4675
:201C20000090694653710A48FFF7AEFFECE70949A86901F0E3FB0028E6D0236820001B689B
:201C400005499847E3E7C046F3660008B067000858120020F8660008FC660008F0B587B0D1
:201C6000002304AC63710493FFF707FE01217848494203F085FB002824D1764801009031AE
:201C80000B681D005E781A78360216439A78083512041643DA780D601206324304925A7948
:201CA0001E79120216439A79DB79120432431B06134363608D4200D30860674803F086FBC7
:201CC00003F03EFBFFF7DEFD607901380628C7D8FEF7CAFA045154575A86B900049C02AB89
:201CE000DD1D2900200001F047FF0028B8D15B4B5B4AE31801935B7A2E78A518002B0ED09E
:201D00000023019A5372AB6002F062F9AB682861082E0CD1002BE2D0013BAB60DFE72F69B7
:201D200002F056F94F4BC71B9F42E9D8ECE70D2E01D00A2E16D1002BD1D0A3200022E3189A
:201D400000011A54B3231B01E2184749201801F06FFB0122019B68615A72444BE018FFF734
:201D600049FFBCE7FE2BBAD85A1CAA60A322E31812019E54B3E7FFF7FFFB71E7FFF7B6FBEF
:201D80006EE7FFF7EBFB6BE7394801F079FCFFF774FD384C3849200001F05CFA03212000C2
:201DA00001F014FA002807D0344801F07FFC3449082003F049FAF1E7200001F075F9FFF715
:201DC00061FD200001F058FA80212E4A2000136B8B43136301F068FA2B4803F0F5FE3FE775
:201DE000294803F00FFFFFF748FD224C0021200001F0ECF90500200001F056F9FFF742FD17
:201E0000200001F039FA002D19D1200001F08EFA1C4A1E49536B20000B4053631C4901F0CC
:201E200019FA1C4801F02CFC1B48FFF7BBFD1B49031E1B4800D01B49FFF71AFE10E71A487E
:201E400001F01EFCEDE7194801F01AFC08E7C046F012002058120020FC1200202F0B000032
:201E60002C0B0000DE030000096700082C0A00000C67000850290020006CDC0219670008B6
:201E80001608000000100240902A0020FFFFFEFF00127A002F670008681B00206C68000854
:201EA000301B002004680008256700083F67000810232E4A10B511682D4C0B4320001360BE
:201EC00001F0F2F802F016F803F09AFA294B12211A00903213601A0027489432136003F0F5
:201EE0003FFA0021254803F03BFA254801F0ECFE244A2549254801F0C3FB200001F0BCF9ED
:201F0000234C20003030FFF7D1FC002221492248FEF7F6FD002825D12048FFF743FD00284D
:201F200003D020001E49FFF7A3FD1E4C200000F07DFE20001C4901F035F91C4A1C49936A50
:201F400092695B189B00D31800221A485A6300F027FCFFF7A1FA184803F0FEFD00F07AFAF6
:201F6000FFF77CFE154801F08BFBDEE7002002405029002058120020FC120020F012002083
:201F8000581C00204A670008586700085E670008301B0020D466000808130020681B0020D5
:201FA000046800083012002000093D0018120020FFFFFF3F20290020902A00206667000867
:201FC00070B50E00041D05002000FFF74BFC300000230A4A0021FEF707FA0023084A801880
:201FE0005941FA2200239200FEF7DEF92B000100044A200003F05EFB70BDC046102700005A
:020000040800F2
:20200000E7030000492A000870B5040002F0DAFF6368002B02D0201DFFF724FC01256D4277
:20202000236A18780428FDD8FEF71EF9030A13243200236820009B6898470128F0D170BD5C
:202040005968083323620029EAD02000FFF7B8FFF5E75B68E269DB00D318236223002D3397
:202060001B78002B04D0210012482831FFF748FD0121EAE723002D331B78002B04D0210096
:202080000C482831FFF73CFD0023E3612362D6E7626A013201D15A686262626A002A03D19A
:2020A000083365622362BBE7E369013A23626262B6E7C04658120020814BF0B51A009032AD
:2020C00013601A00002000219432186059601360E1237C4A5B0213607B4B032153609023DE
:2020E000DB05936013610A239382083BD3619033136285235B01536213000925012628332C
:20210000197081210024714B9581DA609661704A09015A506F495C605A506F4A9C609E543A
:202120006E4A87B09C5004329C506D4A9C50B32212019C506B4A9C506B4A9C506B4A9C5444
:2021400008329C506A4A6B491A606B4A6B4F99506B496C4A381D99502100202204F016F812
:2021600001235B427B623B002D331C70664BCF223B630E23BB863B0036331C70634B64495D
:202180003B60644B1B201A60634ABC629A60634A1962DA60624A64211A615A620C2212274A
:2021A000DE619A625F4E604A58605C619C61DC6219635E639A631C645964DF635B4F99657C
:2021C0009F641F1DF9671F00D96659490837F9671F008837DA641A665A673A601A00042785
:2021E0008C3217601A00903214601A00943215601A00983216601E004E4A9C3632601E0073
:20220000A03634601E00A43634601E00A83635601E0018654848494FD865AC36242037607A
:202220001E0058664648B0365C659C6618679D67DC6732601E00B43634601E00B8363460F7
:202240001E00BC3635601E00C03630601800C43002601800C83004601800CC3004601800C3
:20226000D03005601800374ED43006601800D83002601800DC3004601800E0300460180044
:20228000E43005606D461800EC331A602A00E8302D4B016043CB43C243CB43C22B4E18206F
:2022A000F4603461746103F017FF0400183418222900F060746103F04DFF346107B0F0BD47
:2022C00058120020A027002000380140581C0020681C002014080000180800001C0800007C
:2022E000240800003C0B0000340B0000380B0000F468000814690008280A0000301B002063
:20230000246900082C0A000000040048F867000885670008681B0020E703000070670008DF
:202320007E670008936700089C670008A3670008C0670008CE670008A9670008D4670008CA
:20234000B4670008E06700086465000800080020034B10B5D868002801D003F0B9FE10BD4F
:2023600000080020F7B501261C4D002128001C4CA3682268A788126994462A7801923200C8
:20238000BA40170062463A421ED0019A012A01D0042A17D103222A70A2689A421CD0002BB1
:2023A00000D0984728000021A3680E4A0C3401359442DED1002B00D09847B420800003F0A6
:2023C000F3F8D1E70222E6E7019A023A012A01D80422E0E72E70DFE70131E6E71C290020D9
:2023E000F82800201C2900209023DB05984206D18023134A9B0251690B4353617047114B88
:20240000984204D180230E4ADB025169F4E70E4B984204D180230A4A1B035169ECE70B4BA0
:20242000984204D18023064A5B035169E4E7084B9842E3D18023024ADB035169DCE7C046E6
:20244000001002400004004800080048000C004800140048F0B50027144E85B03468B379B3
:202460002000B5880393FFF7BFFF03226D00EDB2AA4023680C3693432360E3689343E36010
:20248000039BE268AB401343E3600023084ABB540137032FE2D1942100938022054B4900AC
:2024A000054803F039F805B0F0BDC046F82800201C29002065230008D027002090220C4BEE
:2024C000D2051A6000229A800A4A02219A600A4A0D20DA609A6105229A83043A99719974AF
:2024E0009A770649064A188259611A627047C046F82800206129000800080048A91B0008B1
:20250000951A0008020070B50F2502CA4B681C68AC431C604D7B0C680E21A9406160010025
:20252000C4691031944218D1C1610462020028321278002A0CD0C26911685268D960521AF7
:2025400052105A60064A1A60012219680A431A60436A002B00D0984770BDC2610162E5E724
:202560008225000010B572B602F0DCFC0348FFF7C9FF02F0E9FC62B610BDC04620290020C9
:2025800003680F2059680A6882430A60597B1A680E238B4053600A4B9A68D2070ED51022F5
:2025A00099681143996099681142FCD1022299680A439A60012299681142FCD17047C0463F
:2025C000002401408023034ADB0311680B4313607047C0460827014013B50400FFF7D0FFD0
:2025E0008022194B120699680A439A609A68002AFCDB00220192019A622A03D8C046019A1A
:202600000132F7E7012219681143196099681143996019681142FCD0D9680C480140D9603B
:20262000D9680B480140D960E1692368086849685B68091A4910D86059600649196019681D
:202640000A431A6013BDC04600240140FFDFFFFFFFF3FFFF8225000070B50E000400FFF7D8
:20266000BBFF144B1449DA6801250A40DA60DA682834DA608022D968D2000A43DA600422BE
:20268000996825700D4C0A439A60200000F070FA0B4B20005968714300F070FD7021226827
:2026A00053689BB28B4350390B43536013681D43156070BD002401403FFEFFFF4C29002008
:2026C00000080020F7B506000C1E15D04368026827499F1A82687D10D21A491B52109442D4
:2026E0000BD8190022000020013A08800231002AFAD164001B197360F7BDA14202D21D4876
:2027000003F0FCFC2000AC4200D228004019854203D88023DB05984200D3154843001800E3
:20272000019303F0D9FC230000220090C719013B3A800237002BFAD137687368DA1B002ACA
:2027400007DD3900009803F00EFD380003F0C0FC01E0002FF9D1009A009B94466419640015
:202760001C193360019B74606344B360C4E7C046FFFFFF3F8C68000810B503684468E21AA6
:202780005210914203D9891AFFF79CFF10BD9142FCD249005918A142F8D04160F6E70000A3
:2027A0008023F7B54C4C9B00E26800901A43E260E2684A494A4D0A40E260E268A269009831
:2027C0001343A361A36900232B61FFF7FBFE454F454EF9683A69521A93105E4301927A68A5
:2027E0005643009A3100101DFFF7C6FF009831001030FFF7C1FF0023FA68AB62019B9B18ED
:2028000001938023DB039C46019B934236D01368002B10D090205168C005834213D180204D
:202820006669800230436061032689B249008E4018683043186001239068A96A83400B43ED
:20284000AB620C32E0E72948834203D180206669C002E7E72648834203D1802066690003E4
:20286000E0E72448834203D1802660697603D9E721488342D8D166466069D3E73B686B616F
:20288000BB680193019A009B5A628023AA681B061343AB60194BAA68002A06DA013B002B71
:2028A000F9D1174800F0ECFEF7BD0123AA681A43AA602A681A42FCD00023124A1800092149
:2028C00002F0CEFA009B104A186043689A600F4A1A600323EB60E7E700100240FFFDFFFFCE
:2028E0000024014000080020ABAAAAAA0004004800080048000C00480014004819F6000047
:20290000A6680008652500084024014082250000084B0022191DD961190010315A609A60D0
:20292000DA601A615A619A615A621962024A034B1A60704720290020002C01404C290020BF
:2029400010B5064C2069002801D003F0C1FB6068002801D003F0BCFB10BDC0462029002088
:20296000F0B50024022785B000900191019B9C4244D2009B1B5D032B3DD102AB5F7100238F
:20298000029372B602F0ACFA02F01CFB1C4D2E00AC363368002B29DD02F014FB2A003368CE
:2029A0009432013B3360136802A81900007808311160187002A84078587002A880789870C6
:2029C00002A8C078D87002A80079187102A84079587102A88079987102A8C079D871094BC9
:2029E000994200D31560084802F0F0FC02F0A8FC02F086FA62B60134E4B2B7E705B0F0BD9B
:202A000058120020E8120020F012002010B50C24064B07494A682240824204D0013B002B47
:202A2000F8D1022010BD0020FCE7C0460F2700000010024010B572B602F074FA10BD10B56E
:202A400002F082FA62B610BD10B50C00FFF7F2FF236820001B689847FFF7F1FF10BD0000AB
:202A6000F0B59024E405A0423BD180242F4DA4026E6934436C6103244D00AC400768E6434D
:202A8000A7430224AC40076007683C43046001248C40002A45D14268A2434260C268324083
:202AA000C260C268C260826816400122AA4086608468224382608C00072902D90C00083C5B
:202AC000A40007228A4289414942890040180F21A140A340026A8A430262026A134303626F
:202AE000F0BD134CA04204D18024104DE4026E69BFE7104CA04204D180240C4D24036E69A1
:202B0000B7E70D4CA04204D18024084D64036E69AFE70A4CA042AED18024044DE4036E69D0
:202B2000A7E7426814434460B8E7C046001002400004004800080048000C0048001400481F
:202B400003000321084A033310688B430749C31810B58B4206D903F0E3FA0C230360012061
:202B6000404210BD1360FCE718080020004000200368254A934207D18022244B1201996963
:202B80000A439A619B6909E08022D205934206D101221E4BD9690A43DA61DB6970471C4A24
:202BA000934203D1194B0222D969F4E7194A934203D1164B1022D969EDE7174A934203D108
:202BC000124B2022D969E6E7144A934204D180220E4B5200D969DEE7114A934204D1802244
:202BE0000A4B52029969CBE70E4A934204D18022064B92029969C3E70B4A9342CED18022D8
:202C0000024BD2029969BBE7002C01400010024000040040001000400014004000200040E8
:202C200000400140004401400048014010B50400FFF79EFFC02322681B025364802311684C
:202C40000B431360A369D362237D013B59424B4121690633481E03280BD8FDF705FB02182A
:202C60001F2791691B010B4393610123116A0B43136201231168194311602C498A421DD1BB
:202C8000627D21896068DB18FFF7EAFE10BD91691B030B439361116A1023E8E7D1691B0118
:202CA0000B43D3618023116A5B00E0E7D1691B030B43D3618023116A5B01D8E71C498A420E
:202CC0000BD1902360682189627DDB05984202D0184B984217D10123D6E717498A4208D17D
:202CE000902360682189627DDB0598420BD10423CAE712498A4208D160682189627D90245D
:202D0000E405A042C0D10023BEE70D4B9A4202D00C4B9A42BAD1902360682189627DDB05E7
:202D2000984201D10523AFE70223ADE7002C01400004004000040048002000400040014092
:202D400000440140004801408022084B10B599689143996011000278002A06D0DC690C42BF
:202D6000FCD092B21A850130F5E710BD0038014010B50248FFF7E8FF01BEFEE7B66800089B
:202D80003422014BDA60704700200240F7B5050001F01EF90126032701900C4B3C00DA68CE
:202DA000324206D1DA683400520702D4DC682409344001F00DF9019BC01A854203D9032CFF
:202DC000EBD02000FEBD0224FBE7C04600200240024B034A5A60034A5A6070470020024079
:202DE00023016745AB89EFCDE12010B54000FFF7CDFF8023024A11690B43136110BDC0464D
:202E00000020024070B50600E1204000FFF7BEFF002811D10225094C23692B4323614023CA
:202E20006661226913432361C046C330FF30FFF7ADFF2369AB43236170BDC0460020024009
:202E400070B50600E12040000D00FFF79FFF002816D101230B4CC3302269FF301343236154
:202E6000ABB23380FFF792FF002805D12D0CC3307580FF30FFF78AFF0122236993432361E5
:202E800070BDC0460020024010B5744602F06EF8FFF7D0FD074B1B68002B00D0984703222F
:202EA000054B5A61FFF7CBFD02F076F8200002F0C7FC10BD642900200004014010B57446D6
:202EC00002F054F8FFF7B6FD074B1B68002B00D098470C22054B5A61FFF7B1FD02F05CF839
:202EE000200002F0ADFC10BD682900200004014010B5744602F03AF8FFF79CFD074B1B684D
:202F0000002B00D09847064B064A5A61FFF797FD02F042F8200002F093FC10BD6C290020A2
:202F200000040140F0FF00000902084370471B021A43120211430902084370478022094B6B
:202F4000520219680A4380211A60074A89021868084204D1013A002AF9D101207047002092
:202F6000FCE7C046001002400F2700000122084B19680A4302211A60064A1868084204D110
:202F8000013A002AF9D1012070470020FCE7C046001002400F2700008022094B52041968CC
:202FA0000A4380211A60074A89041868084204D1013A002AF9D1012070470020FCE7C0461C
:202FC000001002400F27000080220F4B5202596B82B00A435A6300220C490192019A8A42A8
:202FE00003D8019A01320192F8E78021084A8902586B084205D1013A002AF9D1012002B053
:2030000070470020FBE7C04600100240E60300000F2700001E4B10B558680007800F0228D2
:203020000AD0032831D00138431E9841194B40421840194BC01810BD0F20D96A5A6801405B
:20304000920C02400131941C824200D11024C02280205B6852021340400283420DD008D835
:20306000002B10D080220D481202934206D06043E1E7934205D00948F9E70748FDF708F905
:20308000F5E70748FAE70748F1E70548D3E7C0460010024000F7C2FF001BB70000127A0088
:2030A000006CDC0200093D00F0B5040087B01C4E1C4F02AD31001022280003F04BF87B6878
:2030C00020001B061B0FED5CFFF7A4FF3100E8400822A06005001031684603F03BF86A4656
:2030E0007B6811495B055B0FD35CDD405A1E9341013323740D4BE560D868FDF7C9F8802331
:203100000122DB051968013891431960596A98625A61596219680A431A6007B0F0BDC046C0
:203120007C650008001002401027000050290020034B044A5B68D0685B0500D540007047C1
:20314000001002405029002070B505000C0001680948FFF7EDFF2E68B16A0131FDF798F84B
:2031600021000500FDF794F800231A00A5425A41801AF062736270BD5029002070B50D0031
:20318000040001680648FFF7D3FF2900FDF780F82368000C290098622000FFF7D5FF70BD46
:2031A0005029002070B50D00040001680648FFF7BFFF29000600FDF76BF80023AE425B41A0
:2031C0002268C31A936270BD50290020032370B51F4C0500666808009E43023B032909D811
:2031E000FDF742F8020F1A2B2800FFF7BFFE002802D00123180070BD6660FFF707FC03004B
:20320000F8E72800FFF79AFE02230028F2D1013B1E4366600430F0E72800FFF78FFE0323CA
:203220000028E7D12800FFF7B7FE04230028E1D1023B1E4366600830DFE72800FFF7C4FE98
:203240000028D6D103231E4366600C30D5E7C0460010024030B501242200054B054D1868B4
:203260000243A94201D80200A2431A6030BDC0460020024000366E0170B5084D0849E868CF
:20328000FDF706F806490400A868FDF701F822000100044800F0F4F970BDC04650290020D4
:2032A00040420F00C268000880231A4A1B05D16919481943D16111690B43136113691749E3
:2032C0000B401361164B596801405960802158688905014359605968090E090659605868C7
:2032E00010490143596019680F4801401960802118688901014319604021186801438020B9
:203300001960116B81431163202219680A431A607047C04600100240FFFFFF48FFFFFFF7AE
:20332000006C00407FBB2200FFC0FFFF2021074A13688B431360064B0649DA690A40DA6112
:203340008022196B0A431A637047C046006C004000100240FFFFFFF70122074B19680A438B
:203360001A60022219681142FCD0012299690A439A619B697047C0460010024073B5C56939
:203380000400002D09D16A460134E37F69460B4853710095FEF7B4FB73BD061D01F012FE88
:2033A0006368002B02D0300002F0A0F9230029003000034A02F07EF9EEE7C04658120020F3
:2033C000492A0008002213B5431CDB7F00926A460400537169460548FEF792FBA31CDB7F2E
:2033E000012B02D12000FFF7C9FF13BD581200200122014B1A7470475029002070B505001F
:2034000000208D4213D004002A5D1300413B1600192B00D820360B5D18004138192800D826
:203420002033F01A9E4202D10134002AECD170BDF0B5002802D1106800280FD003001800F9
:203440000D00047801332E78002E03D00135B442F9D1F4E7002C07D120001460F0BD2F00C3
:203460000FE00134002E04D11C00013325781F000C002678B542F4D1002DF0D00021013B69
:2034800019701760EAE7F0B505000E001700002487B000930CAB1B78019330003900FCF764
:2034A0007DFF03000800C2B231001E0013003733DBB2092802D813003033DBB202AA0134C9
:2034C00003321355B942E8D226002B68009A1B6896420BD2280001999847002802D00C2048
:2034E00007B0F0BD0136F0E7002CF9D003AB013CE15C2B6828001B6898470028F4D0EEE75F
:20350000F0B50B000500140087B019785A1C0492002905D12B6828005B68984707B0F0BD4E
:20352000252904D02B6828001B6898473FE05A780392302A14D1023304930026049B197865
:203540005F1C0B00303BDBB20497092B03D92A2909D108CCDBB20A2256439E193B00EEE728
:2035600020230393E9E72E290BD139787B1C0A00303A0493092A02D92A2902D104341F0091
:20358000F3E7632935D015D8412954D003D82529C8D0049BB9E753292ED05829F9D1039BE2
:2035A00010220093330002CC2800FFF76CFF0028EFD0AFE773291FD014D8642901D06929D8
:2035C000E7D180CC002F07DA2B682D2128001B68984700289ED17F42039B0A22009339007E
:2035E0003300E1E77529D4D1039B0A2200933300D9E702CCC9B295E727683800FCF72CFE94
:2036000005903978002907D02B6828001B68013798470028F5D07DE7059BF61A002E01DC03
:203620000434B6E72B6828001B6803999847013E0028F3D06EE700262368A768039363685C
:203640000593059B9E4201DB0C34A2E7002E0DD1039B1022995D3023280000932E3BFFF76E
:2036600012FF002800D055E70136EAE7002FEFD02B6828001B68F9B298470028E8D049E737
:203680000FB413B504AB10CB019372B601F028FC2100019A0448FFF733FF01F031FC62B6DE
:2036A00013BC08BC04B01847802600200FB407B504AA02CA03480192FFF722FF03B008BC39
:2036C00004B0184780260020F7B51E00364B0192C35C0400002B00D1FEE7C56880206B688F
:2036E000DF690742FCD00F221868304F38401860A36858680768974307601F685B7B9C4693
:203700000E236246934020227B60019BC16043606B6A93430360012302681343036000F03B
:2037200057FC3E22E36805005B6830001A85002100231F4AFCF758FE00231E4A8018594141
:20374000FA2200239200FCF72FFE0600A3685B685868002805D000F03BFC401B8642F5D2D6
:2037600002200F25A26853681968A9431960557B11680E22AA404A600F4AA218DA6080224C
:2037800092005A60E268516A1960516880220D68D2012A430A600021084AA15001221968DD
:2037A0000A431A60FEBDC04618080000FFBFFFFF10270000E7030000280800002408000028
:2037C00008B4034B9C46034BC01A08BC6047C046C93600082C0A00000EB403B5054B03AAB0
:2037E00002CAC0180192FFF78BFE02B008BC03B01847C046280A000008B4034B9C46034B19
:20380000C01A08BC6047C046D93700082C0A000073B504008B032FD501236A46537101F0C8
:20382000D1FB164D2E00AC363368002B24DD01F0C9FB2A0033689432013B33601368200ACE
:203840001900083111605870200C9870684600791C70187168464079240E58716846807964
:20386000DC7098716846C079D871054B994200D31560044801F0AAFD73BDC04658120020AC
:20388000E8120020F0120020F7B508AC257890240193E405A0423FD18024314EA402776923
:2038A0003C43746103244E00B4400368E743A3430224B440036003681C43046001248C4034
:2038C000002A49D14268A2434260019BC268B3403A40C260C2681343C36083681F4001230D
:2038E000B34087608268134383608A00072902D90A00083A920007238B4289414942890083
:2039000040180F219140036A8B4303622B009340016A0B430362F7BD124CA04204D1802425
:203920000F4EE4027769BBE70F4CA04204D180240B4E24037769B3E70C4CA04204D180245F
:20394000074E64037769ABE7094CA042AAD18024034EE4037769A3E7426814434460B4E701
:20396000001002400004004800080048000C00480014004810B5744601F0F8FA72B601F02E
:20398000D1FA0A4B0A4AD9691A620A4B1868002802D003681B68984701F0D6FA62B601F08F
:2039A000FBFA200001F04CFF10BDC046003801405F1B12007029002010B5744601F0D6FAE5
:2039C00072B601F0AFFA0A4B0A4AD9691A620A4B1868002802D003681B68984701F0B4FA83
:2039E00062B601F0D9FA200001F02AFF10BDC046004400405F1B12007429002010B5744692
:203A000001F0B4FA72B601F08DFA0A4B0A4AD9691A620A4B1868002802D003681B68984764
:203A200001F092FA62B601F0B7FA200001F008FF10BDC046004800405F1B1200782900208F
:203A400081231B01C158C2180D4B10B5C358521A934200D91300822212018350002B0ED0BB
:203A60000024084BC45443685B68D96082585A60C268126A1A60012219680A431A6010BD24
:203A80001C0800001808000010B50F24436859680A68A2430A60597B1A680E238B405360B8
:203AA00082230C491B01C25843589B1A43500C394458A2184418A24206D24250002B06D1AC
:203AC0000122054BC25410BD02001032F5E7FFF7B7FFF8E71C0800001808000010B5FFF7E6
:203AE000D3FF10BD30B580240C4A0300855824010C20A54211D20A481C58651C1D50217008
:203B000081211C58090159188C4202D3190010311950002099580131995030BD1C08000071
:203B20001408000010B5FFF7DDFF10BD08B4034B9C46034BC01A08BC6047C046253B000818
:203B4000280A0000034B10B5C35C002B01D0FFF777FF10BD1808000010B5FFF7F3FF10BD32
:203B600008B4034B9C46034BC01A08BC6047C046593B0008280A000082680300526830B566
:203B8000506880220D4D92005C59121A121B02D58020800012180B20002A0DD0621C5A5155
:203BA000074A1C19A418227800200A70802259599200914200DB585130BDC0462408000033
:203BC00028080000F0B585B01F000E000192040000F0FEF9002102AB254AD9710500002381
:203BE0003800FCF701FC0023224A80185941FA2200239200FCF7D8FB070002ABD91D20007B
:203C0000FFF7BAFF00F0E4F9401B874201D202202BE002ABDB793E2BEFD1174BE35C002B0E
:203C200000D1FEE78023E0684168CA691A42FCD00F216268006A53681C688C431C60557B21
:203C400014680E22AA40019D6260DE605D600225A843186001201D68284318605868002878
:203C6000FCD11D688D431D60626005B0F0BDC04610270000E70300001808000008B4034B30
:203C80009C46034BC01A08BC6047C046C53B00082C0A0000C36810B512CB074B9C4202D09C
:203CA000064B9C4204D10648FCF7F2FAE06010BD044BD868F8E7C046003801400044004055
:203CC00000127A0050290020C368F7B5654A0400986899898618721E96410023F6B21A0029
:203CE0000096FFF7D1FDE36828331B78032B02D15D48FFF73BF9E1685C4B48680325C218BF
:203D0000531E9A4112019540594B28311F6BAF431F6309781F6B91400A003A431A63554AF5
:203D2000904200D079E080229969D2010A439A619B69514B1C602000FFF7ACFF0022E06882
:203D400043685A604D4B62689A4205D180234C4A9B0011680B43136023000921494A806913
:203D600001F07EF8E36841685A686060100028308860186A08600121434821540C2010606E
:203D8000B430906090221869D20590425CD03F4A904200D10026998A012300961A00FFF708
:203DA00073FD3B4BA2689A4205D18023344ADB0011680B4313600023E0681A000921C06943
:203DC00001F04EF8E16842684B68A0601800243090603048496A2018D06080208000506047
:203DE00011600121106801431160A022596812050A435A6080221968D2010A431A601D4A3E
:203E0000934223D10F211B2000F07CFFE3685A68012311680B431360F7BD1F4A904207D1D1
:203E20008022D96992020A43DA61DB691B4B81E71B4A904200D07EE78022D969D2020A43FF
:203E4000DA61DB69174B75E70E00A4E7124A934202D10F211C20D7E7114A9342D6D10F2157
:203E60001D20D1E700FCFFB75029002000C8FEBF001002400038014070290020746A000813
:203E800000000140DD3A00081808000000040048846A0008280800000044004074290020EF
:203EA000004800407829002070477047FEE70000F0B5082400250E4A5368166819009068CE
:203EC000884210D8DE1E0021B04203D30330C11A890889005B18D168994207D8013C10323E
:203EE000002CE9D1F0BD80CE80C1E9E720C3F3E73069000810B500F037F800F0E9F800F0CD
:203F000063F810BD10B5744601F030F8054800F0BBFF054800F0B8FF01F03EF8200001F0BE
:203F20008FFC10BD546A0008646A000810B5744601F01CF8084800F0A7FF084800F0A4FF40
:203F4000074800F0A1FF074800F09EFF01F024F8200001F075FC10BD746A0008846A00086E
:203F6000946A0008A46A0008144B154A996A10B50A43FC219A629A6AC9030A409A629A6A1F
:203F80001A69012252421A611A6900221A611A69D9680C4A0A438021DA60DA68C9030A40B2
:203FA000DA60DA688022D96952050A43DA61DB6900F0EAFE01F05CFC10BDC0460010024038
:203FC000FFFF81FFFFFFBFFF10B500F017F810BD8023DB05586A704780230022DB055863BA
:203FE0001A610232DA60704780230022DB05DA6070478023DB0558637047000010B50124AC
:020000040800F2
:20400000104B1149DA692243DA61104ADB699368234393600E4BD868FCF73AF98023012291
:20402000DB05013852429862DA62002202219A610F205A63DA605A605C611C6000F062FEF4
:2040400010BDC046001002401027000000580140502900208022D2051369D16810B50B4094
:20406000D9B2C94311619B0707D572B600F05AFF01F0E8F900F068FF62B610BD10B57446BB
:2040800000F074FFFFF7E6FF00F086FF200001F0D7FB10BD0200030010B5040076321278BD
:2040A0007E331A7000F07EFC63681B68002B02D00121200098470323237010BD10B572B67C
:2040C00000F030FF10BD10B500F03EFF62B610BD10B500F043FC10BD0123020001000370C2
:2040E00000232C32436048311360D36104328A42FAD183607047000070B504000D000028B7
:2041000001D0002902D10D4801F090F972B600F0E7FE656000252000E56025616561A56165
:20412000E56125626562A56200F0DAFC0223237000F0E6FE62B6280070BDC046B0690008FE
:2041400010B5041E02D10D4801F070F972B600F0C7FE200000F00AFC002301226360227068
:20416000E36023616361A361E36123626362A36201F0E6F800F0C4FE62B610BDB96900088D
:2041800070B505000E00140000F01CFF002D01D0002C02D10C4801F049F9B31C9B00606911
:2041A000EB185C60002803D01022002101F0EEFFA069002803D01022002101F0E7FF3100B5
:2041C000280000F0F9FB70BDC169000810B5040000F0F8FE002C02D1094801F027F9A2685A
:2041E000084B20001340A360002323616361A361E36123626362A36200F094FC10BDC046A1
:20420000D269000801000100F8B504000D0017001E0000F0D7FE002C01D0072D02D90B4842
:2042200001F004F90122AA4063892900134300226381AB1C9B00E3185B6820009B699F60CF
:204240001E605A6000F0C0FCF8BDC046E7690008F8B504000D0017001E0000F0B3FE002CA7
:2042600001D0072D02D90B4801F0E0F80122AA4023892900134300222381AB1C9B00E318E7
:204280005B6820005B699F601E605A6000F0C2FCF8BDC046F8690008022370B503700300AE
:2042A000002504006433C5678560C560056145618561C5610562456285621D7000F0F2FB91
:2042C00063681B68AB4202D029002000984770BD03000278803310B51A70052303704368B7
:2042E00004001B68002B01D0042198470023A36010BD030010B580331B78037043681B6895
:20430000002B01D00521984710BD0000F7B50600643633780400002B01D0002333702700EB
:2043200074373A002000019700F038FC63689B68002B18D1019B1A78602315001D401A425B
:2043400034D00021200000F09DFC0021200000F085FC63681B68002B02D00621200098476C
:2043600006233370F7BD200098470028E2D023007B331A78013B1B7812021343E26E9A421C
:2043800000D9E366019BE56E1B787F2B00D80EE1002D00D1FEE009233370FFF78FFE0021B9
:2043A000E36EA26E2000FFF753FFFDE023007F2175331B780A401B021343854A934200D127
:2043C000D0E026D880225200934259D00DD8012B50D0022B00D196E0002BB2D122007C321A
:2043E000A2660222E2662367C1E781225200934200D19FE0FF32FF329342A2D12300763387
:204400001B78012B9DD122007C32118801330B4341E080221201934246D023D8A022D20034
:2044200093423DD06B4A9B18012B00D989E72300220079331B78783212781B022100134371
:20444000220060687632406877310700127820000978B847002800D173E74368A3660368D7
:20446000E3661BE090221201934222D05A4A934200D066E7594BA3660223E3660023B2E7FF
:20448000230076331B78012B00D05AE7220002217C3213888B431380A566E566256766E762
:2044A0004F4BA566E5669EE723007F33A3660123D6E72378042B11D1FFF700FE2000FFF712
:2044C00085FEFFF700FE230003217F331D70636821701B68002B01D0200098472300763339
:2044E0001B78002B0BD022007F3213700423237063681B68002B02D0022120009847002383
:20450000A366E3666FE723000F2178331B78200019405BB2002B0ADA00F02EFB012804D0B7
:20452000022800D00DE72F4BA5E72F4BA3E700F00DFBF3E7230076331B78002B00D000E770
:20454000230078331B780F22190011401342D6D05BB22000002B02DA00F0BCFBCFE700F0E3
:20456000A3FBCCE7230076331B78002B00D0E8E6230078331B780F22190011401342BED0E3
:204580005BB22000002B02DA00F07CFBB7E700F065FBB4E714233370FFF790FD2B002A0045
:2045A00000212000FFF730FEFFF78DFDDAE6002D06D015233370FFF781FDE36EA26EEFE7CD
:2045C0000B233370FFF77AFD2B002A002900E9E60203000000FAFFFF020C00000E6A0008C5
:2045E000954000080A6A00080C6A000870B50600643604003078002840D00638C3B20F2B4E
:2046000034D80F2832D8FBF72FFE3931310825323131313131313131393923007B331A78D7
:20462000013B1B78E06E12021343984212D2E368198AFBF7B3FE0D1E0CD1FFF73FFD2B003F
:204640002A0029002000FFF703FEFFF73CFD0A2333700BE014233370FFF730FD00232000C6
:204660001A001900FFF7D0FDFFF72DFD70BD236F002B01D0200098470023E9E70021200036
:2046800000F000FB0021200000F0E8FA63681B68002B02D00621200098470623D8E770B59E
:2046A000050064352B780400142B29D019D8062B06D002D8002B03D070BD093B022BFBD83C
:2046C0000021200000F0DEFA0021200000F0C6FA63681B68002B02D0062120009847062346
:2046E00018E0152BE8D10A3B2B70FFF7E7FC002320001A001900FFF7ABFDFFF7E4FCDBE764
:20470000C3689B695B68002BD6D1036F002B00D0984700232B70CFE70B4B30B51B6D0B4CFB
:20472000C0001B19C018038889181B1994B244808C1A002A00DC30BD6078257800022843C8
:204740001880023A0233F3E7005C0040006000407346F0B5764C87B0059300F007FC656C87
:204760006B0504D5734B74486364FFF795FD2B0508D50823226C7048134323646F4B63644B
:20478000FFF7A6FDEB040BD5A36C1B0406D40822236C694893432364FFF7ABFD684B6364CA
:2047A000AB0507D564484368DB68002B00D09847644B636480231B021D4206D100F0ECFBB6
:2047C000059801F03DF807B0F0BD0F26584B2E40B500ED182B6858480293B31C9B00C318A5
:2047E0005B680193029B1B0626D52A685649019B0A4080215B6909020A432A60D9685A6848
:204800001F688A18BF1ABC461F685A6097422CD0019A128A624500D962469868DA6041188C
:204820009960F0B2FFF778FF2A68484B1A4030235A40474B13432B608022029B12021342E9
:204840005FD02B68404A1A40802313432B60F3B20493029B1B0514D53748B31C9B00C31888
:204860005B685B68049998474BE00122B240038993430381019B9B68002BDDD0F1B2984717
:20488000DAE7019B33489A69F10093680293236D1B185B18998809180391DB888C469B05DB
:2048A0009B0D1900029801292DD8029F0399BC465808400009188444834202D060460988D8
:2048C00001709168C91891605168C91851601168C91A11609189013989B29181019A528A6C
:2048E0009A4201D8002918D10122B2401248438993434381B31C9B00C3185B68DB68002BA6
:20490000B0D1656C56E767463F88023907703F0A477002270230BC44C5E72A680E4B1A4096
:20492000C0239B015A400A4B13432B60E9E7C046005C0040FFFBFFFFC43C0020FFF7FFFFAA
:20494000FFEFFFFFFFFDFFFF0F07FFFFBF87FFFF80800000006000408FB7FFFF10B5024826
:20496000FFF7BAFB10BDC046C43C0020037810B5012B0ED0074B98420BD11F2000F0E2F93D
:204980000322054B05491A64054BDA690A40DA61DB6910BDC43C0020005C0040FFFF7FFF75
:2049A0000010024080227E3003781343014AD3647047C046005C00408B1C9B00C318F7B5E0
:2049C0005C68032322681340032B56D05A4253415B022E4A2E4E126DCD009219AD186269B4
:2049E000002A13D00700002208376A80FA6F0192228A01321600012296433200019E9219EF
:204A0000FA676A46968820222E801343A269002A18D0648A661E3E2C32D91F223243013234
:204A2000521196021B4A3243012692B20830EA800134C26FB443A41892B2C467AA80802240
:204A40009201134311488A00121880201468C001044200D0034340201468044200D00343EF
:204A60000D48194301400D480D4C01431160116823404B4003431360F7BDC023DB00A8E7C0
:204A800001223243013252109202CDE7005C0040006000400080FFFF0F07FFFF80800000D3
:204AA00070780000002180230B4A10B511655164D3644368DB685C4263419E245B42240219
:204AC0005B021B191364030040220833DA67034BC360FFF771FF10BD005C0040106A00082B
:204AE000017870B50400012914D10B4B98420ED180220A4B1204D869094D0243DA61DB698E
:204B00001F202964023100F0FDF800232B642000FFF7C8FF70BDC046C43C0020001002407D
:204B2000005C0040402301220830C3670548064993005B1819680132014319601860082A34
:204B4000F5D1704780800000005C0040084B8900C958C0220B00920113401800114205D02C
:204B6000044A9B181800431E984101307047C046005C004000F0FFFF074B8900C95830221C
:204B80000B0013401800114204D0103B1800431E984101307047C046005C0040084B0948AD
:204BA0001B6DC9001B18C9188B881B181000083019880233118002329042F9D17047C0460E
:204BC000005C0040006000408B1C9B00C018426870B595690C0028680123002805D0518A1A
:204BE00040180138FBF754FB83B2AB81064BA400E4182268054B1A40C0239B015A40044BF5
:204C00001343236070BDC046005C00408FB7FFFF808000008B1C9B0010B5C01842680C0013
:204C20005369128A19688A4200D90A0020009968DA60FFF771FD064BA400E4182268054B62
:204C40001A4030235A40044B1343236010BDC046005C0040BF87FFFF80800000064B890058
:204C6000C9180A68054B1A4080235B015A40044B13430B607047C046005C00408FB7FFFFF1
:204C800080800000054B8900C9180A68044B1A4010235A40034B13430B607047005C004010
:204CA000BF87FFFF80800000C022074B8900C9180B6892011340934205D00B68034A1A40F5
:204CC000034B13430B607047005C0040BF87FFFF80A000003022084B8900C9180B68134039
:204CE000934207D00A68054B1A4020235A40044B13430B607047C046005C0040BF87FFFF62
:204D0000808000000322F0B5FF26C0250240D2009640890191400A4F83089B00DB19AD005A
:204D20005C591F22B4430C435C51012302409340C02240098000C019520083500360F0BD98
:204D400000E100E01F23012203409A4030B543090B4C0C4D9B0019195B19DA67C0235B006F
:204D6000CA5003218308084088409B001B19C024FC318140A4001A598A431A5130BDC04677
:204D800000E100E004E100E0002301220848094910B5036043604C6810312360D40001325B
:204DA0000351082AF7D1044B093A5A6010BDC04694290020446A000800000240F0B585B0D7
:204DC000040002910092039300F0FCF8062C0AD801221700A7401E4B1968394207D000259A
:204DE000280005B0F0BD1B4800F020FBF7E71A4E20010190351801340098E40039431960D0
:204E0000E050164903981C196060486902434A614A69009A002A0BD05B68AA681A4203D17B
:204E2000E87B0299FFF76EFF094B5A6817435F600F20019BF1184B68497B1A6882431A60D6
:204E4000019AB0580E228A40426000221A60C7E794290020346A0008446A0008001002403E
:204E6000F8B504000D0016001F0072B600F038F83B00320029002000FFF7A0FF040000F0B8
:204E80003FF862B62000F8BD10B50268447B11680E23E140194043681B6819420CD0837B79
:204EA0000800A04001335060044ADB009C58002C02D0D3185868A04710BDC04694290020C9
:204EC00010B5744600F052F80448FFF7DDFF00F063F8200000F0B4FC10BDC046446A000867
:204EE00010B5054C636DA26D134302D0034800F09DFA0123A36510BD543D0020B46A0008F3
:204F000010B5064C636D002B02D1A36D002B02DC034800F08BFA0023A36510BD543D00202A
:204F2000B96A000810B5064C636D002B02DDA36D002B02D0034800F079FA0123A36510BDA1
:204F4000543D0020BE6A000810B5064C636D002B02DDA36D002B02DC034800F067FA0023A7
:204F6000A36510BD543D0020C36A000810B572B6074C636D002B02DBA36D002B02D0054804
:204F800000F054FA636D0133636562B610BDC046543D0020C86A000810B572B6074C636D21
:204FA000002B02DDA36D002B02D0054800F03EFA636D013B636562B610BDC046543D0020F5
:204FC000CD6A0008054B10B55A6D002A02DB9B6D002B02DC024800F029FA10BD543D0020C3
:204FE000D26A0008054B10B55A6D002A02D19B6D002B02DC024800F019FA10BD543D0020B8
:20500000D86A000810B572B6FFF76AFF10BD10B5FFF776FF62B610BD70B504000D00FFF7EC
:20502000D1FF002C02D10C4800F000FA216A237E294321620A2B03D1E3690B4206D170BDA2
:205040000B2BFCD1E36919408B42F8D100232000E36100F0C9F8F2E7DE6A00080B4B70B536
:20506000DE680400FFF7CEFF336A1D002540234205D10A20F46100F0C7F8356A2540336AFA
:20508000AB433362FFF7C3FF280070BD543D0020F8B50F4B0400DE680F00FFF7B3FF336A2A
:2050A0001D00254023420ED1002F03D1FFF7AFFF2800F8BD39000A20F46100F0C5F8002819
:2050C000F4DB356A2540336AAB433362EEE7C046543D0020FEE70000F0B500250400194B3A
:2050E00089B0056281620E00586000F09FFB23001033236163610123012721005B42124AC9
:20510000A3612C31200024606460A5606562E56125656565A765813300F0B2F97368E060EA
:2051200043610A4B07760293F36802A803933369059701930493064B0795069300F0E6F911
:2051400009B0F0BD4C3D0020EB6A0008F06A0008D5500008024B5A6A104358627047C04679
:20516000543D002000238268037603691B6899689142FBD25A6803604260106058607047C2
:2051800000238268037603691B6899689142FBD85A680360426010605860704770B50C001C
:2051A00072B6FFF7BFFE207E052807D8FBF75CF80C06060316100022E3691A6001235B423A
:2051C0002000E361FFF7CEFFFFF7BEFE62B670BDE569FFF7F7FEAB680133AB6062682368D1
:2051E00013605A60EAE7000010B50400FFF7EAFE002C02D1034800F019F92000FFF7B2FFF7
:2052000010BDC046046B000870B505000C4CE668FFF7E8FE357625682B685C60236001236A
:20522000E5602B76EFF309837269243B9A4202D9044800F0FBF831002800FAF77DFF70BD07
:20524000543D0020F56A000870B50D000F4B86B0DE680400FFF7C6FE6B1C13D033002900AA
:205260000B4A684600F026FA2000FFF7CDFFFFF7A9FE009B002B02D0684600F037FAF069DC
:2052800006B070BD2000FFF7BFFFF8E7543D00209D510008F8B504000D00114EF768FFF75F
:2052A000A1FEA368BA68E561934203D82000FFF759FFF8BD3800FFF763FF012305002376B7
:2052C000F460EFF309834269243B9A4202D9054800F0ACF829002000FAF72EFFE9E7C0462D
:2052E000543D0020F56A0008044BDA68196890688B689842804140427047C046543D00200E
:205300000D4B70B51C68D868226853601A6001222276DC60FFF734FF0500EFF30983426957
:20532000243B9A4202D9054800F080F829002000FAF702FF70BDC046543D0020F56A00081C
:2053400070B5064CE568FFF74DFE23689A68AB689A4201D9FFF7D4FF70BDC046543D002045
:2053600070B504000D00002801D0002902DA034800F05CF8A5602460646070BD106B00086D
:2053800070B504000D00FFF72DFE002C02D10D4800F04CF80020A3685A1EA260824203DAE8
:2053A000854202D1A360013870BD074B6268DB682900DC611C605A60052013606360FFF79E
:2053C00043FFF1E7206B0008543D002010B50400FFF7F8FD002C02D1084800F027F8A36852
:2053E0000133A360002B07DC2068036823605C600023C361FFF7F8FE10BDC046326B00088B
:20540000012310B5064C07492370002306486360FFF762FE02232370FFF772FD62B610BDE2
:205420004C3D0020446B0008543D002072B60322024B1865024B1A70FEE7C046543D0020D1
:205440004C3D002010B5FFF7BDFD00F08DF910BD10B572B6FFF744FD10BD10B5FFF750FDF2
:2054600062B610BD10B5041E02D10448FFF7DEFF21000820FFF7E8FE10BDC046586B0008AB
:205480008B6002230B830023086108000B62704710B50400FFF796FD002C02D11848FFF70F
:2054A000C5FF072162680A4207D1A3680B4204D19A4202D29B1AA72B02D81148FFF7B6FFD0
:2054C000E368FF2B02D82369002B02D10C48FFF7ADFFA368626818002838426122694C3BFB
:2054E000C3601A6162695A61064A1A62E368064A836002230376002302614376036210BD2F
:20550000646B000859010008543D002010B5FFF7BFFFFFF769FE10BDF8B505000C0016002A
:205520001F00002809D0A72907D903000B435B0703D1FF2A01D8002F02D10F48FFF776FF4E
:20554000283C2C19FFF784FF2300069A243B6561E3605A61094A1F611A6202230021238308
:20556000074B2000A66023612162FFF793FEFFF774FF2000F8BDC0467A6B00085901000892
:20558000543D002010B5034BDB68D8610F20FFF73BFE10BD543D002010B50400FFF758FFD9
:2055A0002000FFF7EFFF10BD10B50400FFF750FF2000FFF757FFFFF750FF10BD10B503685E
:2055C0009C68A2420CD85C688A600B604C602160596099688A1A9A6001235B42836010BDF0
:2055E0001B68121BECE770B504000D00022900D2022502266019FEF7FCFCFEF7E9FC041B47
:20560000A54203D8013635000400F3E7022E02D90120FFF79FFD70BD114B70B5D9611400C4
:205620008260104A0D0042601A69026050601861022C00D202242819FEF7CEFC0226FEF72E
:20564000C7FC401B844204D80136A819FEF7D1FCF5E7022E02D90120FFF77CFD70BDC04626
:20566000543D0020643D0020F8B505000C00FEF7AFFC0E4B0E4F1A69BA4205D1010022002C
:205680002800FFF7C9FFF8BDDB69C31AE618B34200D926009368B34202D92100FFF7A3FFD8
:2056A000320029003800FFF789FFECE7543D0020643D0020F8B504000D0016001F00FFF7AB
:2056C00081FC002C03D0002E01D0002D02D10648FFF7ACFE002329002761E6602000636163
:2056E000FFF7C2FFF8BDC0468C6B000870B50400FFF768FC002C02D11848FFF797FE184D67
:205700002B699C420CD023686268A16813605A609A6852189A6000232360013BAB6170BD2F
:205720002368104A2B615A60002323602B69934202D1FEF759FCF2E79968A2688A189A6092
:20574000FEF746FC2B69E9699B68421A9342E6D9C918091AFFF747FFE1E7C046976B000821
:20576000543D0020643D0020F7B5FFF72BFC294D2C69FEF72DFCEA69A168274F831A99427B
:205780003FD85318EB6162680193236813605A60002323602B69BB4201D1FEF725FCFFF710
:2057A000D3FB62B620002169E368984772B6FFF7B9FB6369002BDAD0FEF70AFC019B62695A
:2057C000C31A060000939A420BD20220FFF7C2FC00222B69BB4208D131002000FFF71CFFD6
:2057E000F7BD019B121AD218F3E7009B0099D318994200D913001A0021003800FFF7DEFE3E
:20580000B5E72B69BB42EBD05118091AFFF7EBFEE6E7C046543D0020643D0020EFF3098382
:20582000203383F3098862B670470000024A0349136A0B401362704700ED00E0FFFF00FFE9
:2058400010B50F300FD072B6EFF30984203C84F3098880235B04E361FFF746FD024B002876
:2058600000D1024BA36110BD6B01000876010008704700000748022905D00020032903D021
:20588000012900D104487047032AFCD80348D2008018F8E7E46B00080C6C0008286C000802
:2058A000030010B508000449D2025B18D90200F051FC002010BDC04620000100F7B5234B3E
:2058C0000191C0181700C40272B6FFF709FBFDF78BFAFDF77DFAFFF713FB62B6FDF750FA21
:2058E0000026F5022D19BE4219D02800FDF78AFA002812D029001648FDF7C2FEE120400036
:20590000FFF752FE012472B6FFF7EAFAFDF76CFAFFF7F6FA62B62000FEBD0136E1E72600C2
:20592000AE420DD0019B30001B1B9959FDF788FA002803D00748FDF7A3FEDFE70436EFE77B
:205940000548FDF723FA0024DDE7C04620000100486C00085D6C00089411000003007433FE
:2059600019780200A12910D159780020FE290BD19979DB791B020B43012B05D10A49106758
:20598000087018009166D366704700202129FBD15A78FF2AF8D1D8799A7900021043434258
:2059A0005841C0B2F0E7C046C83A002037B50400012905D0022907D02848002901D037BD8E
:2059C0002748FDF773FEFAE772B6FFF7ABFA254D20002A000121FEF7D3FB2A002000012142
:2059E000FEF7CEFB0122204B1A7007236A465371FFF7E8FA1D4C2500AC352B68002B22DD2F
:205A0000FFF7E0FA21002B689431013B2B600B6800221800083008601A705A709A70DA7081
:205A20006A4612791A716A4652795A716A4692799A716A46D279DA710D4B984200D30C60DD
:205A40000C48FFF7C3FC80210B4BC9001868FFF7E3FAFFF779FA62B6B1E7C0469C6C0008FB
:205A6000A46C0008346D00081C08002058120020E8120020F0120020CC3A002070B5224CA2
:205A80000500637CA27C0E00207DE17CFDF74FFA2860A17DE07DFDF747FA296802000B18D1
:205AA0003080202B11D91948FDF7EAFD0F21184B01249A788A43110005220A439A7021225C
:205AC0001A7300225A73200070BD617A237A09021943A37AC2021B041943E37A00241B0620
:205AE0000B439342EFD00B48FDF7CAFD0F21084B9A785C738A43110005220A439A702022B4
:205B000001341A73DFE7C046D03A0020AD6C0008A53C0020CC6C000810B572B6FFF702FA8C
:205B20008021044B09021868FFF776FAFFF70CFA62B610BDCC3A002010B572B6FFF7F2F9AF
:205B40008021044B49021868FFF766FAFFF7FCF962B610BDCC3A002013B58021154A8902EB
:205B60005369C0200B4353619023DB051C68000420431860506901435161C02219689204E9
:205B80000A437F211A600C4B0C481A788A43110070220A431A700A22D421DA7100237632E3
:205BA00000934900064BFFF7B7FC064B1860FEF78FFA13BD00100240A53C0020F03A00205B
:205BC000895C0008CC3A002010B5094C094AA36D09481340A365FFF7E7FC08490848FEF71A
:205BE0008BFA8023A26D1B021343A36510BDC046005C0040FF7FFFFFDE030000246D00088E
:205C0000C43C0020044A10B5936D044904480B409365FEF795FA10BD005C0040FF7FFFFF0C
:205C2000C43C002070B504000D0072B6FFF758F92B00220001210548FEF70AFBFFF760F99A
:205C400062B601204042FFF709FA70BDC43C002070B504000D0072B6FFF742F92B00220067
:205C600001210748FEF7D0FAFFF74AF962B6802004494002FFF70CFA43425841400070BDED
:205C8000C43C002078690000F0B585B001204042FFF7E4F98023DB00040018420BD072B6D4
:205CA000FFF71EF91F230121CE4ACF48FEF7ACFAFFF726F962B6E303E8D5CA4CE17B352909
:205CC0000AD8192919D8C948032900D1C0E0122900D193E0002933D0C548FDF7D1FC0F2158
:205CE000C24B9A788A43110005220A439A7020221A7300225A730132D6E008001A381B28E5
:205D0000EAD80023FAF7BAFAC9016400E8FFCC00D201E8FFE8FFE8FFE8FF0001E8FFAC0015
:205D2000E8FFE8FF8A01E8FF1C01E8FFE8FFE8FFE8FFD201E8FFE8FFE8FFE8FFE8FFD20141
:205D400055224225AB4B21721A70023A5A709D70DA70657922792D021543A27961721204F1
:205D60001543E279A17212062A43150A1A715D71150C120EDA71A04A9D711578E172197271
:205D800059729972D972002D17D00F221973837801739343837041730D219648FFF742FFE2
:205DA00072B6FFF79DF81F23220001218E48FEF72BFAFFF7A5F862B668E702220F211A73DF
:205DC000837845738B431A433A2382700373E3E70322E37C1340022B0BD10022864B1A70F9
:205DE0000F21824B9A788A439A7000221A735A735AE0032BF4D101227F4BF0E7A17CE07CD7
:205E0000FDF792F8237C051CDB071AD5072800D90725ADB229007948FFF704FF637A217A85
:205E20001B020B43A17A09040B43E17A09061943491B0B0A217263720B0C090EA372E17244
:205E4000CEE7242800D92425ADB229006C48E3E7E37C1D1C122B00D91225ADB22900DBE7EA
:205E60001F2208216748037043708370C27003714371C3718171FFF7D5FE627A237A12021A
:205E80001A43A37A1B041A43E37A1B061343083B1A0A62721A0C2372A2721B0EE3729FE72A
:205EA0005948FDF7EDFB0622552142250020514B1970023959709D70D970657921792D021A
:205EC0000D43A17909040D43E179090629430D0A19715D710D0C090E9D71D971824200D09B
:205EE000E8E01A73617A227A09021143A27A12041143E27A12060A43110A1A725972110CA1
:205F0000120E9972DA7247E7202108223F48C1711E3901720A31C2700371437183714372B0
:205F20008272C372FFF77EFE627A237A12021A43A37A1B041A43E37A1B0613430C3BA7E79A
:205F4000227B7F2A0BD90F21284B9A788A43110005220A439A7020221A730122A4E702AADD
:205F6000961C310003A803933380FFF787FD0122002899D13588002D00D131E78023ED02B6
:205F80005B019D4200D91D0029002148EF0AFFF75FFE002803D01F48FDF772FBDDE73A0031
:205FA0001B490398FFF78AFC002801D01A48F3E7627A237A12021A43A37A1B041A43E37A51
:205FC0001B0613435D1B2B0A63722B0CA37233882572DB1B3380039B2D0EDB19E5720393C7
:205FE000C8E7C046D03A0020C43C0020A53C0020096D0008983C00201C080020956C0008E2
:020000040800F2
:20600000696C0008B42A0020DA6C0008BC2A0020C82A0020ED6C0008F76C000802AA961C15
:20602000310003A803933380FFF728FD0122002800D039E73388002B00D1D1E61D1C022B11
:2060400000D902251F4FADB2EB022A00390003980193FFF725FC00281DD138000199FFF7FF
:20606000E1FD627A237A12021A43A37A1B041A43E37A1B061343019A9B1A1A0A237262720E
:206080001A0C1B0EE3723388A2725B1B3380039B5D190395CEE70C487EE7E37C1D1C082B7F
:2060A00000D90825ADB229000848B5E623726372A372F3E6022218721A7358729872D872B6
:2060C0006AE6C046C82A0020006D00088D6C000810B500F035F810BD10B5041E00D1013446
:2060E000200000F023F8002807D100F00BF8002801D100F00DF88047F2E710BD10B500F071
:2061000007F80000014B18687047C046B83C0020062010B500F026F9012000F01DFA0000C1
:20612000014B18687047C0462008002010B5034B0100186800F07CF810BDC046200800207B
:2061400010B5034B0100186800F028F810BDC04620080020002310B59A4200D110BDCC5CF6
:20616000C4540133F8E710B5884202D98B18984203D3002307E08B5C8354013AFBD210BD9A
:20618000CC5CC45401339A42FAD1F8E703008218934200D1704719700133F9E770B5050044
:2061A000002910D00C1F2368002B00DAE418280000F0B2F91D4A1368002B05D16360146042
:2061C000280000F0B1F970BDA34208D9216860188342F3D118685B6841182160EEE71A0074
:2061E0005B68002B01D0A342F9D911685018A0420BD120680918501811608342E0D1186812
:206200005B68411811605360DAE7A04202D90C232B60D5E721686018834203D118685B686D
:206220004118216063605460CAE7C046BC3C0020F8B50323CD1C9D43083506000C2D1FD235
:206240000C25A9421ED8300000F066F925490A681400002C1AD1244F3B68002B04D121006B
:20626000300000F043F838602900300000F03EF8431C2BD10C233000336000F055F903E03E
:20628000002DDEDA0C2333600020F8BD23685B1B19D40B2B03D92360E418256003E06368D0
:2062A000A2420ED10B60300000F03EF9200007220B30231D9043C21A9842E6D01B1AA3502E
:2062C000E3E75360EFE722006468C2E70323C41C9C43A042E1D0211A300000F007F8431CA3
:2062E000DBD1C7E7BC3C0020C03C0020002370B5064D040008002B60FCF722FC431C03D19A
:206300002B68002B00D0236070BDC046BC3D002070B504000D001F2904D916230360012008
:20632000404270BD436C002B04D08A009B181A68002A08D1200000F031F82A0001002000BA
:2063400000F01AF8EDE70020012AEAD0511C03D1162301302360E4E7002428001C609047CA
:206360002000DEE710B5034B01001868FFF7D0FF10BDC04620080020002370B5064D040025
:20638000080011002B6000F0DFF8431C03D12B68002B00D0236070BDBC3D002010B500F053
:2063A000CBF810BDC9B20378002B04D08B4200D170470130F7E74B42594149420840F7E71C
:2063C00030B50500101E0BD00024013A2B5D085D834204D1944202D00134002BF6D1181AE3
:2063E00030BD0000F0B51E00434B87B00F0001919C460821059002923B0062461C787D1C43
:20640000105D2F0002000A400842F5D12D2C3AD101272C789D1C002E69D0102E09D1302CC0
:2064200007D120222B789343582B5BD110266C780235012031004042F9F72AFF0390012028
:2064400031004042F9F7AAFF002304910121012218008C4652422100303909291AD80C00BB
:20646000A64225DD002B21DB03991300814207D303D104991300A14202DB634670432018E7
:206480002C780135E7E72B2C01D01700C3E72C789D1CFAE721004139192901D8373CDFE73E
:2064A00021006139192903D8573CD9E71300E7E7002B09DA22230120059A40421360029B2B
:2064C000002B09D107B0F0BD002F00D04042029A002AF7D0002B01D06B1E0193029B019AF4
:2064E0001A60EFE73024002EA3D10836A1E7302C97D00A269DE7C046596D000810B513006D
:206500000A00010002480068FFF76CFF10BDC046200800207047704710B50248FFF7FAFFD6
:2065200010BDC046B43D002010B50248FFF7F3FF10BDC046B43D002058220120014B404233
:206540001A607047BC3D002058220120014B40421A607047BC3D0020FEE7FFFFF8B5C046A8
:20656000F8B5C0460000004803000000030000000000000000000000110000000000000009
:206580000000000001020304060708090000000001020304222A2B2C3A3B3C3D3E3F5B5D03
:2065A0007C7F00808182838485868788898A8B8C8D8E8F909192939495969798999A9B9CCA
:2065C0009D9E9F808182838485868788898A8B8C8D8E8FB0B1B2B3B4B5B6B7B8B9BABBBC2B
:2065E000BDBEBFC0C1C2C3C4C5C6C7C8C9CACBCCCDCECFD0D1D2D3D4D5D6D7D8D9DADBDC0B
:20660000DDDEDF909192939495969798999A9B9C9D9E9FF0F0F2F2F4F4F6F6F8F9FAFBFCEE
:20662000FDFEFF456D7074792066696C652025530D0025533A206E6F7420666F756E640D80
:20664000004F70656E46696C65206572726F723A2025750D00456D7074792066696C650D01
:206660000025533A206F70656E46696C65206572726F723A2025750D00696E694E6F536516
:206680006374696F6E2025530D00696E694E6F4B65792025530D00466972650D00494D61E3
:2066A000783A2025750D00000200000002000000030000000400000005000000060000004B
:2066C00008000000090000000A0000000C0000004F6B0D0A002553202553207265616420D6
:2066E0006661696C0D0053657474696E67732E696E690050696E67004F666600436D645520
:206700006E6B6E6F776E0D0A00202C0055534220636F6E6E6563740D004873693438204684
:2067200061696C0D00487369204661696C0D0055534220646973636F6E6E6563740D0055B3
:2067400053422072656164790D0032303232313231315F32313032004176616461000D25A4
:20676000532025530D004653206572726F720D00466C6173684475726174696F6E00436F4B
:206780006D6D6F6E004D6F6465416674657246697265004368617267696E6700566F6C757C
:2067A0006D650052656164790057616974696E6742746E004265666F7265466C61736800DA
:2067C0004265666F7265526573746172740044656C6179005265616479325072657373005E
:2067E0004F666649664E6F7446697265640000000000000000000000092000088F180008D4
:20680000E9170008000000000100000001000000B4000000000000000000000001000000B9
:20682000B40000000400000003000000030000000000000000000000010000000100000098
:20684000D00200000000000000000000010000000E01000002000000000000000000000054
:20686000010000000300000000000000000000000100000001000000D00200000000000040
:20688000000000000300000000000000766563746F723A3A5F4D5F64656661756C745F613E
:2068A0007070656E64004144432063616C6962206661696C0D000D486172644661756C748D
:2068C0000D00414842467265713D25754D487A3B20415042467265713D25754D487A0D00BD
:2068E0000000000000000000C5330008000000000000000011380008253B0008593B000843
:20690000D9370008C9360008C53B0008D8F5FFFF000000002D3B0008613B0008D4F5FFFFAA
