:020000040800F2
:1000000000040020E1010008B1180008B118000840
:10001000B1180008B1180008B1180008B11800089C
:10002000B1180008B1180008B118000861220008D2
:10003000B1180008B1180008B1180008B11800087C
:10004000B1180008B1180008B1180008B11800086C
:10005000B1180008B118000861080008B1080008CC
:100060000109000851090008A1090008212300081E
:1000700061230008A1230008E123000821240008CF
:1000800061240008A1240008B1180008B118000874
:10009000B1180008B1180008B1180008F1090008EB
:1000A000B1180008B1180008B1180008B11800080C
:1000B00011180008B1180008B1180008B11800089C
:1000C000B1180008B1180008B1180008B1180008EC
:1000D000B1180008B1180008B1180008B1180008DC
:1000E000410A0008B1180008B1180008B11800084A
:1000F000B1180008B1180008B1180008B1180008BC
:10010000B1180008B1180008B1180008B1180008AB
:10011000B1180008B1180008B1180008B11800089B
:10012000B1180008B1180008B1180008B11800088B
:10013000B1180008B1180008B1180008B11800087B
:1001400085010008C103000841050008A11300084B
:04015000C1160008CC
:04015400610100083D
:1001600010B5054C237833B9044B13B10448AFF3F1
:1001700000800123237010BDD00900200000000082
:10018000DC2F000808B5034B1BB103490348AFF34C
:10019000008008BD00000000D4090020DC2F00080A
:1001A0002DE9F04FC1F80CD0C3689D46BDE8F08F33
:1001B00001F0A6FB002383F311882846A047002006
:1001C00001F086FF01F08CFB01F07AFD01F098FB55
:1001D00000DFFEE70000000000000000000000005B
:1001E00072B6234880F30988022080F31488BFF395
:1001F0006F8F01F075FA01F07BFA4FF055301D4911
:100200001D4A91423CBF41F8040BFAE71B49184ACA
:1002100091423CBF41F8040BFAE71949194A1A4BBD
:100220009A423EBF51F8040B42F8040BF8E7002055
:100230001649174A91423CBF41F8040BFAE701F016
:100240006FFA01F05DFA134C134DAC4203DA54F827
:10025000041B8847F9E701F0C3F9104C104DAC427C
:1002600003DA54F8041B8847F9E701F051BA00009B
:1002700000080020000000200004002000040020EE
:10028000E02F000800080020D0090020D00900203D
:10029000BC1000204001000854010008540100086F
:1002A00058010008000000000000000000000000ED
:1002B00040F68C22038E10B59342044616DD123BA5
:1002C0002386238E6269B3F5CA7FD36225DD01F0F0
:1002D0008FFBE36813B1204601F072FF2046BDE8B2
:1002E000104000230D4A322101F012BFB3F5E16F37
:1002F00001DD073BE4E740F24652934201DD043B57
:10030000DEE7B3F5617F01DD033BD9E7B3F5177F86
:10031000ACBF023B03F1FF33D2E710BD210300085D
:1003200008B5202383F3118801F002FB0448FFF78E
:10033000BFFF01F015FB002383F3118808BD00BF48
:10034000EC09002000000000000000000000000098
:100350004FF46162436910B50286DA62426A04466C
:1003600003EB82030F221A63202383F3118801F029
:10037000B7FA01F03DFBE36813B1204601F020FF1E
:1003800000230B4A3221204601F0C2FE01F0B8FAE8
:10039000084B1A689A4207D09B69996893689942FA
:1003A00002D2054801F064FD002383F3118810BDDB
:1003B00021030008600F0020E02900080000000071
:1003C00070B5104D8CB006AC0FCD0FC495E803008E
:1003D00084E803006C4606AD0FCD0FC495E803001A
:1003E0006D46094E094B84E8030006F11804736159
:1003F0000FCD0FC495E80300002384E80300338683
:100400000CB070BDA0290008EC09002000100140CC
:10041000012608B5134B144A9B69144D144C9A617C
:100420004FF4347001F024FE2B68AA681969AB8878
:1004300006FA03F30B4223780DD0012B01D0042BD5
:1004400007D103232370002AEAD0012120469047D8
:10045000E6E70223F6E7023B012B01D80423F1E78C
:100460002670F0E7600F0020F0290008100B002034
:100470001C0B002000000000000000000000000035
:10048000104B984205D1104AD36943F00103D36160
:1004900070470E4B984204D10B4AD36943F00203D4
:1004A000F5E70B4B984204D1074AD36943F00403A4
:1004B000EDE7084B9842EBD1034AD36943F00803B8
:1004C000E5E700BF0000024000380240000402409F
:1004D00000080240000C0240000000000000000084
:1004E000114B37B519689D7908461C79FFF7C8FF8D
:1004F00003236400E4B2A340DB430A6805FA04F472
:100500001A400A60CA6809481340CB60CB68084AA1
:100510001C430023CC601370F02100934022054B54
:1005200001F076FD03B030BD100B0020200A002042
:100530001C0B002011040008000000000000000057
:10054000044B054A1A6000229A8002229A71034ADB
:100550009A607047100B00200000024061050008FF
:10056000037813B5032B3BD18DF8073000238DF8AA
:100570000030202383F311881A4C01F0B1F901F007
:1005800037FAD4F8AC30002B19DD01F031FAD4F889
:10059000AC300099013BC4F8AC30D4F89430124828
:1005A00003F10802C4F8942019600199596004F11C
:1005B00090039A4228BFC4F8944001F0D1FB01F0A7
:1005C0009FF90A4B1A689A4207D09B699968936809
:1005D000994202D2064801F04BFC002383F31188B4
:1005E00002B010BD880E0020200F0020600F0020F8
:1005F000002A0008000000000000000000000000C9
:10060000202383F3118801F093B90000000000005B
:1006100008B501F0A5F9002383F3118808BD000097
:100620000368B3F1804F05D1224A536A43F00103B6
:1006300053627047204A934205D102F50D32536A46
:1006400043F00203F4E71D4A934205D102F50C3250
:10065000536A43F00403EBE7194A934205D102F5CC
:100660000A32536A43F01003E2E7164A934205D177
:1006700002F50932536A43F02003D9E7124A934244
:1006800006D102F59832136A43F0040313627047EF
:100690000E4A934205D102F59632136A43F00803DD
:1006A000F4E70B4A9342F2D102F59432136A43F015
:1006B0001003EBE70038024000040040000800404F
:1006C000001000400014004000080140000C0140F0
:1006D00000100140000000000000000000000000C9
:1006E000F8B50446FFF79CFF826903680169DA6286
:1006F000027D0139012A0CBF0722062203290BD8EB
:10070000DFE801F0026A727A996941EA02129A619D
:100710001A6A42F001021A621A6842F001021A6073
:10072000494A934270D002F5806293426CD002F540
:10073000803293426AD002F58062934266D002F51D
:10074000806293420CBF0322012263683F482189E3
:100750008342667D5CD13E4CE06940F00100E0617F
:1007600003204D00A840C0431C6804401C600224C4
:100770001F68AC403C431C600124002E60D15E68C1
:100780008C4026EA04045C60DC68072904EA000463
:10079000DC60DC68C8BF0839DC609C684FEA810116
:1007A00000EA040098604FF002009C6800FA05F02F
:1007B00040EA04009860CCBF012000200F2403EB26
:1007C0008003186A8C4020EA04001862186A02FA52
:1007D00001F101431962F8BD996941EA02329A6157
:1007E0001A6A42F0100296E7D96941EA0212DA6108
:1007F0001A6A42F480728EE7D96941EA0232DA61FC
:100800001A6A42F4805286E702229EE703229CE79E
:100810001048834204D10E4CE06940F002009EE78C
:100820000D48834204D10A4CE06940F0040096E789
:100830000A48834294D1064CE06940F008008EE7F4
:100840005E688C4034439EE7000400400000024094
:10085000003802400004024000080240000C024040
:1008600008B501F095F8FFF7CBFE0B4B186868B19F
:1008700003681B6898470122084B5A61FFF7C8FEBE
:1008800001F09EF8BDE8084001F0FABC04490548B3
:1008900000F0EEFAEFE700BF2C0B0020000401404F
:1008A000502A0008102A0008000000000000000084
:1008B00008B501F06DF8FFF7A3FE0B4B586868B15F
:1008C00003681B6898470222084B5A61FFF7A0FE95
:1008D00001F076F8BDE8084001F0D2BC04490548B3
:1008E00000F0C6FAEFE700BF2C0B00200004014027
:1008F000602A0008102A0008000000000000000024
:1009000008B501F045F8FFF77BFE0B4B986868B11E
:1009100003681B6898470422084B5A61FFF778FE6A
:1009200001F04EF8BDE8084001F0AABC04490548B2
:1009300000F09EFAEFE700BF2C0B002000040140FE
:10094000702A0008102A00080000000000000000C3
:1009500008B501F01DF8FFF753FE0B4BD86868B1DE
:1009600003681B6898470822084B5A61FFF750FE3E
:1009700001F026F8BDE8084001F082BC04490548B2
:1009800000F076FAEFE700BF2C0B002000040140D6
:10099000802A0008102A0008000000000000000063
:1009A00008B500F0F5FFFFF72BFE0B4B186968B197
:1009B00003681B6898471022084B5A61FFF728FE0E
:1009C00000F0FEFFBDE8084001F05ABC04490548AC
:1009D00000F04EFAEFE700BF2C0B002000040140AE
:1009E000902A0008102A0008000000000000000003
:1009F00008B500F0CDFFFFF703FE0B4B186870B190
:100A000003681B6898474FF47872084B5A61FFF7E8
:100A1000FFFD00F0D5FFBDE8084001F031BC0449FE
:100A2000044800F025FAEEE7440B002000040140E2
:100A3000A02A0008102A00080000000000000000A2
:100A400008B500F0A5FFFFF7DBFD0B4B186870B190
:100A500003681B6898474FF47C42084B5A61FFF7C4
:100A6000D7FD00F0ADFFBDE8084001F009BC044926
:100A7000044800F0FDF9EEE7400B002000040140BF
:100A8000B02A0008102A0008000000000000000042
:100A900070B592B02022002104460AA801F088FD1A
:100AA0004FF480330A934FF400330B934FF48023B9
:100AB0000C933D4B03AA0D933C4B06AE0E933C4B5F
:100AC0000F933C4B10933C4B5968186803C2197A3A
:100AD000117003F109021933354610685168083264
:100AE00003C59A422E46F7D100238DF804308DF8C5
:100AF00005308DF806308DF8073001238DF8083069
:100B000002238DF8093003238DF80A3004232B4982
:100B10008DF80B308B68C3F38103022B05D0032BB8
:100B20002BD0012B20D1264B00E0264B234812A9C5
:100B30008268C2F303120A4412F8302CD3402360B7
:100B400081688268C1F3022112A8C2F3C222014463
:100B5000024411F8441C12F8442C23FA01F1D3404A
:100B60006160A36012B070BD4B6812AAC3F3423338
:100B700002EB830353F8203CD8E78B6812AAC3F337
:100B8000834313448A6889680E4811F4803F0C49F6
:100B900018BF014613F83C3CC2F381524B4301326B
:100BA000B3FBF2F3C2E700BF9CFF0700C0FD0F00DC
:100BB00068FF1F00D0FE3F00C02900080038024037
:100BC0000024F400001BB70000000000000000003B
:100BD00006480749836805C8B3FBF1F3B2FBF1F29D
:100BE000B0FBF1F1034800F013B900BF200B002067
:100BF00040420F00202A0008000000000000000012
:100C00004FF08052084B5A62084A11465368DB067F
:100C1000FCD4136823F4C05343EAC02010604B682F
:100C2000DB06FCD4704700BF003802400070004073
:100C30002DE9F04305469846002485B09DF8309094
:100C400001AEB1FBF2F302FB1310092804F1010419
:100C500094BF30303730C0B23719194607F8010C4D
:100C6000002BEED1274647450DD22B6849461B681D
:100C70002846984718B10B2005B0BDE8F08301372E
:100C8000F1E7002CF8D02B68013C1B68315D284649
:100C900098470028F5D0EEE70000000000000000B3
:100CA0002DE9F04F0B46054614464FF00A0B85B070
:100CB00019785E1C31B928462B685B6805B0BDE821
:100CC000F04F1847252905D02B6828461B68984700
:100CD00048B3F0E75F784FF00008302F14BF2027AB
:100CE0009E1C16F8011BA1F13003DBB2092B03D9BE
:100CF0002A2904D1237804340BFB0838F1E72E2984
:100D000009D116F8011BA1F13003092BF9D92A29C1
:100D100001D10434F5E7632939D017D841294ED0E1
:100D200003D82529D0D03346C2E7532939D05829D2
:100D3000F9D14346102204F104090097216828469E
:100D4000FFF776FF0028B6D14C46ECE7692902D0C0
:100D500013D86429E7D104F104092468002C07DAC8
:100D60002B682D211B68284698470028A3D1644290
:100D7000009743460A222146E1E7732911D07529DD
:100D8000D1D104F10409009743460A22D6E72B6823
:100D900021781B682846271D984700288BD13C46A0
:100DA000C1E72768013F17F8011F09B90434BAE702
:100DB0002B6828461B6898470028F4D07BE700275B
:100DC0002368D4F80880D4F8049003935FFA88FA73
:100DD0004F4501DB0C34A6E7002F0DDC039B1022EE
:100DE000D95D3023284600930223FFF721FF002816
:100DF0007FF461AF0137EBE7B8F1000FEED02B685D
:100E000051461B68284698470028E7D053E7000062
:100E10000FB413B504AB53F8044B0193202383F3B1
:100E2000118800F05DFD019A21460C48FFF738FF5C
:100E300000F066FD0A4B1A689A4207D09B699968D0
:100E40009368994202D2074801F012F8002383F315
:100E5000118802B0BDE8104004B070474C0B002070
:100E6000600F0020C02A0008000000000000000001
:100E70000FB407B504AA52F8041B04480192FFF707
:100E80000FFF03B05DF804EB04B070474C0B00207B
:100E90000EB403B503AA52F8041B0192FFF700FF3A
:100EA00002B05DF804EB03B07047A0F5C670EFE741
:100EB000F0B5324CA04244D1314DEC6944F001040C
:100EC000EC6103244E00B440E4430568254005600E
:100ED00002250768B5403D4305600125002A48D139
:100EE00042688D4022EA05054560C268072902EA8A
:100EF0000402C260C56803FA06F242EA0502C26053
:100F00008368C8BF083904EA03044FF00203846011
:100F1000826803FA06F343EA02038360CCBF01232D
:100F200000230F2200EB8300036A89008A4023EA32
:100F3000020303620723026A03FA01F1114301620B
:100F4000F0BD104CA04204D10D4DEC6944F00204F8
:100F5000B6E70D4CA04204D1094DEC6944F00404FD
:100F6000AEE70A4CA042ACD1054DEC6944F0080450
:100F7000A6E742688D401543B6E700BF0000024077
:100F8000003802400004024000080240000C024009
:100F900010B5D0F80841D0F8142100F584731B1B5C
:100FA000934228BF1346C0F818316BB10022016884
:100FB00080F810214A695268D4605360CB6913608D
:100FC000136843F00103136010BD0000000000002F
:100FD00003685B6959680A6822F00F020A60197C8D
:100FE0001A680E238B405360D0F81811D0F81431D2
:100FF000D0F808215B1A0A4400F584718A4228BFA0
:1010000000F10802C0F81431C0F808211BB901230F
:1010100080F810317047FFF7BBBF000000000000F0
:10102000FFF7D6BF00000000000000000000000035
:10103000D0F81431FF2B16D8D0F80C315A1CC0F858
:101040000C211970D0F80C2100F584739A4224BF4A
:1010500000F10803C0F80C31D0F814310133C0F8A6
:101060001431002070470B20704700000000000082
:101070000430FFF7DDBF00000000000000000000AA
:1010800090F810310BB1FFF783BF704700000000EC
:101090000430FFF7F5BF0000000000000000000072
:1010A0000368D0F820019B695B685B68C3F1630348
:1010B000181A48BF633070470000000000000000AD
:1010C00008B50246FFF7ECFF80B1D2F82031581C7A
:1010D000C2F82001134493F8243100200B70D2F899
:1010E0002031622B03DDC2F8200108BD0A2008BDB3
:1010F0000368064A1B6841689342054A0CBF926820
:101100005268B2FBF1F29A60704700BF00380140AC
:10111000200B002000000000000000000000000084
:1011200038B5002304460D4600681A460189406818
:10113000FFF7BEFE23682E4A1B686560934243D1C9
:1011400002F58032136A43F480431362002520467F
:10115000FFF7CEFF2068274A036809211D61406917
:10116000234601F0DDF92068436902685B68111DC0
:101170009960C169196001230C2184F81031D16094
:10118000C02151611A46018AC068FFF791FE2068AC
:101190002B462A460F21806901F0C2F9216804F527
:1011A00092748B690A685B68101D98606320096AF5
:1011B000DC6058601960196841F001011960D3685A
:1011C00043F40053D36038BD0B4A934206D102F575
:1011D000FA32536A43F400335362B7E7074A934243
:1011E000B4D102F5F832536A43F48023F4E700BF28
:1011F0000038014021100008004400400048004031
:101200002DE9F04390F8043285B00446002B40F0FD
:101210008680444E444F06F1900804F104090DF114
:1012200007014846FFF74CFF0546002877D194F8A0
:10123000F8219DF8073042B1082B84F8F801C4F872
:10124000F401ECD00D2B0CD1E9E7082B07D1D4F831
:10125000F431002BE3D0013BC4F8F431DFE70D2B70
:1012600001D00A2B4ED1D4F8F431002BD7D0002274
:10127000234483F89021394604F5C87001F0C0F981
:101280000123C4F8FC0184F8F8318DF80F302023D5
:1012900083F3118800F024FB00F0AAFBD6F8AC30F1
:1012A000002B3ADD00F0A4FBD6F8AC3004F5C67193
:1012B000013BC6F8AC30D6F894301C4803F1080264
:1012C000C6F89420196003994245596028BFC6F8B2
:1012D000946000F045FD00F013FB154B1A689A422C
:1012E00007D09B6999689368994202D2114800F02F
:1012F000BFFD002383F31188B5FA85F56D0984F8E5
:1013000004528AE7D4F8F421612A88D8511C224477
:10131000C4F8F41182F8903181E70225DBE705B0CB
:10132000BDE8F083880E0020302B0008200F00203D
:10133000600F0020402B00080000000000000000AB
:1013400008B5064B064A9B69064C9A6140F2DE30AE
:1013500000F08EFE2046FFF753FFF7E7600F0020F6
:10136000202B00084C0B00200000000000000000B3
:1013700013B5084C0430FFF7D3FE236843B900933C
:101380004022054B4FF49871044800F041FE206064
:1013900002B010BD480B002041130008580D00207A
:1013A000124B134A5A604FF4E1329A6003F10C0277
:1013B000C3F80C21C3F81021012283F81421002264
:1013C000C3F81821C3F81C21C3F82021C3F8242135
:1013D000C3F8F42183F8F821C3F8FC21C3F80022F4
:1013E000044A1A601432C3F88C2170474C0B002059
:1013F000F02A0008D82A00080000000000000000C1
:101400000022014B9A607047007400400000000009
:1014100008B500F075FA084B1A689A4207D09B6924
:1014200099689368994202D2044800F021FD002394
:1014300083F3118808BD00BF600F0020A02B0008B7
:1014400003680A461B680149184700BF902B000833
:1014500037B5056F19490446284601F0B1F8014631
:1014600018B92046FFF7ECFF0BE01549284601F0BC
:10147000A7F840B92368134A1D681349134B204647
:10148000A84703B030BD2846114901F099F8054638
:1014900090B9104901F0B4F860670378002BF0D0E0
:1014A00001A92A4601F08CF9019B19780029E8D19D
:1014B000094B80B29860D4E70621D2E7602B000880
:1014C000652B00087B2B0008B12B00086D2B000852
:1014D000812B0008302B0008007400400000000041
:1014E000384C83B504F1980604F1900700252023B9
:1014F0008DF8075083F3118800F0F2F94FF6FF7171
:10150000304600F0F5FB88B9D4F890302E4803F14E
:101510000802C4F890201D685B68BA42019328BF96
:10152000C4F8904000F01CFC00F0B2FBFFF770FF25
:101530009DF80730012B3DD0032BD7D1234D2448F4
:10154000FFF766FC2B8EB3F5CB7FCFDA4FF4C86282
:10155000204B9A60202383F3118800F0C1F900F03A
:1015600047FAEB6813B1284600F02AFEFFF750FF58
:101570006B6A6A6903F18043013B02EB830300223B
:101580005A63202383F3118800F0AAF900F030FA9F
:101590001148C3680BB100F013FE00230F4A4FF44B
:1015A000E1710D4800F0B4FDFFF732FF0748FEF788
:1015B000CFFE9BE72846FFF74BFF002385F87830E6
:1015C00094E700BF880E00202C0F0020EC090020BB
:1015D000502B000800740040380F00200114000850
:1015E00008B50220FFF70CFB2A4B2B4D1A682B4C39
:1015F00042F004021A601A68294E42F002021A6090
:101600006B68204623F4604343F440436B60FFF76C
:101610003FFA00F0A5F800F0D3FB122106F1A40078
:1016200000F056FB002106F1980000F051FB4FF44A
:10163000E1311C48FFF79CFE1B4A1C491C48FFF780
:10164000E7FB20461B4CFFF7C3FA2046FFF748F89C
:101650002369143C626903F18043013B02EB83037D
:1016600000225A63EB69144943F00103EB610B68F4
:1016700043F030030B6001216B6A43F000536B624F
:101680000E4B19609A60FEF72BFF2046FEF760FEB6
:10169000FFF726FF003C024000380240200B0020EC
:1016A000880E00204C0B00206D2B00087B2B0008BF
:1016B000B02B0008000A0020000002400074004027
:1016C00000221146054BD15098180832902AC1715A
:1016D000F9D1C3F89030C3F894307047880E0020D9
:1016E0007047000000000000000000000000000043
:1016F0007047000000000000000000000000000033
:101700007047000000000000000000000000000022
:10171000FEE70000000000000000000000000000E4
:1017200070B500240B4B03F1800093E826000439C8
:10173000AA4206D3D9688A4208D310338342F4D32D
:1017400070BD51F8046F42F8046BF1E742F8044BA6
:10175000F1E700BFC02B00080000000000000000FF
:1017600008B500F0B5FDBDE8084000F019B800006C
:1017700000F16043090103F56143C9B283F8001326
:10178000012300F01F024009800000F160409340F7
:1017900000F56140C0F88031036070470000000030
:1017A00000F056B80000000000000000000000003B
:1017B00038B54FF08044E36805469B0702D50448DE
:1017C00000F056FB0023656323610223E36038BD0C
:1017D000402C000800000000000000000000000095
:1017E00000224FF08043DA607047000000000000E4
:1017F00038B54FF08043DA68054612F0020F1C46F8
:1018000002D1024800F034FB656338BD502C00085B
:1018100010B500F0BDF84FF080431A6992070CD55F
:1018200000241C61202383F3118800F081F800F06C
:1018300027FB00F095F884F3118800F0C1F8BDE8AB
:10184000104000F01DBD000000000000000000007E
:10185000114A0221536A1C2043F0010353620F4ACC
:10186000936843F0010393600D4B5A6842F2107382
:10187000B2FBF3F24FF08043013A9A624FF6FF72E7
:10188000DA6200229A615A63DA605A6001225A6170
:101890001A60FFF76DBF00BF00380240002004E06F
:1018A000200B0020000000000000000000000000ED
:1018B000FEE7000000000000000000000000000043
:1018C000044BDA6A0AB91B6B13B1034800F0D0BAB3
:1018D000704700BF600F0020602C0008000000006F
:1018E00010B5054CE36A0BB9236B13B1034800F044
:1018F000BFFA0123236310BD600F0020902C000865
:1019000010B5064CE36A13B9236B002B02DC0448C4
:1019100000F0AEFA0023236310BD00BF600F00206B
:10192000B02C0008000000000000000000000000D3
:1019300010B5064CE36A002B01DD236B13B104489C
:1019400000F096FA0123236310BD00BF600F002052
:10195000A02C0008000000000000000000000000B3
:1019600010B5064CE36A002B02DD236B002B02DC72
:10197000034800F07DFA0023236310BD600F0020B0
:10198000C02C000800000000000000000000000063
:1019900010B5202383F31188074CE36A002B01DB89
:1019A000236B13B1054800F063FAE36A0133E36285
:1019B000002383F3118810BD600F0020702C0008F5
:1019C00010B5202383F31188074CE36A002B01DD57
:1019D000236B13B1054800F04BFAE36A013BE36265
:1019E000002383F3118810BD600F0020802C0008B5
:1019F000054BDA6A002A02DB1B6B002B02DC034872
:101A000000F036BA704700BF600F0020D02C0008ED
:101A1000044BDA6A12B91B6B002B02DC024800F09F
:101A200027BA7047600F0020E02C0008000000007B
:101A30000022034B1B605B609A601B615B61704717
:101A4000600F002000000000000000000000000007
:101A500010B50446FFF7CCFF14B90D4800F008FAA2
:101A600094F820300BB10F2B02D1094800F000FA96
:101A70000023A26884F82030064B1B6899689142C5
:101A8000FBD25A6823606260204614605C6010BD1F
:101A9000102D0008600F0020000000000000000072
:101AA00038B50446202383F31188FFF741FF94F8EB
:101AB00020300025052B0BD8DFE803F0030A0A08C5
:101AC0001C16FFF74DFF85F3118838BD636A1D6052
:101AD0004FF0FF3320466362FFF7BAFFFFF740FF86
:101AE000002383F3118838BD656AFFF781FFAB6877
:101AF0000133AB6094E80C001A6022685360E7E79A
:101B000038B50446FFF784FF0D4B9D691A6885F8C8
:101B1000204011684B60196001219A6182F8201001
:101B2000EFF30982E969243A91421C4602D905483B
:101B300000F09EF92946A069BDE83840FEF730BBA9
:101B4000600F0020302D00080000000000000000A1
:101B500070B586B00E460546FFF75AFF4FF6FF7385
:101B60009E420D4C13D0A3690C4A314601A800F0E7
:101B7000CFFA2846FFF7C4FFFFF73AFF049B13B1E3
:101B800001A800F01DFBA369586A06B070BD284685
:101B9000FFF7B6FFF7E700BF600F0020A11A0008AB
:101BA00070B5184C05460E46FFF732FF2368A34276
:101BB00007D0A2699B6892689A4202D2124800F04C
:101BC00057F9A0696E62AA6883689A4204D82846C9
:101BD000BDE87040FFF73CBFFFF73AFF0123064620
:101BE000A56185F82030EFF30983C269243B9A424E
:101BF00002D9064800F03CF931462846BDE870405D
:101C0000FEF7CEBA600F0020202D0008302D00080E
:101C1000044B1A689B6990689B68984294BF0020A7
:101C200001207047600F002000000000000000004D
:101C3000012038B5124B1A689C6911681D464B602B
:101C400019609A61A16882F82000002284F820209F
:101C50001B689A689142FBD35A68236062601460E3
:101C60005C60EFF30983E269243B9A4202D905489C
:101C700000F0FEF82146A869BDE83840FEF790BAAA
:101C8000600F0020302D0008000000000000000060
:101C900008B5FFF7BDFEFFF7ABFE064B1A689B6960
:101CA00092689B689A4203D9BDE80840FFF7C0BF1D
:101CB00008BD00BF600F0020000000000000000011
:101CC000FFF7B6BF000000000000000000000000A9
:101CD00038B50D46044608B1002902DA034800F081
:101CE000C7F824606460A56038BD00BF402D0008BF
:101CF00038B504460D46FFF78BFE14B9144800F0C2
:101D0000B7F8A368002B23680BDB9C420BD1A368B8
:101D10005A1E002AA26018DA4DB9A3604FF0FF30B6
:101D200038BD9C42F3D10A4800F0A2F8EFE7094B16
:101D300029469B6905205C6262681C605A601360DA
:101D40006360BDE83840FFF703BF002038BD00BF27
:101D5000502D0008600F002000000000000000006F
:101D600010B50446FFF744FE14B90F4800F080F8A0
:101D7000A368002B236810DB9C4210D1A3680133B9
:101D8000002BA3600FDC2068036823605C600023E5
:101D90004362BDE81040FFF75BBE9C42EED10248B3
:101DA00000F066F8EAE710BD702D000800000000A2
:101DB000FEE700000000000000000000000000003E
:101DC000F7B500251E4B1F4A9D60D9681E4C21F4B3
:101DD000E0610904090C0A431C49DA60CA6801265B
:101DE00042F08072CA601A49A4F134070A6842F0CE
:101DF00001020A601022DA77202283F82220FFF7FE
:101E000017FE00F075F94021204600F0C1F8114B93
:101E100080F82060C361B861FFF752FD85F3118837
:101E200062B60D4ABB69C0219A6104F12C0000958D
:101E30000A4B324600F0ECF8094B836103B0F0BD69
:101E400000ED00E00003FA05940F0020F0ED00E043
:101E5000001000E000040020F02C0008B11D000874
:101E6000902D0008000000000000000000000000AD
:101E700072B6014B9862FEE7600F00200000000080
:101E80002DE9F8430026FFF7B3FDFFF7B1FD4FF052
:101E900080433746224D5B6AEC699BB205F11C0812
:101EA000E98C2289581A80B2824219D9E8694045E2
:101EB00034D00A44D21A92B2022A2CBF9C189C1C1D
:101EC000A0B2FFF795FC4FF08043596AEA8C89B2C3
:101ED000891AA21A914221DD72B6124BAB62FEE75B
:101EE00023680A444345EA84D4F80C90C3F804807C
:101EF000EB61E66001D1FFF773FCFFF731FD87F37B
:101F000011882069C847202383F31188FFF710FD4B
:101F10004FF080435B6AEC699BB2C1E7BDE8F88390
:101F2000600F0020802D000800000000000000006D
:101F3000202383F31188FFF7D3BC000000000000CA
:101F400008B5FFF7DDFC084B1A689A4207D09B6979
:101F500099689368994202D20448FFF789FF0023E9
:101F600083F3118808BD00BF600F0020A02D00087A
:101F700010B5044610B90448FFF77AFF2146BDE8C2
:101F800010400820FFF7E4BDB02D0008000000005D
:101F9000022280F82020002280F821208261054A58
:101FA00081605169026141610861506100F128025C
:101FB000C2617047600F00200000000000000000B8
:101FC0002DE9F04104460D4616461F46DDF81880FF
:101FD000FFF70EFD24B1AF2D02D97F2E00D817B91F
:101FE0000848FFF745FF243D074A6319E36031467F
:101FF00067512046C3F804801A62BDE8F041FFF73C
:10200000C7BF00BFC02D0008B101000800000000DC
:102010002DE9F341174605460E460446FF22984631
:1020200000F12803A34217D15522AB19A34216D8B9
:10203000FFF77EFF089B3A46009331464346284609
:10204000FFF7BEFF04460021FFF7AAFDFFF778FF68
:10205000204602B0BDE8F08104F8012BE2E704F865
:10206000012BE3E70000000000000000000000007A
:1020700010B50446FFF75CFF2046FFF779FFBDE887
:102080001040FFF75DBF00000000000000000000EE
:1020900008B50A4B9B6993F821205862920704D136
:1020A0005A69196911611B695A610F20FFF728FDF0
:1020B000BDE808400248FFF7DBBE00BF600F00200C
:1020C000D02D00080000000000000000000000000B
:1020D00010B50446FFF72CFF2046BDE81040FFF77F
:1020E000D7BF00000000000000000000000000005A
:1020F000054B03F11C02DA611A624FF6FF729A84F3
:102100000022DA84704700BF600F0020000000004A
:10211000F8B506460C4615461F46FFF769FC0EB19A
:1021200005B114B92148FFF7A3FE214A022C21462C
:1021300014464FF08043F56054F81C5F5B6A38BF6B
:102140000221A542376198B217460BD1D0840844CA
:10215000D661166280B2356075603181BDE8F840A5
:10216000FFF726BBD28C9BB2841A0C449B1AA4B2F4
:102170009C422B8903DAE41AA4B22D6805E0A3423D
:1021800003D9101980B2FFF733FB2B899C42F2D898
:102190006B68356073601E606E6034812B891C1B18
:1021A0004FF6FF732C81BB84F8BD00BFE02D000803
:1021B000600F002000000000000000000000000090
:1021C00010B50446FFF714FC14B92048FFF750FE81
:1021D000E36813B91D48FFF74BFE1D490B4653F842
:1021E0001C2F944222680CD061680A6022685160FA
:1021F00000219A42E16027D0138921890B44138181
:1022000010BD00209A42CA615360E06003D1BDE86E
:102210001040FFF7E5BA1389208903449BB213816C
:102220004FF08042506ACA8C80B2821A92B29342B6
:102230000AD9BDE810409B1A9BB2022B2CBFC018D4
:10224000023080B2FFF7D4BA10BD00BFF02D0008F5
:10225000600F0020000000000000000000000000EF
:1022600080B500AFEFF30983203383F3098800239F
:1022700083F3118880BD0000000000000000000012
:1022800098B5202300AF83F311880D4B5B6813F4DE
:10229000006312D0EFF309844FF0807344F8043CDC
:1022A000A4F1200383F30988FFF7B2FC18B1054BB2
:1022B00044F8083C98BD044BFAE783F3118898BDB5
:1022C00000ED00E0C5010008D0010008000000009A
:1022D0000F4B1A6962F400421A6100221A6199696F
:1022E00061F0805199619A6159694FF0FF315961EC
:1022F0005A615A6A42F080525A621A6A42F00102E6
:102300001A62DA6A42F00102DA6200F0E9B800BF4C
:102310000038024000000000000000000000000043
:1023200008B5FFF735FB0A4B0A4A1968126801F035
:102330000E01114205D0084A596013680BB150686C
:102340009847FFF73DFBBDE80840FFF799BF00BF86
:102350000060024008600240801000200000000081
:1023600008B5FFF715FB0B4B0B4A196812680909F2
:1023700001F00E01114206D00A015A60074A936823
:102380000BB1D0689847FFF71BFBBDE80840FFF78B
:1023900077BF00BF006002401C6002408010002038
:1023A00008B5FFF7F5FA0B4B0B4A19681268090AD2
:1023B00001F00E01114206D00A025A60074A136961
:1023C0000BB150699847FFF7FBFABDE80840FFF7EB
:1023D00057BF00BF00600240306002408010002004
:1023E00008B5FFF7D5FA0B4B0B4A19681268090BB1
:1023F00001F00E01114206D00A035A60074A9369A0
:102400000BB1D0699847FFF7DBFABDE80840FFF74A
:1024100037BF00BF006002404460024080100020CF
:1024200008B5FFF7B5FA0B4B0B4A19681268090C8F
:1024300001F00E01114206D00A045A60074A136ADD
:102440000BB1506A9847FFF7BBFABDE80840FFF7A9
:1024500017BF00BF0060024058600240801000209B
:1024600008B5FFF795FA0B4B0B4A19681268090D6E
:1024700001F00E01114206D00A055A60074A936A1C
:102480000BB1D06A9847FFF79BFABDE80840FFF709
:10249000F7BE00BF006002406C6002408010002068
:1024A00008B5FFF775FA0B4B0B4A19681268090E4D
:1024B00001F00E01114206D00A065A60074A136B5A
:1024C0000BB1506B9847FFF77BFABDE80840FFF768
:1024D000D7BE00BF00600240806002408010002034
:1024E00000230A4A30B5136014251A46084C0949DE
:1024F00005FB03404068026041F833200133072B9D
:10250000F6D14FF0FF32044B5A6030BD4C0F002023
:10251000202E000880100020006002400000000013
:102520002DE9F8430F4690469946044610B91C48D9
:10253000FFF79EFC01201B4D627C2E6800FA02F31F
:1025400033422BD11848730640F8328000EBC200AA
:10255000C0F804904FF00E0001BF144AD36943F055
:102560008073D36163681A6822F00F021A60217CBD
:1025700022688840506000221A60A3681E4206D17B
:10258000B8F1000F03D03946A07CFFF7F1F8012322
:102590000020627C93402A6813432B60BDE8F883D7
:1025A000002E00084C0F0020801000200038024050
:1025B00003460244934200D1704703F8011BF9E738
:1025C000F8B506460F4616F8014B00F019F92044FD
:1025D000437817F8015B03F00303012B08BF203495
:1025E00000F00EF92844437803F00303012B08BFE1
:1025F0002035601B01D1002DE5D1F8BD00000000A1
:10260000134B2DE9F0411D680646AC6D0F46B4B979
:10261000502000F005F9A865046044608460C4603F
:102620000461446184618462C462046344638463BA
:10263000C463046444648464C46404774462AA6D1B
:1026400039463046BDE8F041012300F009B800BF2B
:102650000008002000000000000000000000000052
:10266000F0B518B9106808B9F0BD204604460F4609
:1026700014F8015B17F8016B1EB965B9156028469F
:10268000F0BDB542F6D1002BEFD114600370F0BD60
:102690001C460CE015B90E4614F8013B16F8015B18
:1026A000AB42F7D1002BF3D0002304F8013C1460B7
:1026B000F0BD00000000000000000000000000006D
:1026C0002DE9F84F8046894692461F468B465D4667
:1026D0000A9815F8014B00F08BF82044467816F064
:1026E00008060BD12D2C0BD101262C780BF10205FD
:1026F00067B1102F14D1302C0AD011E0AB46E6E7B9
:102700002B2C04BF2C780BF10205F1E7302C27D1DC
:102710002B7803F0DF03582B4BD110276C78023550
:10272000002E0CBF6FF000414FF000410022B1FBC2
:10273000F7FE104607FB1E1CA4F13003092B11D82D
:102740001C46A7421DDD531C07D0864516D301D178
:10275000A44513DB012200FB074015F8014BEBE712
:102760000A27DDE7A4F14103192B01D8373CE8E73C
:10277000A4F16103192B04D8573CE2E74FF0FF3274
:10278000EBE7531C08D122230846C8F80030BAF101
:10279000000F07D1BDE8F88F06B14042BAF1000F33
:1027A0000CD022B1013DCAF80050BDE8F88F4D466B
:1027B000F9E73024002FB3D10827B1E7BDE8F88F3F
:1027C000084B37B51C68084D236A002B08BF2B4601
:1027D000009313460A4601462046FFF771FF03B0F7
:1027E00030BD00BF00080020640800200000000089
:1027F000D0F8EC007047000000000000000000006E
:10280000044B054A1B681B6A002B08BF1346D3F80C
:10281000EC00704700080020640800200000000061
:10282000024B0146186800F01BB800BF00080020EA
:1028300082B001B901A942B14BB113780B60127893
:10284000101C18BF012002B070471046FBE76FF064
:102850000100F8E700000000000000000000000098
:1028600070B5CD1C25F0030508350C2D38BF0C259F
:10287000002D064601DBA94203D90C23336000205A
:1028800070BD00F06DF8234A1468214691B9224CBE
:1028900023681BB9304600F043F8206029463046D3
:1028A00000F03EF8431C26D10C233046336000F084
:1028B0005FF8E4E70B685B1B1AD40B2B0FD90B6096
:1028C000CC18CD50304600F053F804F10B00231D16
:1028D00020F00700C31A1BD05A42E25070BD8C4250
:1028E0000BBF63684B681360636018BF0C46E9E771
:1028F0000C464968CAE7C41C24F00304A04205D072
:10290000211A304600F00CF80130CDD02560D9E70F
:1029100070BD00BF500F0020540F002000000000C9
:1029200038B50023054C05460846236000F028F81A
:10293000431C02D1236803B12B6038BDB8100020BE
:1029400049B1FF2A8BBF8A230A700360012088BF28
:102950004FF0FF307047084670470000000000004D
:1029600070470000000000000000000000000000B0
:1029700070470000000000000000000000000000A0
:10298000044B0246196809B90349196018680244E2
:102990001A607047580F0020BC1000200000000093
:1029A0000004024009000000001001400100000086
:1029B000000000002D0000000000000000000000EA
:1029C000030406080C10182030000000000000006E
:1029D00000010203040607080900000000000000CF
:1029E0006368537973556E6C6F636B000000000071
:1029F00050696E53656E736F7273000000000000C3
:102A00006368537973556E6C6F636B000000000050
:102A1000556E68616E646C65642025530D0000007E
:102A2000414842467265713D25754D487A3B2041CB
:102A3000504231467265713D25754D487A3B2041C3
:102A4000504232467265713D25754D487A0D000041
:102A5000566563746F723538000000000000000096
:102A6000566563746F72354300000000000000007B
:102A7000566563746F72363000000000000000007D
:102A8000566563746F723634000000000000000069
:102A9000566563746F723638000000000000000055
:102AA000566563746F723943000000000000000037
:102AB000566563746F72453000000000000000002E
:102AC0006368537973556E6C6F636B000000000090
:102AD00000000000000000007110000891100008C4
:102AE000910E000874FEFFFF00000000AB0E00080E
:102AF00000380140000002400900000000000240D0
:102B00000A0000005C2E0008702E000892000000F1
:102B1000A010000000000000000000000000000005
:102B2000556172745278000000000000000000003F
:102B3000202C000000000000000000000000000049
:102B40006368537973556E6C6F636B00000000000F
:102B500042746E0D00000000000000000000000044
:102B600050696E670056657273696F6E003230315E
:102B700038303630395F313330300041766164614E
:102B800000560000000000000000000000000000EF
:102B900041636B2025640D0A000000000000000066
:102BA0006368537973556E6C6F636B0000000000AF
:102BB0000D25532025530D000000000000000000EB
:102BC000B0310008BC100020BC100020BC10002058
:102BD000B03100080000000000000000000000000C
:102BE000B0310008000000000000000000000000FC
:102BF000B0310008000000000000000000000000EC
:102C0000B0310008000000000000000000000000DB
:102C1000B0310008000000000000000000000000CB
:102C2000B0310008000000000000000000000000BB
:102C3000B0310008000000000000000000000000AB
:102C400073745374617274416C61726D00000000A2
:102C50007374536574416C61726D00000000000074
:102C60005356233300000000000000000000000065
:102C70005356233800000000000000000000000050
:102C8000535623390000000000000000000000003F
:102C90005356233400000000000000000000000034
:102CA0005356233600000000000000000000000022
:102CB0005356233500000000000000000000000013
:102CC0005356233700000000000000000000000001
:102CD00053562331300000000000000000000000C7
:102CE00053562331310000000000000000000000B6
:102CF0006D61696E00164518040228080C1014183E
:102D00001C20210000000000000000000000000066
:102D1000636853636852656164794900000000008C
:102D2000636853636857616B6575705300000000FA
:102D3000737461636B206F766572666C6F770000E9
:102D4000636853656D4F626A656374496E697400A8
:102D5000636853656D5761697454696D656F757407
:102D60005300000000000000000000000000000010
:102D7000636853656D5369676E616C4900000000BC
:102D800063685654446F5469636B49000000000047
:102D900069646C6500000000000000000000000095
:102DA0006368537973556E6C6F636B0000000000AD
:102DB0006368546864536C656570530000000000DC
:102DC000636854686443726561746549000000007B
:102DD000636854686445786974530000000000001B
:102DE00063685654446F5365744900000000000046
:102DF00063685654446F526573657449000000005F
:102E0000646D6153747265616D416C6C6F63617464
:102E1000650000000000000000000000000000004D
:102E20000060024008600240010000000000000055
:102E300000000B00006002401C6002400200000025
:102E40000000000004010C000060024030600240FD
:102E5000040000000000000008020D0000600240B5
:102E60004460024008000000000000000C030E0057
:102E700000600240586002401000000000000000A6
:102E800010040F00006002406C600240200000004F
:102E90000000000014051000006002408060024045
:102EA00040000000000000001806110000000000B3
:102EB0004300504F5349580000000000000000003C
:102EC0002E000000000000000000000000000000D4
:102ED00000202020202020202020282828282820EA
:102EE00020202020202020202020202020202020E2
:102EF000208810101010101010101010101010104A
:102F00001004040404040404040404101010101039
:102F10001010414141414141010101010101010103
:102F20000101010101010101010101011010101055
:102F300010104242424242420202020202020202D5
:102F40000202020202020202020202021010101029
:102F50002000000000000000000000000000000051
:102F60000000000000000000000000000000000061
:102F70000000000000000000000000000000000051
:102F80000000000000000000000000000000000041
:102F90000000000000000000000000000000000031
:102FA0000000000000000000000000000000000021
:102FB0000000000000000000000000000000000011
:102FC0000000000000000000000000000000000001
:012FD0000000
:042FD400F8B500BF8D
:042FD800F8B500BF89
:102FE00004080020000000000000000000000000B5
:102FF00000000000000000000000000000000000D1
:1030000000000000000000000000000000000000C0
:1030100000000000000000000000000000000000B0
:1030200000000000000000000000000000000000A0
:103030000000000000000000000000000000000090
:10304000000000004300000000000000000000003D
:103050000000000000000000000000000000000070
:10306000000000004300000000000000000000001D
:103070000000000000000000000000000000000050
:1030800000000000430000000000000000000000FD
:103090000000000000000000000000000000000030
:1030A00000000000430000000000000000000000DD
:1030B0000000000000000000000000000000000010
:1030C00000000000430000000000000000000000BD
:1030D00000000000000000000000000000000000F0
:1030E000000000004300000000000000000000009D
:1030F00000000000000000000000000000000000D0
:10310000000000004300000000000000000000007C
:1031100000000000000000000000000000000000AF
:1031200000000000412900083128000800000000CC
:10313000D02E0008C02E0008982B0008982B0008FD
:10314000982B0008982B0008982B0008982B000853
:10315000982B0008982B0008982B0008FFFFFFFF12
:10316000FFFFFFFFFFFFFFFFFFFF000001004153D4
:10317000434949000000000000000000000000007A
:1031800000000000000000000000000000004153AB
:10319000434949000000000000000000000000005A
:1031A000000000000000000000000000000000001F
:04000005080001E10D
:00000001FF
