:020000040800F2
:10000000000400201D010008AD310008310800087F
:100010001F0100081F0100081F0100081F01000840
:100020001F0100081F0100081F0100081F01000830
:100030001F0100081F0100081F0100081F01000820
:100040001F0100081F0100081F0100081F01000810
:100050001F0100084108000875080008A9080008E9
:100060001F01000821290008F91A0008211B0008B7
:100070001F0100081F0100081F010008711C000873
:100080001F0100081F0100081F0100081F010008D0
:100090001F0100081F0100081F0100081F010008C0
:1000A0001F0100081F0100081F010008DD0F0008E4
:1000B00021100008651000081F01000871220008C7
:1000C000FD000008110700087D0A00088D190008CE
:0400D000D50000084F
:1000D40010B5064C2378002B07D1054B002B02D01A
:1000E400044800E000BF0123237010BD0008002075
:1000F40000000000B8350008044B10B5002B03D0F5
:100104000349044800E000BF10BDC04600000000E1
:1001140004080020B83500082AE000F000F8FEE7E3
:10012400F0B544464D4656465F46F0B46B46CB6048
:10013400C3689D46F0BCA046A946B246BB46F0BD86
:1001440002F00CFC62B6281CA047002002F0EAFE74
:10015400FEE702F0F3FB02F099FD02F0FFFB024A16
:10016400024B1360FEE7C04604ED00E0000000808F
:1001740072B6244880F30888234880F30988022053
:1001840080F31488BFF36F8F01F086FC00F062FCEB
:100194001E481F491B4A914202DA08600431FAE7FB
:1001A4001C49194A914202DA08600431FAE71A49F3
:1001B4001A4A1B4B9A4204DA08681060043104326C
:1001C400F8E700201749184A914202DA086004311E
:1001D400FAE701F065FC01F060FC144C144DAC42EC
:1001E40003DA216888470434F9E701F025FB114C50
:1001F400114DAC4203DA216888470434F9E70F490A
:1002040008470000000400200008002055555555FB
:100214000000002000040020B83500080008002079
:100224000008002000080020DC130020C0000008A3
:10023400D0000008D0000008D4000008A11A00086B
:100244000023C25C0133002AFBD1581E7047000012
:1002540002B4714649084900095C49008E4402BC55
:100264007047C046002243088B4274D303098B4273
:100274005FD3030A8B4244D3030B8B4228D3030C72
:100284008B420DD3FF22090212BA030C8B4202D314
:100294001212090265D0030B8B4219D300E0090A3C
:1002A400C30B8B4201D3CB03C01A5241830B8B4245
:1002B40001D38B03C01A5241430B8B4201D34B032E
:1002C400C01A5241030B8B4201D30B03C01A524193
:1002D400C30A8B4201D3CB02C01A5241830A8B4218
:1002E40001D38B02C01A5241430A8B4201D34B0201
:1002F400C01A5241030A8B4201D30B02C01A524165
:10030400CDD2C3098B4201D3CB01C01A5241830918
:100314008B4201D38B01C01A524143098B4201D352
:100324004B01C01A524103098B4201D30B01C01A7D
:100334005241C3088B4201D3CB00C01A52418308F7
:100344008B4201D38B00C01A524143088B4201D324
:100354004B00C01A5241411A00D201465241104684
:100364007047FFE701B5002000F006F802BDC04663
:100374000029F7D076E770477047C046002B11D1AB
:10038400002A0FD1002900D1002802D00021C9433E
:10039400081C07B4024802A14018029003BDC046DD
:1003A400D9FFFFFF03B4684601B5029800F02EF8A8
:1003B400019B9E4602B00CBC7047C046F0B51504C4
:1003C4002D0C0F0001002E00C64684460004140CB8
:1003D400000C090C46434D43604361434019340CFF
:1003E400241800B5A54203D9802040028046414428
:1003F400250C6D18614659437A4330044919240485
:10040400000C2018891880BCB846F0BDF0B55746DA
:100414004E464546DE46E0B504000D009246994638
:1004240083B08B4230D82DD04946504600F0D8F8DE
:1004340029000600200000F0D3F8331A9846203B28
:100444009B4633D45A465346934042461F00534674
:1004540093401E00AF423AD8AF4200D178E05B46E9
:10046400A41BBD41002B00DA75E00022002300929A
:10047400019301235A46934001930123424693403A
:10048400009328E08242CFD90022002300920193F6
:100494000C9B002B01D01C605D600098019903B097
:1004A400F0BCBB46B246A946A046F0BD4246202356
:1004B4009B1A5246DA40414613004A468A401700C6
:1004C40042461F43534693401E00AF42C4D9002204
:1004D4000023009201934346002BD9D0FB077208F6
:1004E4001A4346467B080EE0AB4201D1A2420CD827
:1004F400A41A9D41012024196D410021013E2418B4
:100504004D41002E06D0AB42EED9013E24196D4177
:10051400002EF8D1009801995B4600196941002B1F
:1005240024DB2B005A464446D3402A00E2401C00F8
:100534005B461500002B2ADB26009E403300260074
:100544004746BE403200801A9941009001919FE7CE
:10055400A342BCD883E74246202300219B1A0022F1
:10056400009101920122DA40019286E7424620235B
:100574009B1A2A0046469A402300F34044461343FC
:100584002A00E2401C005B461500002BD4DA4246E8
:100594002F002023260097409B1ADE403B00334364
:1005A400CDE7C0461C2101231B04984201D3000C53
:1005B40010391B0A984201D3000A08391B099842D2
:1005C40001D30009043902A2105C40187047C046E8
:1005D4000403020201010101000000000000000008
:1005E40010B5002903D1FFF7DDFF203002E0081C1D
:1005F400FFF7D8FF10BDC046F8B501240425270035
:10060400104911480B688A6889881E698F400378ED
:100614003E4210D0012B01D0042B0AD103230370D6
:10062400002A01D021009047B420800002F082FC0F
:10063400E5E70223F3E7023B012B01D80570EFE75E
:100644000470EDE748090020540900209023DB05DD
:10065400984206D18023134A9B0251690B4353618C
:100664007047114B984204D180230E4ADB02516932
:10067400F4E70E4B984204D180230A4A1B035169C4
:10068400ECE70B4B984204D18023064A5B03516983
:10069400E4E7084B9842E3D18023024ADB03516923
:1006A400DCE7C0460010024000040048000800488F
:1006B400000C00480014004873B5104B1C689E7968
:1006C40020009D88FFF7C2FF03236D00EDB2AB400D
:1006D400AE40226894219A432260E26849009A431A
:1006E400E260E368064A1E430023E660137005488F
:1006F40000938022044B02F0D5FB73BD480900200F
:100704005409002020080020FD0500089022054B14
:10071400D2051A6000229A8002329A71024A9A60C3
:100724007047C0464809002031070008F0B500248E
:10073400042785B000900191019B9C4244D2009B08
:100744001B5D032B3DD102AB5F710023029372B694
:1007540002F0F4F802F064F91C4D2E00AC36336854
:10076400002B29DD02F05CF92A0033689432013B46
:100774003360136802A819000078083111601870FA
:1007840002A84078587002A88078987002A8C078AF
:10079400D87002A80079187102A84079587102A88B
:1007A4008079987102A8C079D871094B994200D315
:1007B4001560084802F0D0FA02F088FA02F0CEF888
:1007C40062B60134E4B2B7E705B0F0BD8809002091
:1007D400180A0020200A002010B572B602F0D0F8E2
:1007E40010BD10B502F0DEF862B610BD10B50C00F5
:1007F400FFF7F2FF236820001B689847FFF7F1FF1B
:1008040010BD00008022084B10B59968914399608F
:1008140011000278002A06D0DC690C42FCD092B2A6
:100824001A850130F5E710BD0038014010B50248C3
:10083400FFF7E8FF01BEFEE74432000810B5744636
:1008440002F0C2F8FFF7C8FF074B1B68002B00D06B
:1008540098470322054B5A61FFF7C3FF02F0CAF819
:10086400200002F0B3FC10BD6C090020000401401C
:1008740010B5744602F0A8F8FFF7AEFF074B1B68EB
:10088400002B00D098470C22054B5A61FFF7A9FFB3
:1008940002F0B0F8200002F099FC10BD70090020AD
:1008A4000004014010B5744602F08EF8FFF794FF7F
:1008B400074B1B68002B00D09847064B064A5A6129
:1008C400FFF78FFF02F096F8200002F07FFC10BDC6
:1008D4007409002000040140F0FF00000122084BCD
:1008E40019680A4302211A60064A1868084204D1AA
:1008F400013A002AF9D1012070470020FCE7C046E4
:10090400001002400F2700001E4B10B55868000766
:10091400800F02280AD0032831D00138431E9841A1
:10092400194B40421840194BC01810BD0F20D96A0A
:100934005A680140920C02400131941C824200D159
:100944001024C02280205B6852021340400283427C
:100954000DD008D8002B10D080220D4812029342EB
:1009640006D06043E1E7934205D00948F9E7074818
:10097400FFF778FCF5E70748FAE70748F1E7054889
:10098400D3E7C0460010024000F7C2FF001BB700C7
:1009940000127A00006CDC0200093D00F0B504008E
:1009A40087B01C4E1C4F02AD31001022280002F00B
:1009B40026FC7B6820001B061B0FED5CFFF7A4FFE1
:1009C4003100E8400822A06005001031684602F0BA
:1009D40016FC6A467B6811495B055B0FD35CDD40FE
:1009E4005A1E9341013323740D4BE560D868FFF719
:1009F40039FC80230122DB05196801389143196011
:100A0400596A98625A61596219680A431A6007B0B0
:100A1400F0BDC0462C320008001002401027000030
:100A24005809002070B5084D0849E868FFF71AFC1A
:100A340006490400A868FFF715FC220001000448D9
:100A440000F062F970BDC0465809002040420F0012
:100A5400503200080122074B19680A431A60022227
:100A640019681142FCD0012299690A439A619B6971
:100A74007047C046001002400122014B1A747047AF
:100A84005809002070B5050000208D4213D00400E1
:100A94002A5D1300413B1600192B00D820360B5D4C
:100AA40018004138192800D82033F01A9E4202D188
:100AB4000134002AECD170BDF0B5002802D11068D1
:100AC40000280FD0030018000D00047801332E789D
:100AD400002E03D00135B442F9D1F4E7002C07D13C
:100AE40020001460F0BD2F000FE00134002E04D16B
:100AF4001C00013325781F000C002678B542F4D180
:100B0400002DF0D00021013B19701760EAE7F0B521
:100B140005000E001700002487B000930CAB1B786F
:100B2400019330003900FFF723FC03000800C2B230
:100B340031001E0013003733DBB2092802D813003A
:100B44003033DBB202AA013403321355B942E8D27E
:100B540026002B68009A1B6896420BD22800019944
:100B64009847002802D00C2007B0F0BD0136F0E70A
:100B7400002CF9D003AB013CE15C2B6828001B6816
:100B840098470028F4D0EEE7F0B50B0005001400F8
:100B940087B019785A1C0492002905D12B682800C3
:100BA4005B68984707B0F0BD252904D02B6828005E
:100BB4001B6898473FE05A780392302A14D10233D5
:100BC40004930026049B19785F1C0B00303BDBB2B6
:100BD4000497092B03D92A2909D108CCDBB20A22AC
:100BE40056439E193B00EEE720230393E9E72E29A1
:100BF4000BD139787B1C0A00303A0493092A02D9B4
:100C04002A2902D104341F00F3E7632935D015D80B
:100C1400412954D003D82529C8D0049BB9E75329C6
:100C24002ED05829F9D1039B10220093330002CC13
:100C34002800FFF76CFF0028EFD0AFE773291FD01F
:100C440014D8642901D06929E7D180CC002F07DAB0
:100C54002B682D2128001B68984700289ED17F42CD
:100C6400039B0A22009339003300E1E77529D4D1AC
:100C7400039B0A2200933300D9E702CCC9B295E75B
:100C840027683800FFF7DCFA05903978002907D087
:100C94002B6828001B68013798470028F5D07DE7AA
:100CA400059BF61A002E01DC0434B6E72B682800F5
:100CB4001B6803999847013E0028F3D06EE700268D
:100CC4002368A768039363680593059B9E4201DB31
:100CD4000C34A2E7002E0DD1039B1022995D302322
:100CE400280000932E3BFFF712FF002800D055E7A1
:100CF4000136EAE7002FEFD02B6828001B68F9B211
:100D040098470028E8D049E70FB413B504AB10CBDB
:100D1400019372B601F012FE2100019A0448FFF714
:100D240033FF01F01BFE62B613BC08BC04B01847C5
:100D340098100020F7B51E0083230192DB00C35CEA
:100D44000400002B00D1FEE7C56880206B68DF69D2
:100D54000742FCD00F2218682F4F38401860A36850
:100D640058680768974307601F685B7B9C460E239F
:100D74006246934020227B60019BC16043606B6AA2
:100D840093430360012302681343036000F018FFD8
:100D94003E22E36805005B6830001A8500210023C9
:100DA4001E4AFFF70BFB00231D4A80185941FA2203
:100DB40000239200FFF7E2FA0600A3685B68586814
:100DC400002805D000F0FCFE401B8642F5D202202C
:100DD4000F25A26853681968A9431960557B1168E7
:100DE4000E22AA404A608522D200A218DA6080222C
:100DF40092005A60E268516A1960516880220D6855
:100E0400D2012A430A600021064AA150012219682E
:100E14000A431A60FEBDC046FFBFFFFF1027000053
:100E2400E70300002404000008B4034B9C46034B72
:100E3400C01A08BC6047C046390D00082C060000E3
:100E44000EB4C52303B503AA02CADB00C01801927D
:100E5400FFF79AFE02B008BC03B0184708B4034B6E
:100E64009C46034BC01A08BC6047C046450E0008A8
:100E74002C06000073B504008B032FD501236A46AA
:100E8400537101F0CDFD164D2E00AC363368002BA6
:100E940024DD01F0C5FD2A0033689432013B336040
:100EA4001368200A1900083111605870200C9870DA
:100EB400684600791C70187168464079240E587190
:100EC40068468079DC7098716846C079D871054BA2
:100ED400994200D31560044801F03EFF73BDC0463B
:100EE40088090020180A0020200A0020F7B508AC61
:100EF400257890240193E405A0423FD18024314E0B
:100F0400A40277693C43746103244E00B44003682F
:100F1400E743A3430224B440036003681C43046012
:100F240001248C40002A49D14268A2434260019BBB
:100F3400C268B3403A40C260C2681343C360836866
:100F44001F400123B34087608268134383608A0093
:100F5400072902D90A00083A920007238B428941E3
:100F64004942890040180F219140036A8B43036270
:100F74002B009340016A0B430362F7BD124CA0425D
:100F840004D180240F4EE4027769BBE70F4CA042E2
:100F940004D180240B4E24037769B3E70C4CA042A0
:100FA40004D18024074E64037769ABE7094CA0425F
:100FB400AAD18024034EE4037769A3E7426814436B
:100FC4004460B4E7001002400004004800080048F0
:100FD400000C00480014004810B5744601F0F4FCFD
:100FE40072B601F0CDFC0A4B0A4AD9691A620A4B5F
:100FF4001868002802D003681B68984701F0D2FCE7
:1010040062B601F0F7FC200002F0E0F810BDC04623
:10101400003801405F1B12007809002010B57446A7
:1010240001F0D2FC72B601F0ABFC0A4B0A4AD96952
:101034001A620A4B1868002802D003681B68984794
:1010440001F0B0FC62B601F0D5FC200002F0BEF85D
:1010540010BDC046004400405F1B12007C09002004
:1010640010B5744601F0B0FC72B601F089FC0A4B6D
:101074000A4AD9691A620A4B1868002802D0036820
:101084001B68984701F08EFC62B601F0B3FC2000A7
:1010940002F09CF810BDC046004800405F1B1200DF
:1010A400800900208223DB00C158C2180E4B10B502
:1010B400C358521A934200D913008422D200835099
:1010C400002B0FD083230024DB00C45443685B68E7
:1010D400D96082585A60C268126A1A60012219687B
:1010E4000A431A6010BDC0461C04000010B50F244A
:1010F400436859680A68A2430A60597B1A680E2338
:101104008B40536084230D49DB00C25843589B1A1B
:1011140043500C394458A2184418A24207D24250F2
:10112400002B07D183230122DB00C25410BD02002F
:101134001032F4E7FFF7B6FFF8E7C0461C040000DE
:1011440010B5FFF7D3FF10BD30B580240C4A03005F
:101154008558E4000C20A54211D20A481C58651C8D
:101164001D50217082211C58C90059188C4202D389
:10117400190010311950002099580131995030BD8F
:101184001C0400001404000010B5FFF7DDFF10BDBF
:1011940008B4034B9C46034BC01A08BC6047C046C6
:1011A4008D110008280600008323DB00C35C10B502
:1011B400002B01D0FFF776FF10BD000010B5FFF73C
:1011C400F3FF10BD08B4034B9C46034BC01A08BC84
:1011D4006047C046C1110008280600008268030069
:1011E400526830B5506880220D4D92005C59121A35
:1011F400121B02D58020800012180B20002A0ED06A
:10120400621C5A5185221C19D200A418227800208D
:101214000A70802259599200914200DB585130BD26
:1012240024040000F0B585B01F000E0001920400F4
:1012340000F0C6FC002102AB254AD9710500002349
:101244003800FFF7BBF80023224A80185941FA22DC
:1012540000239200FFF792F8070002ABD91D20008B
:10126400FFF7BCFF00F0ACFC401B874201D2022018
:101274002CE002ABDB793E2BEFD18323DB00E35C74
:10128400002B00D1FEE78023E0684168CA691A4256
:10129400FCD00F216268006A53681C688C431C6090
:1012A400557B14680E22AA40019D6260DE605D6079
:1012B4000225A843186001201D6828431860586857
:1012C4000028FCD11D688D431D60626005B0F0BD2F
:1012D40010270000E703000008B4034B9C46034BAF
:1012E400C01A08BC6047C046291200082C0600003A
:1012F400C36810B512CB074B9C4202D0064B9C42EC
:1013040004D10648FEF7AEFFE06010BD044BD86878
:10131400F8E7C046003801400044004000127A005B
:1013240058090020C368F7B5664A0400986899898B
:101334008618721E96410023F6B21A000096FFF733
:10134400D5FDE36828331B78032B02D15E48FFF7F1
:10135400C5FAE1685D4B48680325C218531E9A41DB
:10136400120195405A4B28311F6BAF431F63097814
:101374001F6B91400A003A431A63564A904200D0C8
:101384007BE080229969D2010A439A619B69524B9E
:101394001C602000FFF7ACFF0022E06843685A603D
:1013A4004E4B62689A4205D180234D4A9B001168D6
:1013B4000B431360230009214A4A806901F07EFA35
:1013C400E36841685A686060100028308860186AD1
:1013D400086083200121C00021540C201060B43027
:1013E400906090221869D20590425DD03E4A9042A6
:1013F40000D10026998A012300961A00FFF776FD92
:101404003A4BA2689A4205D18023354ADB00116821
:101414000B4313600023E0681A000921C06901F03E
:101424004DFAE16842684B68A0601800243090606F
:101434008520C0002018D0608020496A8000506058
:1014440011600121106801431160A022596812053E
:101454000A435A6080221968D2010A431A601D4A5D
:10146400934223D10F211B2001F09CF9E3685A68B1
:10147400012311680B431360F7BD1D4A904207D145
:101484008022D96992020A43DA61DB69194B7FE74A
:10149400194A904200D07CE78022D969D2020A43DB
:1014A400DA61DB69154B73E70E00A3E7104A934238
:1014B40002D10F211C20D7E70F4A9342D6D10F2126
:1014C4001D20D1E700FCFFB75809002000C8FEBF6B
:1014D4000010024000380140780900208C340008D4
:1014E4000000014045110008000400489C34000835
:1014F400004400407C09002000480040800900208E
:10150400012210B5036A818E046B8A405968C9B2FE
:10151400002904D1A26208330362002010BDA26135
:10152400F9E70123818E026B8B40936270470000C0
:10153400030010B5FC33040006499869FFF7A2FACA
:10154400236805491B68002800D0044920009847F7
:1015540010BDC046B4320008B9320008BE320008DB
:10156400F0B589B0002306AE7371069372B601F02C
:10157400E5F901214348494201F0C8FB002824D180
:1015840041490A009032136818005D781F789C78EE
:101594002D0224042F432743DC78083024063C43DF
:1015A400106006945C791F79240227439C79DB79C7
:1015B40024043C431B0623437360904200D3116010
:1015C400324801F0C9FB01F081FB01F0C7F962B6B2
:1015D4007379012B21D10393346804ABDD1D2900F9
:1015E4002000FFF7FBFD0028BCD1294B294AE31852
:1015F40001935B7A2F78A518002B15D00023019A4C
:101604005372AB6000F0DCFAAB682861082F15D187
:10161400002BE2D0013BAB60DFE7042BA2D1317891
:101624001D48FFF771FB9DE72B69029300F0C8FA90
:10163400029BC21A194B9A42E0D8E3E70D2F01D05E
:101644000A2F16D1002BC8D0C6210022E318C900E6
:101654005A54E623DB00E21860181149FFF72CFA0C
:10166400019B039A68615A720E4BE018FFF760FF02
:10167400B2E7FE2BB1D85A1CAA60C622E318D200E6
:101684009F54AAE7200A0020880900202C0A002081
:101694002F0700002C070000CE320008DE030000F4
:1016A400CB3200082C06000070B5002304000F4A5A
:1016B40008000021FEF782FE00230D4A251D801834
:1016C4005941FA2200239200FEF758FE060001F069
:1016D400A7F96368002B02D0280001F0CDFC31008B
:1016E40028002300034A01F0ABFC70BD1027000062
:1016F400E7030000F107000870B504002600AC36CB
:101704000D0001F08DF933680220002B37DD01F064
:1017140087F92100336894310A68013B3360130070
:1017240008330B6068782B7800021843AB781B04ED
:101734001843EB781B060343180A13705070180CF7
:101744001B0E9070D37068792B7900021843AB7923
:101754001B041843EB791B060343180A13715071D9
:10176400180C1B0ED371230090710A6890339A42AF
:1017740000D30C602000983001F0EEFA002070BD18
:1017840070B5040001F04CF96368002B07D001F038
:1017940047F96368002B02D0201D01F06DFC012580
:1017A4006D42236A18780428FDD8FEF751FD030A18
:1017B40013243200236820009B6898470128F0D145
:1017C40070BD5968083323620029EAD02000FFF76E
:1017D4006BFFF5E75B68E269DB00D3182362230043
:1017E4002D331B78002B04D0210012482831FFF739
:1017F40083FF0121EAE723002D331B78002B04D05B
:1018040021000C482831FFF777FF0023E3612362AE
:10181400D6E7626A013201D15A686262626A002ABA
:1018240003D1083365622362BBE7E369013A2362AB
:101834006262B6E788090020F8B5444C2000FFF73F
:10184400ADF800F04FF901F0A1FA414B12211A0052
:10185400903213601A003F489432136001F046FA44
:1018640000213D4801F042FA3C48FFF75BFD3C4A49
:101874003C493D48FFF748FA2000FFF7D3F8FEF74C
:101884001BFF3A4C220036321278236B9446902286
:10189400A68ED205934239D18022354992024D69F0
:1018A4002A434A6103217500EDB2A9401A688A43AC
:1018B4001A6001221000A8401F6805000743604613
:1018C400B240B0401F605F6897435F605F68384311
:1018D4005860D8688843D860D868D86098688843C6
:1018E400986099680D439D609A6272B601F026F87B
:1018F40001235B4263621F4B2000E3612362FFF715
:101904003FFF01F02BF862B6FFF72AFE1A4A934212
:1019140004D180221649D2024D69C1E7174A934285
:1019240004D18022124912034D69B9E7144A934243
:1019340004D180220E4952034D69B1E7114A934202
:10194400B0D180220A49D2034D69A9E75809002081
:10195400880900202C0A0020200A0020700A002098
:10196400D6320008E4320008EA320008380A0020BF
:101974000010024008330008000400480008004832
:10198400000C004800140048324B70B51A00903225
:1019940013601A000020002194321860596013600B
:1019A400E1232D4A5B0213602C4B092153609023E1
:1019B400DB05936013610A239382083BD361903360
:1019C400136285235B0153621300033028331870BC
:1019D4008220234B91810839DA609161214AC00049
:1019E4001A50214800241A508322D20099541F4AC5
:1019F4005C609C5004329C501D4A9C609C50E622C2
:101A0400D2009C501B4A9C501B4A9C5004329C544C
:101A140008329C50194A1A491A60C522D200194D3D
:101A240099501949194A281D99502022210001F082
:101A3400EFFB01235B426B622B002D331C70144BB4
:101A4400AC622B630E23AB862B0036331C70114B18
:101A54002B6070BD88090020B411002000380140BB
:101A6400700A0020800A0020140400001C040000F6
:101A7400240400003C07000034070000783200080A
:101A840098320008380A0020A83200082C0600000A
:101A940000040048FC32000870477047FEE700006D
:101AA400F0B5082400250E4A53681668190090689A
:101AB400884210D8DE1E0021B04203D30330C11A7D
:101AC400890889005B18D168994207D8013C103213
:101AD400002CE9D1F0BD80CE80C1E9E720C3F3E753
:101AE4006833000810B500F037F800F0E9F800F0AA
:101AF40063F810BD10B5744600F066FF054800F0A9
:101B0400F1FE054800F0EEFE00F074FF200001F045
:101B14005DFB10BD6C3400087C34000810B57446BD
:101B240000F052FF084800F0DDFE084800F0DAFE3D
:101B3400074800F0D7FE074800F0D4FE00F05AFF33
:101B4400200001F043FB10BD8C3400089C340008D5
:101B5400AC340008BC340008144B154A996A10B51B
:101B64000A43FC219A629A6AC9030A409A629A6AF1
:101B74001A69012252421A611A6900221A611A6909
:101B8400D9680C4A0A438021DA60DA68C9030A403A
:101B9400DA60DA688022D96952050A43DA61DB69BE
:101BA40000F020FE01F02AFB10BDC04600100240E8
:101BB400FFFF81FFFFFFBFFF10B500F017F810BD56
:101BC4008023DB05586A704780230022DB055863B5
:101BD4001A610232DA60704780230022DB05DA6082
:101BE40070478023DB0558637047000010B501245B
:101BF400104B1149DA692243DA61104ADB699368B0
:101C0400234393600E4BD868FEF72CFB80230122FC
:101C1400DB05013852429862DA62002202219A619D
:101C24000F205A63DA605A605C611C6000F0BAFDF0
:101C340010BDC046001002401027000000580140AB
:101C4400580900208022D2051369D16810B50B40D1
:101C5400D9B2C94311619B0707D572B600F090FE53
:101C640001F0B6F800F09EFE62B610BD10B57446E1
:101C740000F0AAFEFFF7E6FF00F0BCFE200001F032
:101C8400A5FA10BD0200030010B5040076321278E4
:101C94007E331A7000F0F8FB63681B68002B02D0D7
:101CA4000121200098470323237010BD10B572B69C
:101CB40000F066FE10BD10B500F074FE62B610BDF3
:101CC40010B500F0D9FB10BD012302000100037020
:101CD40000232C32436048311360D36104328A42BA
:101CE400FAD183607047000010B5040000F098FE3C
:101CF400002C02D1094801F05FF8A268084B2000CB
:101D04001340A360002323616361A361E361236241
:101D14006362A36200F056FC10BDC046E8330008BD
:101D240001000100F8B504000D0017001E0000F0CA
:101D340077FE002C01D0072D02D90B4801F03CF8A6
:101D44000122AA4063892900134300226381AB1C4A
:101D54009B00E3185B6820009B699F601E605A60CB
:101D640000F082FCF8BDC046FD330008F8B504005D
:101D74000D0017001E0000F053FE002C01D0072DAB
:101D840002D90B4801F018F80122AA40238929003E
:101D9400134300222381AB1C9B00E3185B682000E3
:101DA4005B699F601E605A6000F084FCF8BDC04609
:101DB4000E340008022370B50370030000250400EC
:101DC4006433C5678560C560056145618561C5612A
:101DD4000562456285621D7000F0D6FB63681B686E
:101DE400AB4202D029002000984770BD030002785E
:101DF400803310B51A7005230370436804001B6810
:101E0400002B01D0042198470023A36010BD0300D8
:101E140010B580331B78037043681B68002B01D016
:101E24000521984710BD0000F7B5060064363378E5
:101E34000400002B01D000233370270074373A00CC
:101E44002000019700F0FAFB63689B68002B18D10F
:101E5400019B1A78602315001D401A4234D00021DA
:101E6400200000F05FFC0021200000F047FC6368C4
:101E74001B68002B02D006212000984706233370EC
:101E8400F7BD200098470028E2D023007B331A785E
:101E9400013B1B7812021343E26E9A4200D9E366B7
:101EA400019BE56E1B787F2B00D80EE1002D00D13D
:101EB400FEE009233370FFF7F9FE0021E36EA26E02
:101EC4002000FFF753FFFDE023007F2175331B78CB
:101ED4000A401B021343854A934200D1D0E026D81E
:101EE40080225200934259D00DD8012B50D0022B9E
:101EF40000D196E0002BB2D122007C32A2660222ED
:101F0400E2662367C1E781225200934200D19FE039
:101F1400FF32FF329342A2D1230076331B78012B88
:101F24009DD122007C32118801330B4341E0802291
:101F34001201934246D023D8A022D20093423DD02E
:101F44006B4A9B18012B00D989E7230022007933BF
:101F54001B78783212781B02210013432200606838
:101F64007632406877310700127820000978B84744
:101F7400002800D173E74368A3660368E3661BE0A7
:101F840090221201934222D05A4A934200D066E72B
:101F9400594BA3660223E3660023B2E7230076339A
:101FA4001B78012B00D05AE7220002217C321388CF
:101FB4008B431380A566E566256766E74F4BA566E8
:101FC400E5669EE723007F33A3660123D6E72378E3
:101FD400042B11D1FFF76AFE2000FFF785FEFFF7FF
:101FE4006AFE230003217F331D70636821701B6820
:101FF400002B01D020009847230076331B78002B58
:102004000BD022007F3213700423237063681B6893
:10201400002B02D00221200098470023A366E36628
:102024006FE723000F2178331B78200019405BB23F
:10203400002B0ADA00F0F0FA012804D0022800D0BC
:102044000DE72F4BA5E72F4BA3E700F0CFFAF3E7FB
:10205400230076331B78002B00D000E7230078336D
:102064001B780F22190011401342D6D05BB2200016
:10207400002B02DA00F07EFBCFE700F065FBCCE733
:10208400230076331B78002B00D0E8E62300783356
:102094001B780F22190011401342BED05BB22000FE
:1020A400002B02DA00F03EFBB7E700F027FBB4E7B1
:1020B40014233370FFF7FAFD2B002A0000212000BF
:1020C400FFF730FEFFF7F7FDDAE6002D06D0152303
:1020D4003370FFF7EBFDE36EA26EEFE70B23337073
:1020E400FFF7E4FD2B002A002900E9E602030000C3
:1020F40000FAFFFF020C000024340008891C0008C9
:10210400203400082234000870B506006436040048
:102114003078002840D00638C3B20F2B34D80F28AB
:1021240032D8FEF795F83931310825323131313161
:1021340031313131393923007B331A78013B1B7833
:10214400E06E12021343984212D2E368198AFEF732
:102154000FF90D1E0CD1FFF7A9FD2B002A00290051
:102164002000FFF703FEFFF7A6FD0A2333700BE000
:1021740014233370FFF79AFD002320001A0019007E
:10218400FFF7D0FDFFF797FD70BD236F002B01D043
:10219400200098470023E9E70021200000F0C2FA5C
:1021A4000021200000F0AAFA63681B68002B02D00B
:1021B4000621200098470623D8E770B5050064354A
:1021C4002B780400142B29D019D8062B06D002D85A
:1021D400002B03D070BD093B022BFBD8002120004B
:1021E40000F0A0FA0021200000F088FA63681B6860
:1021F400002B02D0062120009847062318E0152B57
:10220400E8D10A3B2B70FFF751FD002320001A0090
:102214001900FFF7ABFDFFF74EFDDBE7C3689B69D1
:102224005B68002BD6D1036F002B00D098470023A6
:102234002B70CFE70B4B30B51B6D0B4CC0001B193B
:10224400C018038889181B1994B244808C1A002A78
:1022540000DC30BD60782578000228431880023AFB
:102264000233F3E7005C0040006000407346F0B5C1
:10227400764C87B0059300F0A7FB656C6B0504D51D
:10228400734B74486364FFF795FD2B0508D5082349
:10229400226C7048134323646F4B6364FFF7A6FDFD
:1022A400EB040BD5A36C1B0406D40822236C6948E9
:1022B40093432364FFF7ABFD684B6364AB0507D519
:1022C40064484368DB68002B00D09847644B636420
:1022D40080231B021D4206D100F08CFB059800F000
:1022E40075FF07B0F0BD0F26584B2E40B500ED1812
:1022F4002B6858480293B31C9B00C3185B68019376
:10230400029B1B0626D52A685649019B0A40802158
:102314005B6909020A432A60D9685A681F688A18E7
:10232400BF1ABC461F685A6097422CD0019A128A81
:10233400624500D962469868DA6041189960F0B243
:10234400FFF778FF2A68484B1A4030235A40474B1E
:1023540013432B608022029B120213425FD02B682E
:10236400404A1A40802313432B60F3B20493029B28
:102374001B0514D53748B31C9B00C3185B685B6806
:10238400049998474BE00122B240038993430381A7
:10239400019B9B68002BDDD0F1B29847DAE7019BE3
:1023A40033489A69F10093680293236D1B185B18F4
:1023B400998809180391DB888C469B059B0D1900AD
:1023C400029801292DD8029F0399BC465808400061
:1023D40009188444834202D06046098801709168D8
:1023E400C91891605168C91851601168C91A1160FF
:1023F4009189013989B29181019A528A9A4201D80C
:10240400002918D10122B2401248438993434381E1
:10241400B31C9B00C3185B68DB68002BB0D1656CF0
:1024240056E767463F88023907703F0A477002271C
:102434000230BC44C5E72A680E4B1A40C0239B01F6
:102444005A400A4B13432B60E9E7C046005C004046
:10245400FFFBFFFFF0120020FFF7FFFFFFEFFFFF7E
:10246400FFFDFFFF0F07FFFFBF87FFFF8080000016
:10247400006000408FB7FFFF10B50248FFF724FC4F
:1024840010BDC046F012002080227E300378134332
:10249400014AD3647047C046005C00408B1C9B001B
:1024A400C318F7B55C68032322681340032B56D086
:1024B4005A4253415B022E4A2E4E126DCD009219A0
:1024C400AD186269002A13D00700002208376A8019
:1024D400FA6F0192228A01321600012296433200D9
:1024E400019E9219FA676A46968820222E80134329
:1024F400A269002A18D0648A661E3E2C32D91F2293
:1025040032430132521196021B4A3243012692B2DF
:102514000830EA800134C26FB443A41892B2C4678D
:10252400AA8080229201134311488A001218802045
:102534001468C001044200D00343402014680442DC
:1025440000D003430D48194301400D480D4C01438D
:102554001160116823404B4003431360F7BDC0234F
:10256400DB00A8E701223243013252109202CDE788
:10257400005C0040006000400080FFFF0F07FFFF89
:102584008080000070780000002180230B4A10B581
:1025940011655164D3644368DB685C4263419E24E3
:1025A4005B4224025B021B191364030040220833BC
:1025B400DA67034BC360FFF771FF10BD005C004096
:1025C40028340008402301220830C367054806491F
:1025D40093005B1819680132014319601860082AD6
:1025E400F5D1704780800000005C0040084B8900F2
:1025F400C958C0220B00920113401800114205D0A3
:10260400044A9B181800431E984101307047C04685
:10261400005C004000F0FFFF074B8900C9583022DE
:102624000B0013401800114204D0103B1800431E45
:10263400984101307047C046005C0040084B09488F
:102644001B6DC9001B18C9188B881B181000083093
:1026540019880233118002329042F9D17047C04682
:10266400005C0040006000408B1C9B00C018426866
:1026740070B595690C0028680123002805D0518A9B
:1026840040180138FDF7EEFD83B2AB81064BA40080
:10269400E4182268054B1A40C0239B015A40044B9E
:1026A4001343236070BDC046005C00408FB7FFFF3A
:1026B400808000008B1C9B0010B5C01842680C0081
:1026C4005369128A19688A4200D90A00200099685D
:1026D400DA60FFF7AFFD064BA400E4182268054B4F
:1026E4001A4030235A40044B1343236010BDC046A4
:1026F400005C0040BF87FFFF80800000064B89001C
:10270400C9180A68054B1A4080235B015A40044BE0
:1027140013430B607047C046005C00408FB7FFFF57
:1027240080800000054B8900C9180A68044B1A40D0
:1027340010235A40034B13430B607047005C004066
:10274400BF87FFFF80800000C022074B8900C918A3
:102754000B6892011340934205D00B68034A1A4058
:10276400034B13430B607047005C0040BF87FFFFBF
:1027740080A000003022084B8900C9180B68134060
:10278400934207D00A68054B1A4020235A40044B51
:1027940013430B607047C046005C0040BF87FFFFD7
:1027A400808000000322F0B5FF26C0250240D2003D
:1027B4009640890191400A4F83089B00DB19AD00C4
:1027C4005C591F22B4430C435C51012302409340E3
:1027D400C02240098000C019520083500360F0BD3C
:1027E40000E100E0002301220848094910B5036014
:1027F40043604C6810312360D40001320351082A2D
:10280400F7D1044B093A5A6010BDC046F8110020B4
:102814005C34000800000240F0B585B00400029169
:102824000092039300F0FCF8062C0AD8012217004A
:10283400A7401E4B1968394207D00025280005B06F
:10284400F0BD1B4800F0B8FAF7E71A4E20010190DA
:10285400351801340098E40039431960E0501649F2
:1028640003981C196060486902434A614A69009AE6
:10287400002A0BD05B68AA681A4203D1E87B02994C
:10288400FFF790FF094B5A6817435F600F20019BC5
:10289400F1184B68497B1A6882431A60019AB05850
:1028A4000E228A40426000221A60C7E7F811002015
:1028B4004C3400085C34000800100240F8B50400F1
:1028C4000D0016001F0072B600F038F83B0032000D
:1028D40029002000FFF7A0FF040000F03FF862B6D3
:1028E4002000F8BD10B50268447B11680E23E14056
:1028F400194043681B6819420CD0837B0800A04030
:1029040001335060044ADB009C58002C02D0D318D9
:102914005868A04710BDC046F811002010B5744691
:1029240000F052F80448FFF7DDFF00F063F82000E0
:1029340000F04CFC10BDC0465C34000810B5054CDA
:10294400636DA26D134302D0034800F035FA0123EE
:10295400A36510BD80130020CC34000810B5064CCC
:10296400636D002B02D1A36D002B02DC034800F041
:1029740023FA0023A36510BD80130020D13400087E
:1029840010B5064C636D002B02DDA36D002B02D045
:10299400034800F011FA0123A36510BD8013002041
:1029A400D634000810B5064C636D002B02DDA36D10
:1029B400002B02DC034800F0FFF90023A36510BDDF
:1029C40080130020DB34000810B572B6074C636D29
:1029D400002B02DBA36D002B02D0054800F0ECF9BC
:1029E400636D0133636562B610BDC0468013002079
:1029F400E034000810B572B6074C636D002B02DD9D
:102A0400A36D002B02D0054800F0D6F9636D013B9D
:102A1400636562B610BDC04680130020E53400082B
:102A2400054B10B55A6D002A02DB9B6D002B02DCAE
:102A3400024800F0C1F910BD80130020EA340008F8
:102A4400054B10B55A6D002A02D19B6D002B02DC98
:102A5400024800F0B1F910BD80130020F0340008E2
:102A6400FEE70000F0B500250400194B89B00562AB
:102A740081620E00586000F09FFB23001033236135
:102A840063610123012721005B42124AA3612C31B7
:102A9400200024606460A5606562E5612565656564
:102AA400A765813300F0B2F97368E06043610A4BB3
:102AB40007760293F36802A8039333690597019399
:102AC4000493064B0795069300F0E6F909B0F0BDB0
:102AD40078130020F6340008FB340008652A000847
:102AE400024B5A6A104358627047C0468013002054
:102AF40000238268037603691B6899689142FBD2BC
:102B04005A6803604260106058607047002382680E
:102B1400037603691B6899689142FBD85A6803607D
:102B2400426010605860704770B50C0072B6FFF7D1
:102B340027FF207E052807D8FDF78AFB0C0606032D
:102B440016100022E3691A6001235B422000E3614E
:102B5400FFF7CEFFFFF726FF62B670BDE569FFF70A
:102B64005FFFAB680133AB606268236813605A602F
:102B7400EAE7000010B50400FFF752FF002C02D171
:102B8400034800F019F92000FFF7B2FF10BDC0465A
:102B94000F35000870B505000C4CE668FFF750FFD0
:102BA400357625682B685C6023600123E5602B760D
:102BB400EFF309837269243B9A4202D9044800F076
:102BC400FBF831002800FDF7ABFA70BD801300203C
:102BD4000035000870B50D000F4B86B0DE680400A8
:102BE400FFF72EFF6B1C13D0330029000B4A6846F5
:102BF40000F026FA2000FFF7CDFFFFF711FF009B3E
:102C0400002B02D0684600F037FAF06906B070BDB8
:102C14002000FFF7BFFFF8E7801300202D2B0008EA
:102C2400F8B504000D00114EF768FFF709FFA3681B
:102C3400BA68E561934203D82000FFF759FFF8BD55
:102C44003800FFF763FF012305002376F460EFF3F8
:102C540009834269243B9A4202D9054800F0ACF842
:102C640029002000FDF75CFAE9E7C0468013002044
:102C740000350008044BDA68196890688B6898423C
:102C8400804140427047C046801300200D4B70B510
:102C94001C68D868226853601A6001222276DC60BE
:102CA400FFF734FF0500EFF309834269243B9A429E
:102CB40002D9054800F080F829002000FDF730FA19
:102CC40070BDC046801300200035000870B5064C66
:102CD400E568FFF7B5FE23689A68AB689A4201D9A4
:102CE400FFF7D4FF70BDC0468013002070B5040008
:102CF4000D00002801D0002902DA034800F05CF836
:102D0400A5602460646070BD1B35000870B50400C4
:102D14000D00FFF795FE002C02D10D4800F04CF891
:102D24000020A3685A1EA260824203DA854202D1BF
:102D3400A360013870BD074B6268DB682900DC6161
:102D44001C605A60052013606360FFF743FFF1E7DE
:102D54002B3500088013002010B50400FFF760FE37
:102D6400002C02D1084800F027F8A3680133A360BF
:102D7400002B07DC2068036823605C600023C361C8
:102D8400FFF7F8FE10BDC0463D350008012310B51D
:102D9400064C07492370002306486360FFF762FE70
:102DA40002232370FFF7DAFD62B610BD781300200A
:102DB400503500088013002072B60322024B1865B8
:102DC400024B1A70FEE7C0468013002078130020DF
:102DD40010B5FFF725FE00F08DF910BD10B572B6E1
:102DE400FFF7ACFD10BD10B5FFF7B8FD62B610BD1E
:102DF40010B5041E02D10448FFF7DEFF21000820AD
:102E0400FFF7E8FE10BDC046643500088B6002235E
:102E14000B830023086108000B62704710B504009F
:102E2400FFF7FEFD002C02D11848FFF7C5FF07216C
:102E340062680A4207D1A3680B4204D19A4202D2C3
:102E44009B1AA72B02D81148FFF7B6FFE368FF2BA4
:102E540002D82369002B02D10C48FFF7ADFFA36809
:102E6400626818002838426122694C3BC3601A61C9
:102E740062695A61064A1A62E368064A8360022359
:102E84000376002302614376036210BD70350008A7
:102E9400450100088013002010B5FFF7BFFFFFF7BE
:102EA40069FE10BDF8B505000C0016001F000028CF
:102EB40009D0A72907D903000B435B0703D1FF2AD5
:102EC40001D8002F02D10F48FFF776FF283C2C19B8
:102ED400FFF784FF2300069A243B6561E3605A618F
:102EE400094A1F611A62022300212383074B200031
:102EF400A66023612162FFF793FEFFF774FF2000B1
:102F0400F8BDC0468635000845010008801300203E
:102F140010B5034BDB68D8610F20FFF73BFE10BDF3
:102F24008013002010B50400FFF758FF2000FFF7BE
:102F3400EFFF10BD10B50400FFF750FF2000FFF7AE
:102F440057FFFFF750FF10BD10B503689C68A242FD
:102F54000CD85C688A600B604C6021605960996889
:102F64008A1A9A6001235B42836010BD1B68121B9E
:102F7400ECE770B504000D00022900D202250226F8
:102F84006019FEF72EFEFEF71BFE041BA54203D8B4
:102F9400013635000400F3E7022E02D90120FFF7C1
:102FA4009FFD70BD114B70B5D96114008260104A49
:102FB4000D0042601A69026050601861022C00D250
:102FC40002242819FEF700FE0226FEF7F9FD401B35
:102FD400844204D80136A819FEF703FEF5E7022E51
:102FE40002D90120FFF77CFD70BDC046801300208C
:102FF40090130020F8B505000C00FEF7E1FD0E4B20
:103004000E4F1A69BA4205D1010022002800FFF7C9
:10301400C9FFF8BDDB69C31AE618B34200D926001C
:103024009368B34202D92100FFF7A3FF32002900BD
:103034003800FFF789FFECE780130020901300208D
:10304400F8B504000D0016001F00FFF7E9FC002C82
:1030540003D0002E01D0002D02D10648FFF7ACFEAC
:10306400002329002761E66020006361FFF7C2FFA7
:10307400F8BDC0469835000870B50400FFF7D0FCD1
:10308400002C02D11848FFF797FE184D2B699C427B
:103094000CD023686268A16813605A609A68521859
:1030A4009A6000232360013BAB6170BD2368104A22
:1030B4002B615A60002323602B69934202D1FEF7EF
:1030C4008BFDF2E79968A2688A189A60FEF778FD8A
:1030D4002B69E9699B68421A9342E6D9C918091A0F
:1030E400FFF747FFE1E7C046A3350008801300203F
:1030F40090130020F7B5FFF793FC294D2C69FEF7D8
:103104005FFDEA69A168274F831A99423FD8531893
:10311400EB6162680193236813605A6000232360A3
:103124002B69BB4201D1FEF757FDFFF73BFC62B6AA
:1031340020002169E368984772B6FFF721FC6369B0
:10314400002BDAD0FEF73CFD019B6269C31A06002E
:1031540000939A420BD20220FFF7C2FC00222B6993
:10316400BB4208D131002000FFF71CFFF7BD019BD3
:10317400121AD218F3E7009B0099D318994200D988
:1031840013001A0021003800FFF7DEFEB5E72B69B3
:10319400BB42EBD05118091AFFF7EBFEE6E7C04635
:1031A4008013002090130020EFF30983203383F36E
:1031B400098862B670470000024A0349136A0B404B
:1031C4001362704700ED00E0FFFF00FF10B50F3001
:1031D4000FD072B6EFF30984203C84F3098880236E
:1031E4005B04E361FFF746FD024B002800D1024B6C
:1031F400A36110BD57010008620100087047002355
:1032040010B59A4200D110BDCC5CC4540133F8E728
:1032140003008218934200D1704719700133F9E713
:04322400F8B5C046F3
:04322800F8B5C046EF
:10322C00000000000000000001020304060708096A
:10323C0000000000010203040D48617264466175D0
:10324C006C740D00414842467265713D25754D48C0
:10325C007A3B20415042467265713D25754D487A46
:10326C000D0000000000000000000000790E0008B6
:10327C008D110008C1110008450E0008390D000819
:10328C0029120008D8F9FFFF000000009511000872
:10329C00C9110008D4F9FFFF00000000610E0008FE
:1032AC002D0E0008DD12000850696E67004F6B0D83
:1032BC000A00436D64556E6B6E6F776E0D0A0020BD
:1032CC002C0042746E2025750D00323032323034B1
:1032DC0030395F30313130004176616461000D2549
:1032EC00532025530D0000000000000000000000DA
:1032FC0085170008271500080515000800000000B8
:10330C000100000001000000B400000000000000FB
:10331C000000000001000000B400000000000000EC
:10332C000100000001000000B400000000000000DB
:10333C000000000001000000B400000000000000CC
:10334C000100000001000000B400000000000000BB
:10335C00000000000300000000000000B835000869
:10336C00DC130020DC130020DC130020B83500082F
:10337C00000000000000000000000000B83500084C
:10338C00000000000000000000000000B83500083C
:10339C00000000000000000000000000B83500082C
:1033AC00000000000000000000000000B83500081C
:1033BC00000000000000000000000000B83500080C
:1033CC00000000000000000000000000B8350008FC
:1033DC000000000000000000000000007573624453
:1033EC00697361626C65456E64706F696E74734964
:1033FC0000757362537461727452656365697665A6
:10340C00490075736253746172745472616E736D9A
:10341C006974490000000100000000000000000079
:10342C002D1E00080D210008BF210008400040009F
:10343C00E0110020E011002001000000F01100203C
:10344C00646D6153747265616D416C6C6F6349009E
:10345C0000000240080002400100000000000009CA
:10346C00000002401C000240060000000004010A9B
:10347C000000024030000240060000000008020A72
:10348C00000002404400024078000000000C030BD6
:10349C000000024058000240780000000010040BAD
:1034AC00000002406C000240780000000014050B84
:1034BC000000024080000240780000000018060B5B
:1034CC00535623340053562335005356233600539A
:1034DC00562337005356233800535623390053567E
:1034EC00233130005356233131006D61696E006910
:1034FC00646C6500737461636B206F766572666CC7
:10350C006F7700636853636852656164794900633F
:10351C006853656D4F626A656374496E69740063C4
:10352C006853656D5761697454696D656F75745333
:10353C0000636853656D5369676E616C4900633055
:10354C00000000004A35000800040020000800209C
:10355C0038120020F01200206368546864536C65C4
:10356C006570530063685468644372656174655395
:10357C00757370656E646564490063685468644370
:10358C007265617465537461746963006368565441
:10359C00446F536574490063685654446F526573A5
:0435AC0065744900F9
:0835B00060CEFF7F0100000066
:040000050800011DD1
:00000001FF
