:020000040800F2
:100000000004002031010008B9430008DD19000890
:1000100033010008330100083301000833010008F0
:1000200033010008330100083301000833010008E0
:1000300033010008330100083301000833010008D0
:1000400033010008330100083301000833010008C0
:1000500033010008F51A0008291B00085D1B000881
:10006000330100085D3A0008A12A0008C92A0008E7
:10007000330100083301000833010008192C00087F
:100080003301000833010008330100083301000880
:100090003301000833010008330100083301000870
:1000A000330100083301000833010008112500085E
:1000B000552500089925000833010008ED32000895
:1000C00011010008B906000801080008110F000816
:1000D00071120008811500088D1F0008E900000852
:0800E00005110008B11500082C
:1000E80010B5064C2378002B07D1054B002B02D006
:1000F800044800E000BF0123237010BD88080020D9
:100108000000000074560008044B10B5002B03D003
:100118000349044800E000BF10BDC04600000000CD
:100128008C080020745600082AE000F000F8FEE76A
:10013800F0B544464D4656465F46F0B46B46CB6034
:10014800C3689D46F0BCA046A946B246BB46F0BD72
:1001580003F0A0FC62B6281CA047002003F0E6FFCD
:10016800FEE703F087FC03F095FE03F093FC024AD8
:10017800024B1360FEE7C04604ED00E0000000807B
:1001880072B6244880F30888234880F3098802203F
:1001980080F31488BFF36F8F02F050FC01F0E0FE8B
:1001A8001E481F491B4A914202DA08600431FAE7E7
:1001B8001C49194A914202DA08600431FAE71A49DF
:1001C8001A4A1B4B9A4204DA086810600431043258
:1001D800F8E700201749184A914202DA086004310A
:1001E800FAE702F02FFC02F02AFC144C144DAC4242
:1001F80003DA216888470434F9E700F003FE114C5C
:10020800114DAC4203DA216888470434F9E70F49F5
:1002180008470000000400200008002055555555E7
:100228000000002000040020745600080008002088
:100238008408002088080020E02B0020C000000867
:10024800DC000008DC000008E8000008492A000873
:100258000023C25C0133002AFBD1581E70470000FE
:1002680002B4714649084900095C49008E4402BC41
:100278007047C04603B47146490840004900095E0A
:1002880049008E4403BC7047002243088B4274D354
:1002980003098B425FD3030A8B4244D3030B8B427F
:1002A80028D3030C8B420DD3FF22090212BA030C88
:1002B8008B4202D31212090265D0030B8B4219D369
:1002C80000E0090AC30B8B4201D3CB03C01A524189
:1002D800830B8B4201D38B03C01A5241430B8B42D1
:1002E80001D34B03C01A5241030B8B4201D30B03BA
:1002F800C01A5241C30A8B4201D3CB02C01A5241E1
:10030800830A8B4201D38B02C01A5241430A8B42A3
:1003180001D34B02C01A5241030A8B4201D30B028C
:10032800C01A5241CDD2C3098B4201D3CB01C01AA6
:10033800524183098B4201D38B01C01A52414309B0
:100348008B4201D34B01C01A524103098B4201D39E
:100358000B01C01A5241C3088B4201D3CB00C01A0B
:10036800524183088B4201D38B00C01A5241430883
:100378008B4201D34B00C01A5241411A00D20146A8
:10038800524110467047FFE701B5002000F006F81B
:1003980002BDC0460029F7D076E770477047C046CF
:1003A800002B11D1002A0FD1002900D1002802D03A
:1003B8000021C943081C07B4024802A14018029052
:1003C80003BDC046D9FFFFFF03B4684601B50298D4
:1003D80000F02EF8019B9E4602B00CBC7047C04648
:1003E800F0B515042D0C0F0001002E00C6468446FA
:1003F8000004140C000C090C46434D436043614350
:100408004019340C241800B5A54203D980204002B5
:1004180080464144250C6D18614659437A4330049F
:1004280049192404000C2018891880BCB846F0BD6E
:10043800F0B557464E464546DE46E0B504000D0089
:100448009246994683B08B4230D82DD049465046C3
:1004580000F0D8F829000600200000F0D3F8331A7D
:100468009846203B9B4633D45A46534693404246CF
:100478001F00534693401E00AF423AD8AF4200D106
:1004880078E05B46A41BBD41002B00DA75E0002232
:1004980000230092019301235A46934001930123BC
:1004A80042469340009328E08242CFD9002200239D
:1004B800009201930C9B002B01D01C605D6000989A
:1004C800019903B0F0BCBB46B246A946A046F0BDB0
:1004D800424620239B1A5246DA40414613004A46B8
:1004E8008A40170042461F43534693401E00AF42BE
:1004F800C4D900220023009201934346002BD9D08F
:10050800FB0772081A4346467B080EE0AB4201D14E
:10051800A2420CD8A41A9D41012024196D41002142
:10052800013E24184D41002E06D0AB42EED9013EC3
:1005380024196D41002EF8D1009801995B460019E5
:100548006941002B24DB2B005A464446D3402A003D
:10055800E2401C005B461500002B2ADB26009E406B
:10056800330026004746BE403200801A9941009069
:1005780001919FE7A342BCD883E74246202300218C
:100588009B1A0022009101920122DA40019286E72B
:10059800424620239B1A2A0046469A402300F340ED
:1005A800444613432A00E2401C005B461500002B1A
:1005B800D4DA42462F002023260097409B1ADE40BB
:1005C8003B003343CDE7C0461C2101231B0498425E
:1005D80001D3000C10391B0A984201D3000A0839CC
:1005E8001B09984201D30009043902A2105C401883
:1005F8007047C04604030202010101010000000027
:100608000000000010B5002903D1FFF7DDFF2030FE
:1006180002E0081CFFF7D8FF10BDC0460021802269
:100628000C4B013010B5C1775869920202439020F3
:100638005A61C022C00504689200224302608022E9
:10064800D86992050243DA610122DB69024B1A601C
:10065800996010BD0010024000740040012310B5DD
:100668000130C377014800F07FF810BDC8080020AA
:1006780070470000837E002B0ED00A4A038B9142FC
:100688000BD92C2B0CD92D3B0383074B028B9A607B
:10069800C3698B4200D2C1617047044A9342F4D8BF
:1006A8002D33F1E7DC05000000740040D10F000095
:1006B8000022014B9A767047A408002070B51E4BA3
:1006C800858F0400466B12209D420AD80E21FA231A
:1006D80071439B001948C918FFF7D6FD002800D1BF
:1006E8000130CA23A269281A80B201366663A0873E
:1006F8005B00D06298420FD9A56B03F02DFA2368EE
:10070800002B02D0200003F0BBFD002329002000AD
:100718000B4A03F099FD70BDA36A0A495B189B0058
:10072800D218094B1B6A5B009BB25363236C002BE6
:10073800F1D09847EFE7C0468C0A00005046000009
:1007480055070008FFFFFF3FF809002010B572B6F3
:1007580003F0B2F90348FFF7B1FF03F0BFF962B63F
:1007680010BDC046C808002070B5E12600211C4D08
:100778001C4A2B6C36019B000400868741639858FD
:100788000023194AFFF72CFE0023184A8018594104
:10079800FA2200239200FFF703FEA36A1449A26914
:1007A8005B189B00A063D662D2182B695B009BB2D2
:1007B8005363A56B72B603F05DF903F0CDF92368B6
:1007C800002B02D0200003F05BFD0023290020004D
:1007D800084A03F039FD03F05DF962B670BDC04602
:1007E800F8090020C04F000810270000E7030000A8
:1007F800FFFFFF3F55070008094B0A4A0A499A615B
:100808005A620122D96106219A620022198427318D
:100818009A8519635A639A639A871A647047C0461F
:10082800C80800200004004000080048012210B554
:10083800036A818E046B8A405968C9B2002904D1C1
:10084800A26208330362002010BDA261F9E700002C
:10085800002170B50C000D00104B1A6A136852681D
:10086800D21A52105208914206D0188801312D1818
:10087800588804332418F6E7094B0A481B880A49A4
:100888005843FFF701FD240929096043FFF7FCFCE1
:1008980001000648FFF7EEFE70BDC0464417002071
:1008A800BAF7FF1FE8800000FF0F0000A40800202F
:1008B8000123818E026B8B409362704710B50368E9
:1008C80001491B68984710BDE84F00089022F0B511
:1008D80003688588D2058079934228D180222449EB
:1008E80092024C6922434A6103216C00E4B2A140A0
:1008F8001A68A8408A431A6001221700A740AA4034
:100908003C001E683E431E605E6896435E605E68FB
:1009180030435860D8688843D860D868D8609868E9
:100928008843986099680C439C609A62F0BD114AAC
:10093800934204D180220E49D2024C69D2E70E4A72
:10094800934204D180220A4912034C69CAE70B4A30
:10095800934204D18022064952034C69C2E7084AEF
:100968009342C1D180220249D2034C69BAE7C046FA
:10097800001002400004004800080048000C00482D
:100988000014004870B50500FC3504000A49A86940
:1009980001F0FEFA002803D12000FFF78FFF70BD99
:1009A8000649A86901F0F4FA0028F5D02368200068
:1009B8001B6803499847F2E7ED4F0008F24F00081B
:1009C800F64F0008F0B587B0002304AC63710493B8
:1009D80072B603F04FF801217448494203F09AFABD
:1009E800002824D17248010090310B681D005E7800
:1009F8001A78360216439A78083512041643DA78BC
:100A08000D601206324304925A791E791202164377
:100A18009A79DB79120432431B06134363608D42D3
:100A280000D30860634803F09BFA03F053FA03F01D
:100A380031F862B6607901380528C5D8FFF71AFC85
:100A48000600C4FF53005A008800B300049C02ABA0
:100A5800DD1D2900200001F059FE0028B4D1564BB5
:100A6800564AE31801935B7A2E78A518002B0ED00E
:100A78000023019A5372AB6002F074F8AB682861E6
:100A8800082E0CD1002BE2D0013BAB60DFE72F69C9
:100A980002F068F84A4BC71B9F42E9D8ECE70D2ED5
:100AA80001D00A2E16D1002BD1D0A3200022E318A2
:100AB80000011A54B3231B01E2184249201801F01F
:100AC80081FA0122019B68615A723F4BE018FFF7D7
:100AD80059FFBCE7FE2BBAD85A1CAA60A322E31818
:100AE80012019E54B3E7394801F094FB3848FFF7E8
:100AF800BFFD69E7374801F08DFB72B602F0BAFF17
:100B0800354C3649200001F0A9F90321200001F0F5
:100B180061F9002807D0324801F092FB31490820DA
:100B280003F05CF9F1E7200001F0F0F802F0B2FF01
:100B380062B6200001F0A4F980212B4A2000136B33
:100B48008B43136301F0B4F9284803F007FE3BE731
:100B5800264803F021FE72B602F08CFF1E4C0021DD
:100B6800200001F037F90500200001F0CFF802F06D
:100B780091FF62B6200001F083F9002D0FD120000B
:100B880001F0D8F9184A1A49536B20000B405363F7
:100B9800184901F063F9184801F03CFB14E71748BD
:100BA80001F038FBF7E71648F6E7C046A809002029
:100BB80010090020B40900202F0B00002C0B0000A6
:100BC800DE030000035000082C0A0000065000084D
:100BD800A40800200B50000874170020006CDC02E9
:100BE800185000081608000000100240B018002035
:100BF800FFFFFEFF00127A002E5000082450000864
:100C08003E50000870B504002600AC360D0002F016
:100C1800A3FF33680220002B37DD02F09DFF21007F
:100C2800336894310A68013B3360130008330B6062
:100C380068782B7800021843AB781B041843EB78CC
:100C48001B060343180A13705070180C1B0E907083
:100C5800D37068792B7900021843AB791B041843C9
:100C6800EB791B060343180A13715071180C1B0EFD
:100C7800D371230090710A6890339A4200D30C60B4
:100C88002000983003F06CF9002070BD70B50400A6
:100C98000D0072B602F0EEFE29002000FFF7B2FF49
:100CA800040003F017F902F0F5FE62B6200070BDEB
:100CB800037807B59A1E012A0ED80E4A1378002B1E
:100CC80009D101210093117004336A4669460A4824
:100CD8005371FFF7DBFF07BD042B01D0012BFAD1BD
:100CE800044A1378002BF6D00023137000930533C1
:100CF800EBE7C046CC1500201009002070B5002392
:100D080004000F4A08000021FFF76AFB00230D4A80
:100D1800251D80185941FA2200239200FFF740FB55
:100D2800060002F019FF6368002B02D0280003F0C8
:100D3800A7FA310028002300034A03F085FA70BDA2
:100D480010270000E7030000B516000870B504007E
:100D580002F002FF6368002B07D002F0FDFE636813
:100D6800002B02D0201D03F08BFA01256D42236A67
:100D780018780428FDD8FFF773FA030A1324320001
:100D8800236820009B6898470128F0D170BD5968F6
:100D9800083323620029EAD02000FFF7AFFFF5E708
:100DA8005B68E269DB00D318236223002D331B78CC
:100DB800002B04D0210012482831FFF723FF01211E
:100DC800EAE723002D331B78002B04D021000C48C0
:100DD8002831FFF717FF0023E3612362D6E7626A31
:100DE800013201D15A686262626A002A03D108336B
:100DF80065622362BBE7E369013A23626262B6E790
:100E08001009002010232E4A10B511682D4C0B43F1
:100E18002000136000F07AFF01F036FE03F0BAF804
:100E2800294B12211A00903213601A002748943275
:100E3800136003F05FF80021254803F05BF82548AC
:100E480001F00CFD244A2549254801F0E3F920006A
:100E580001F016F8234C20003030FFF737FD72B64A
:100E680002F008FE01235B4263621F4B2000E3612E
:100E78002362FFF76BFF02F00DFE62B61B4C2000E9
:100E880000F006FD20001A4900F090FF194A1A499F
:100E9800936A92695B189B00D318002217485A631B
:100EA80000F0B2FA164C2000FFF7B8FB2000FFF75D
:100EB800D5FB144803F01AFC00F0A2F9FFF782FDF5
:100EC800002002407417002010090020B4090020F7
:100ED800A8090020880A0020495000085750000837
:100EE8005D500008C0090020EC500008E008002010
:100EF80000093D00C8080020FFFFFF3F44170020FD
:100F0800A4080020B01800205B4BF0B51A009032FE
:100F180013601A0000200021943218605960136091
:100F2800E123564A5B021360554B0321536090231B
:100F3800DB05936013610A239382083BD3619033E6
:100F4800136285235B0153621300092501262833A8
:100F58001970812100244B4B9661DA6095814A4AC9
:100F680009015A5049495C605A50494A9C609E544C
:100F7800484A87B09C5004329C50474A9C50B32240
:100F880012019C50454A9C50454A9C50454A9C54E5
:100F980008329C50444A45491A60454A454F995081
:100FA8004549464A381D99502100202203F0B8FED1
:100FB80001235B427B623B002D331C70404BCF22E8
:100FC8003B630E23BB863B0036331C703D4B3E49CA
:100FD8003B603E4BBC621A60B43A5A603C4AD961E5
:100FE8009A603C4A1221DA600C221A6158329A61DE
:100FF8009A62394A1962DA62384A9E63DA630422CD
:101008005C615C621C635C635C649D641A64344A62
:101018009D65DA64334A9D66DA65334A9D67DA6608
:10102800324A1C65DA671A1DD4671A000832D46779
:101038001A00883215606D462D4A5C651C665C6630
:101048001C675C678C331A602A002A4B43CB43C267
:1010580043CB43C2284E1820F4603461746103F016
:1010680005FE0400183418222900F060746103F0AA
:101078003BFE346107B0F0BD10090020D0150020F8
:1010880000380140880A0020980A0020140800004F
:10109800180800001C080000240800003C0B000091
:1010A800340B0000380B0000A8510008C851000894
:1010B800280A0000C0090020D85100082C0A0000A6
:1010C80000040048E050000876500008F8090020A5
:1010D800E703000065500008875000089850000892
:1010E800A6500008B2500008BE500008C9500008B9
:1010F8009C500008904F000800080020034B10B5D2
:10110800D868002801D003F0ADFD10BD000800200C
:10111800F7B501261C4D002128001C4CA368226845
:10112800A788126994462A7801923200BA401700BB
:1011380062463A421ED0019A012A01D0042A17D1E8
:1011480003222A70A2689A421CD0002B00D098472C
:1011580028000021A3680E4A0C3401359442DED1E0
:10116800002B00D09847B420800002F0E7FFD1E7B9
:101178000222E6E7019A023A012A01D80422E0E7AE
:101188002E70DFE70131E6E740170020281700201E
:10119800401700209023DB05984206D18023134A8C
:1011A8009B0251690B4353617047114B984204D11C
:1011B80080230E4ADB025169F4E70E4B984204D1B2
:1011C80080230A4A1B035169ECE70B4B984204D170
:1011D8008023064A5B035169E4E7084B9842E3D150
:1011E8008023024ADB035169DCE7C0460010024055
:1011F8000004004800080048000C0048001400489B
:10120800F0B50027144E85B03468B3792000B5884E
:101218000393FFF7BFFF03226D00EDB2AA402368D6
:101228000C3693432360E3689343E360039BE268CF
:10123800AB401343E3600023084ABB54012F09D194
:10124800942100938022064B4900064802F02EFFA5
:1012580005B0F0BD0127D7E7281700204017002068
:1012680019110008001600209022084B0849D205E1
:101278001A600022996007499A80D9600D210232CC
:101288009A719A74044A19825A6170472817002083
:10129800D115000800080048B90C0008020070B514
:1012A8000F2502CA4B681C68AC431C604D7B0C6858
:1012B8000E21A94061600100C4691031944218D11F
:1012C800C1610462020028321278002A0CD0C26977
:1012D80011685268D960521A52105A60064A1A6048
:1012E800012219680A431A60436A002B00D0984704
:1012F80070BDC2610162E5E78225000010B572B6D3
:1013080002F0DAFB0348FFF7C9FF02F0E7FB62B619
:1013180010BDC046441700208023034ADB03116830
:101328000B4313607047C04608270140F7B5060015
:101338000C1E15D04368026827499F1A82687D10E1
:10134800D21A491B521094420BD8190022000020CF
:10135800013A08800231002AFAD164001B1973602F
:10136800F7BDA14202D21D4803F092FC2000AC4216
:1013780000D228004019854203D88023DB05984213
:1013880000D3154843001800019303F06FFC2300B5
:1013980000220090C719013B3A800237002BFAD18E
:1013A80037687368DA1B002A07DD3900009803F0F4
:1013B800A4FC380003F056FC01E0002FF9D1009A94
:1013C800009B9446641964001C193360019B746087
:1013D8006344B360C4E7C046FFFFFF3F4C510008B9
:1013E80010B503684468E21A5210914203D9891A69
:1013F800FFF79CFF10BD9142FCD249005918A14249
:10140800F8D04160F6E700008023F7B54C4C9B000C
:10141800E26800901A43E260E2684A494A4D0A408D
:10142800E260E268A26900981343A361A3690023FC
:101438002B61FFF771FF454F454EF9683A69521A1B
:1014480093105E4301927A685643009A3100101D4A
:10145800FFF7C6FF009831001030FFF7C1FF0023E7
:10146800FA68AB62019B9B1801938023DB039C46BF
:10147800019B934236D01368002B10D090205168FE
:10148800C005834213D180206669800230436061C1
:10149800032689B249008E4018683043186001233A
:1014A8009068A96A83400B43AB620C32E0E7294895
:1014B800834203D180206669C002E7E72648834259
:1014C80003D1802066690003E0E72448834203D102
:1014D800802660697603D9E721488342D8D16646D9
:1014E8006069D3E73B686B61BB680193019A009B15
:1014F8005A628023AA681B061343AB60194BAA687B
:10150800002A06DA013B002BF9D1174800F082FEC9
:10151800F7BD0123AA681A43AA602A681A42FCD0B8
:101528000023124A1800092102F064FA009B104AAD
:10153800186043689A600F4A1A600323EB60E7E774
:1015480000100240FFFDFFFF0024014000080020BA
:10155800ABAAAAAA0004004800080048000C0048EA
:101568000014004819F60000665100080513000829
:101578004024014082250000084B0022191DD96132
:10158800190010315A609A60DA601A615A619A61DA
:101598005A621962024A034B1A60704744170020C6
:1015A800002C01407017002010B5064C2069002857
:1015B80001D003F057FB6068002801D003F052FB0C
:1015C80010BDC04644170020F0B50D00002485B0BA
:1015D8000190AC4244D2019B1B5D032B3DD102AA72
:1015E80053710023029372B602F044FA02F0B4FA7F
:1015F8001C4E3700AC373B68002B29DD02F0ACFAF3
:1016080032003B689432013B3B60136802A8190022
:10161800007808311160187002A84078587002A844
:101628008078987002A8C078D87002A800791871DC
:1016380002A84079587102A88079987102A8C079E7
:10164800D871094B994200D31660084802F088FC0B
:1016580002F040FC02F01EFA62B60134E4B2B8E7C8
:1016680005B0F0BD10090020A0090020A80900203D
:1016780010B50C24064B07494A682240824204D020
:10168800013B002BF8D1022010BD0020FCE7C0462A
:101698000F2700000010024010B572B602F00CFAD5
:1016A80010BD10B502F01AFA62B610BD10B50C00E4
:1016B800FFF7F2FF236820001B689847FFF7F1FF48
:1016C80010BD0000F0B59024E405A0423BD1802471
:1016D8002F4DA4026E6934436C6103244D00AC4065
:1016E8000768E643A7430224AC40076007683C4309
:1016F800046001248C40002A45D14268A24342601C
:10170800C2683240C260C268C26082681640012264
:10171800AA4086608468224382608C00072902D927
:101728000C00083CA40007228A42894149428900EA
:1017380040180F21A140A340026A8A430262026A4C
:1017480013430362F0BD134CA04204D18024104D12
:10175800E4026E69BFE7104CA04204D180240C4D0E
:1017680024036E69B7E70D4CA04204D18024084DCC
:1017780064036E69AFE70A4CA042AED18024044DE1
:10178800E4036E69A7E7426814434460B8E7C046BB
:10179800001002400004004800080048000C0048FF
:1017A8000014004803000321084A033310688B43E0
:1017B8000749C31810B58B4206D903F07BFA0C23EE
:1017C80003600120404210BD1360FCE718080020A8
:1017D800004000200368254A934207D18022244B09
:1017E800120199690A439A619B6909E08022D2052E
:1017F800934206D101221E4BD9690A43DA61DB699B
:1018080070471C4A934203D1194B0222D969F4E765
:10181800194A934203D1164B1022D969EDE7174AAA
:10182800934203D1124B2022D969E6E7144A934226
:1018380004D180220E4B5200D969DEE7114A934247
:1018480004D180220A4B52029969CBE70E4A93428F
:1018580004D18022064B92029969C3E70B4A93424E
:10186800CED18022024BD2029969BBE7002C0140FD
:101878000010024000040040001000400014004026
:101888000020004000400140004401400048014061
:1018980010B50400FFF79EFFC02322681B025364A3
:1018A800802311680B431360A369D362237D013B36
:1018B80059424B4121690633481E03280BD8FEF7CD
:1018C800CFFC02181F2791691B010B439361012369
:1018D800116A0B43136201231168194311602C49E3
:1018E8008A421DD1627D21896068DB18FFF7EAFE14
:1018F80010BD91691B030B439361116A1023E8E73C
:10190800D1691B010B43D3618023116A5B00E0E7B7
:10191800D1691B030B43D3618023116A5B01D8E7AC
:101928001C498A420BD1902360682189627DDB05BE
:10193800984202D0184B984217D10123D6E717498D
:101948008A4208D1902360682189627DDB0598422C
:101958000BD10423CAE712498A4208D16068218959
:10196800627D9024E405A042C0D10023BEE70D4B60
:101978009A4202D00C4B9A42BAD1902360682189CE
:10198800627DDB05984201D10523AFE70223ADE76D
:10199800002C0140000400400004004800200040E2
:1019A8000040014000440140004801408022084BAB
:1019B80010B599689143996011000278002A06D001
:1019C800DC690C42FCD092B21A850130F5E710BDF3
:1019D8000038014010B50248FFF7E8FF01BEFEE7F6
:1019E800765100083422014BDA607047002002402B
:1019F800F7B5050001F0B6F80126032701900C4B56
:101A08003C00DA68324206D1DA683400520702D460
:101A1800DC682409344001F0A5F8019BC01A85420E
:101A280003D9032CEBD02000FEBD0224FBE7C046FF
:101A380000200240024B034A5A60034A5A6070472A
:101A48000020024023016745AB89EFCDE12010B5A6
:101A58004000FFF7CDFF8023024A11690B43136151
:101A680010BDC0460020024070B50600E1204000CD
:101A7800FFF7BEFF002811D10225094C23692B432B
:101A8800236140236661226913432361C046C33042
:101A9800FF30FFF7ADFF2369AB43236170BDC0463C
:101AA8000020024070B50600E12040000D00FFF75D
:101AB8009FFF002816D101230B4CC3302269FF3049
:101AC80013432361ABB23380FFF792FF002805D19F
:101AD8002D0CC3307580FF30FFF78AFF0122236980
:101AE8009343236170BDC0460020024010B5744680
:101AF80002F006F8FFF7D0FD074B1B68002B00D05B
:101B080098470322054B5A61FFF7CBFD02F00EF808
:101B1800200002F05FFC10BD88170020000401407F
:101B280010B5744601F0ECFFFFF7B6FD074B1B68D4
:101B3800002B00D098470C22054B5A61FFF7B1FDE6
:101B480001F0F4FF200002F045FC10BD8C170020C6
:101B58000004014010B5744601F0D2FFFFF79CFD68
:101B6800074B1B68002B00D09847064B064A5A6162
:101B7800FFF797FD01F0DAFF200002F02BFC10BD03
:101B88009017002000040140F0FF000009020843FC
:101B980070471B021A431202114309020843704797
:101BA8008022094B520219680A4380211A60074AA9
:101BB80089021868084204D1013A002AF9D10120A3
:101BC80070470020FCE7C046001002400F270000C5
:101BD8000122084B19680A4302211A60064A18684C
:101BE800084204D1013A002AF9D1012070470020A7
:101BF800FCE7C046001002400F2700008022094B76
:101C0800520419680A4380211A60074A890418682F
:101C1800084204D1013A002AF9D101207047002076
:101C2800FCE7C046001002400F27000080220F4B3F
:101C38005202596B82B00A435A6300220C4901923E
:101C4800019A8A4203D8019A01320192F8E7802169
:101C5800084A8902586B084205D1013A002AF9D18D
:101C6800012002B070470020FBE7C0460010024088
:101C7800E60300000F2700001E4B10B55868000748
:101C8800800F02280AD0032831D00138431E98411A
:101C9800194B40421840194BC01810BD0F20D96A83
:101CA8005A680140920C02400131941C824200D1D2
:101CB8001024C02280205B685202134040028342F5
:101CC8000DD008D8002B10D080220D481202934264
:101CD80006D06043E1E7934205D00948F9E7074891
:101CE800FEF7D2FAF5E70748FAE70748F1E70548AB
:101CF800D3E7C0460010024000F7C2FF001BB70040
:101D080000127A00006CDC0200093D00F0B5040006
:101D180087B01C4E1C4F02AD31001022280002F083
:101D2800E3FF7B6820001B061B0FED5CFFF7A4FF99
:101D38003100E8400822A06005001031684602F032
:101D4800D3FF6A467B6811495B055B0FD35CDD40B6
:101D58005A1E9341013323740D4BE560D868FEF792
:101D680093FA80230122DB05196801389143196031
:101D7800596A98625A61596219680A431A6007B029
:101D8800F0BDC046A84F0008001002401027000010
:101D980074170020034B044A5B68D0685B0500D5C4
:101DA80040007047001002407417002070B50D0005
:101DB800040001680648FFF7EDFF29000600FEF75A
:101DC80063FA0023AE425B412268C31A936270BD76
:101DD80074170020032370B51F4C050066680800BF
:101DE8009E43023B032909D8FEF73AFA020F1A2B41
:101DF8002800FFF7EDFE002802D00123180070BD6F
:101E08006660FFF735FC0300F8E72800FFF7C8FE17
:101E180002230028F2D1013B1E4366600430F0E73C
:101E28002800FFF7BDFE03230028E7D12800FFF7AD
:101E3800E5FE04230028E1D1023B1E43666008301A
:101E4800DFE72800FFF7F2FE0028D6D103231E4360
:101E580066600C30D5E7C0460010024030B501245A
:101E68002200054B054D18680243A94201D802001B
:101E7800A2431A6030BDC0460020024000366E0101
:101E880070B5084D0849E868FEF7FEF906490400F0
:101E9800A868FEF7F9F922000100044800F0BAF931
:101EA80070BDC0467417002040420F0082510008E0
:101EB80080231A4A1B05D16919481943D161116950
:101EC8000B431361136917490B401361164B59688B
:101ED8000140596080215868890501435960596853
:101EE800090E090659605868104901435960196874
:101EF8000F48014019608021186889010143196061
:101F080040211868014380201960116B81431163D7
:101F1800202219680A431A607047C0460010024020
:101F2800FFFFFF48FFFFFFF7006C00407FBB220068
:101F3800FFC0FFFF2021074A13688B431360064B3D
:101F48000649DA690A40DA618022196B0A431A6382
:101F58007047C046006C004000100240FFFFFFF7CA
:101F68000122074B19680A431A60022219681142B4
:101F7800FCD0012299690A439A619B697047C0465F
:101F8800001002400122014B1A7470477417002098
:101F980070B5050000208D4213D004002A5D13009F
:101FA800413B1600192B00D820360B5D180041382C
:101FB800192800D82033F01A9E4202D10134002A91
:101FC800ECD170BDF0B5002802D1106800280FD000
:101FD800030018000D00047801332E78002E03D07A
:101FE8000135B442F9D1F4E7002C07D12000146080
:101FF800F0BD2F000FE00134002E04D11C00013386
:1020080025781F000C002678B542F4D1002DF0D0B9
:102018000021013B19701760EAE7F0B505000E00D2
:102028001700002487B000930CAB1B780193300095
:102038003900FEF7AFF903000800C2B231001E00F4
:1020480013003733DBB2092802D813003033DBB270
:1020580002AA013403321355B942E8D226002B688C
:10206800009A1B6896420BD22800019998470028CD
:1020780002D00C2007B0F0BD0136F0E7002CF9D0F3
:1020880003AB013CE15C2B6828001B6898470028DB
:10209800F4D0EEE7F0B50B000500140087B019780E
:1020A8005A1C0492002905D12B6828005B689847C0
:1020B80007B0F0BD252904D02B6828001B68984775
:1020C8003FE05A780392302A14D102330493002651
:1020D800049B19785F1C0B00303BDBB20497092B7B
:1020E80003D92A2909D108CCDBB20A2256439E1902
:1020F8003B00EEE720230393E9E72E290BD139783B
:102108007B1C0A00303A0493092A02D92A2902D1F1
:1021180004341F00F3E7632935D015D8412954D07A
:1021280003D82529C8D0049BB9E753292ED05829AC
:10213800F9D1039B10220093330002CC2800FFF74B
:102148006CFF0028EFD0AFE773291FD014D864299B
:1021580001D06929E7D180CC002F07DA2B682D211F
:1021680028001B68984700289ED17F42039B0A22BB
:10217800009339003300E1E77529D4D1039B0A2283
:1021880000933300D9E702CCC9B295E72768380035
:10219800FEF75EF805903978002907D02B682800EB
:1021A8001B68013798470028F5D07DE7059BF61A8C
:1021B800002E01DC0434B6E72B6828001B6803995D
:1021C8009847013E0028F3D06EE700262368A768E9
:1021D800039363680593059B9E4201DB0C34A2E7D9
:1021E800002E0DD1039B1022995D30232800009307
:1021F8002E3BFFF712FF002800D055E70136EAE72B
:10220800002FEFD02B6828001B68F9B298470028E8
:10221800E8D049E70FB413B504AB10CB019372B6FD
:1022280001F028FC2100019A0448FFF733FF01F070
:1022380031FC62B613BC08BC04B01847B0140020C7
:102248000FB407B504AA02CA03480192FFF722FF98
:1022580003B008BC04B01847B0140020F7B51E003E
:10226800364B0192C35C0400002B00D1FEE7C56821
:1022780080206B68DF690742FCD00F221868304F56
:1022880038401860A36858680768974307601F6854
:102298005B7B9C460E236246934020227B60019B19
:1022A800C16043606B6A9343036001230268134370
:1022B800036000F057FC3E22E36805005B683000CD
:1022C8001A85002100231F4AFEF78AF800231E4AB8
:1022D80080185941FA2200239200FEF761F806009F
:1022E800A3685B685868002805D000F03BFC401BD9
:1022F8008642F5D202200F25A26853681968A943BF
:102308001960557B11680E22AA404A600F4AA2182C
:10231800DA60802292005A60E268516A1960516856
:1023280080220D68D2012A430A600021084AA15080
:10233800012219680A431A60FEBDC0461808000049
:10234800FFBFFFFF10270000E70300002808000078
:102358002408000008B4034B9C46034BC01A08BC71
:102368006047C046652200082C0A00000EB403B579
:10237800054B03AA02CAC0180192FFF78BFE02B0F0
:1023880008BC03B01847C046280A000008B4034B2D
:102398009C46034BC01A08BC6047C046752300081A
:1023A8002C0A000073B504008B032FD501236A465D
:1023B800537101F0D1FB164D2E00AC363368002B5B
:1023C80024DD01F0C9FB2A0033689432013B3360F5
:1023D8001368200A1900083111605870200C987091
:1023E800684600791C70187168464079240E587147
:1023F80068468079DC7098716846C079D871054B59
:10240800994200D31560044801F0AAFD73BDC04687
:1024180010090020A0090020A8090020F7B508AC81
:10242800257890240193E405A0423FD18024314EC1
:10243800A40277693C43746103244E00B4400368E6
:10244800E743A3430224B440036003681C430460C9
:1024580001248C40002A49D14268A2434260019B72
:10246800C268B3403A40C260C2681343C36083681D
:102478001F400123B34087608268134383608A004A
:10248800072902D90A00083A920007238B4289419A
:102498004942890040180F219140036A8B43036227
:1024A8002B009340016A0B430362F7BD124CA04214
:1024B80004D180240F4EE4027769BBE70F4CA04299
:1024C80004D180240B4E24037769B3E70C4CA04257
:1024D80004D18024074E64037769ABE7094CA04216
:1024E800AAD18024034EE4037769A3E74268144322
:1024F8004460B4E7001002400004004800080048A7
:10250800000C00480014004810B5744601F0F8FAB1
:1025180072B601F0D1FA0A4B0A4AD9691A620A4B13
:102528001868002802D003681B68984701F0D6FA9B
:1025380062B601F0FBFA200001F04CFF10BDC04666
:10254800003801405F1B12009417002010B5744634
:1025580001F0D6FA72B601F0AFFA0A4B0A4AD96905
:102568001A620A4B1868002802D003681B6898474B
:1025780001F0B4FA62B601F0D9FA200001F02AFF9E
:1025880010BDC046004400405F1B12009817002091
:1025980010B5744601F0B4FA72B601F08DFA0A4B20
:1025A8000A4AD9691A620A4B1868002802D00368D7
:1025B8001B68984701F092FA62B601F0B7FA20005A
:1025C80001F008FF10BDC046004800405F1B120024
:1025D8009C17002081231B01C158C2180D4B10B550
:1025E800C358521A934200D9130082221201835011
:1025F800002B0ED00024084BC45443685B68D96094
:1026080082585A60C268126A1A60012219680A431D
:102618001A6010BD1C0800001808000010B50F242F
:10262800436859680A68A2430A60597B1A680E23EE
:102638008B40536082230C491B01C25843589B1A94
:1026480043500C394458A2184418A24206D24250AA
:10265800002B06D10122054BC25410BD02001032D6
:10266800F5E7FFF7B7FFF8E71C08000018080000B7
:1026780010B5FFF7D3FF10BD30B580240C4A030016
:10268800855824010C20A54211D20A481C58651C03
:102698001D50217081211C58090159188C4202D300
:1026A800190010311950002099580131995030BD46
:1026B8001C0800001408000010B5FFF7DDFF10BD6E
:1026C80008B4034B9C46034BC01A08BC6047C0467D
:1026D800C1260008280A0000034B10B5C35C002B74
:1026E80001D0FFF777FF10BD1808000010B5FFF7FD
:1026F800F3FF10BD08B4034B9C46034BC01A08BC3B
:102708006047C046F5260008280A000082680300D2
:10271800526830B5506880220D4D92005C59121AEB
:10272800121B02D58020800012180B20002A0DD021
:10273800621C5A51074A1C19A418227800200A70F2
:10274800802259599200914200DB585130BDC04651
:102758002408000028080000F0B585B01F000E000E
:102768000192040000F0FEF9002102AB254AD9715C
:10277800050000233800FDF733FE0023224A8018A5
:102788005941FA2200239200FDF70AFE070002AB26
:10279800D91D2000FFF7BAFF00F0E4F9401B87427B
:1027A80001D202202BE002ABDB793E2BEFD1174B95
:1027B800E35C002B00D1FEE78023E0684168CA692A
:1027C8001A42FCD00F216268006A53681C688C4367
:1027D8001C60557B14680E22AA40019D6260DE6071
:1027E8005D600225A843186001201D682843186011
:1027F80058680028FCD11D688D431D60626005B0D3
:10280800F0BDC04610270000E703000018080000CC
:1028180008B4034B9C46034BC01A08BC6047C0462B
:10282800612700082C0A0000C36810B512CB074BBB
:102838009C4202D0064B9C4204D10648FDF724FD79
:10284800E06010BD044BD868F8E7C0460038014086
:102858000044004000127A0074170020C368F7B5DE
:10286800654A0400986899898618721E9641002363
:10287800F6B21A000096FFF7D1FDE36828331B78FB
:10288800032B02D15D48FFF7A3F9E1685C4B486868
:102898000325C218531E9A4112019540594B2831FD
:1028A8001F6BAF431F6309781F6B91400A003A43BF
:1028B8001A63554A904200D079E080229969D20182
:1028C8000A439A619B69514B1C602000FFF7ACFFDB
:1028D8000022E06843685A604D4B62689A4205D10D
:1028E80080234C4A9B0011680B4313602300092185
:1028F800494A806901F07EF8E36841685A68606077
:10290800100028308860186A086001214348215463
:102918000C201060B430906090221869D205904263
:102928005CD03F4A904200D10026998A0123009644
:102938001A00FFF773FD3B4BA2689A4205D180232A
:10294800344ADB0011680B4313600023E0681A0067
:102958000921C06901F04EF8E16842684B68A0603F
:102968001800243090603048496A2018D0608020D0
:102978008000506011600121106801431160A0229D
:10298800596812050A435A6080221968D2010A431D
:102998001A601D4A934223D10F211B2000F07CFFAF
:1029A800E3685A68012311680B431360F7BD1F4A97
:1029B800904207D18022D96992020A43DA61DB6921
:1029C8001B4B81E71B4A904200D07EE78022D969E1
:1029D800D2020A43DA61DB69174B75E70E00A4E7F8
:1029E800124A934202D10F211C20D7E7114A934281
:1029F800D6D10F211D20D1E700FCFFB774170020A6
:102A080000C8FEBF001002400038014094170020A3
:102A18002853000800000140792600081808000023
:102A2800000400483853000828080000004400400B
:102A380098170020004800409C17002070477047F6
:102A4800FEE70000F0B5082400250E4A5368166812
:102A580019009068884210D8DE1E0021B04203D3C6
:102A68000330C11A890889005B18D168994207D8D0
:102A7800013C1032002CE9D1F0BD80CE80C1E9E7DD
:102A880020C3F3E7E451000810B500F037F800F070
:102A9800E9F800F063F810BD10B5744601F030F89D
:102AA800054800F0BBFF054800F0B8FF01F03EF80C
:102AB800200001F08FFC10BD0853000818530008CF
:102AC80010B5744601F01CF8084800F0A7FF084844
:102AD80000F0A4FF074800F0A1FF074800F09EFFA0
:102AE80001F024F8200001F075FC10BD28530008FF
:102AF800385300084853000858530008144B154A27
:102B0800996A10B50A43FC219A629A6AC9030A4075
:102B18009A629A6A1A69012252421A611A69002253
:102B28001A611A69D9680C4A0A438021DA60DA689E
:102B3800C9030A40DA60DA688022D96952050A4373
:102B4800DA61DB6900F0EAFE01F05CFC10BDC0460A
:102B580000100240FFFF81FFFFFFBFFF10B500F02C
:102B680017F810BD8023DB05586A704780230022C0
:102B7800DB0558631A610232DA607047802300224D
:102B8800DB05DA6070478023DB0558637047000077
:102B980010B50124104B1149DA692243DA61104A51
:102BA800DB699368234393600E4BD868FDF76CFB91
:102BB80080230122DB05013852429862DA62002242
:102BC80002219A610F205A63DA605A605C611C60C6
:102BD80000F062FE10BDC046001002401027000041
:102BE80000580140741700208022D2051369D1686B
:102BF80010B50B40D9B2C94311619B0707D572B60E
:102C080000F05AFF01F0E8F900F068FF62B610BD65
:102C180010B5744600F074FFFFF7E6FF00F086FF7A
:102C2800200001F0D7FB10BD0200030010B504001E
:102C3800763212787E331A7000F07EFC63681B6867
:102C4800002B02D00121200098470323237010BDD8
:102C580010B572B600F030FF10BD10B500F03EFFA1
:102C680062B610BD10B500F043FC10BD0123020090
:102C78000100037000232C32436048311360D36194
:102C880004328A42FAD183607047000070B50400AC
:102C98000D00002801D0002902D10D4801F090F95B
:102CA80072B600F0E7FE656000252000E56025614A
:102CB8006561A561E56125626562A56200F0DAFCDF
:102CC8000223237000F0E6FE62B6280070BDC046FD
:102CD8006452000810B5041E02D10D4801F070F9C5
:102CE80072B600F0C7FE200000F00AFC00230122A3
:102CF80063602270E36023616361A361E36123621F
:102D08006362A36201F0E6F800F0C4FE62B610BD8B
:102D18006D52000870B505000E00140000F01CFF8D
:102D2800002D01D0002C02D10C4801F049F9B31C48
:102D38009B006069EB185C60002803D0102200211A
:102D480001F0EEFFA069002803D01022002101F055
:102D5800E7FF3100280000F0F9FB70BD755200084C
:102D680010B5040000F0F8FE002C02D1094801F06B
:102D780027F9A268084B20001340A36000232361B1
:102D88006361A361E36123626362A36200F094FC60
:102D980010BDC0468652000801000100F8B50400C5
:102DA8000D0017001E0000F0D7FE002C01D0072DE3
:102DB80002D90B4801F004F90122AA4063892900CD
:102DC800134300226381AB1C9B00E3185B6820005F
:102DD8009B699F601E605A6000F0C0FCF8BDC04649
:102DE8009B520008F8B504000D0017001E0000F003
:102DF800B3FE002C01D0072D02D90B4801F0E0F8F2
:102E08000122AA4023892900134300222381AB1CF5
:102E18009B00E3185B6820005B699F601E605A6036
:102E280000F0C2FCF8BDC046AC520008022370B5E1
:102E380003700300002504006433C5678560C5601E
:102E4800056145618561C5610562456285621D70E0
:102E580000F0F2FB63681B68AB4202D02900200037
:102E6800984770BD03000278803310B51A700523A7
:102E78000370436804001B68002B01D004219847A5
:102E88000023A36010BD030010B580331B780370C6
:102E980043681B68002B01D00521984710BD00002E
:102EA800F7B50600643633780400002B01D0002300
:102EB8003370270074373A002000019700F038FC7F
:102EC80063689B68002B18D1019B1A786023150052
:102ED8001D401A4234D00021200000F09DFC002142
:102EE800200000F085FC63681B68002B02D00621D7
:102EF8002000984706233370F7BD20009847002824
:102F0800E2D023007B331A78013B1B78120213436B
:102F1800E26E9A4200D9E366019BE56E1B787F2B2F
:102F280000D80EE1002D00D1FEE009233370FFF731
:102F38008FFE0021E36EA26E2000FFF753FFFDE035
:102F480023007F2175331B780A401B021343854AEF
:102F5800934200D1D0E026D880225200934259D023
:102F68000DD8012B50D0022B00D196E0002BB2D106
:102F780022007C32A2660222E2662367C1E7812230
:102F88005200934200D19FE0FF32FF329342A2D118
:102F9800230076331B78012B9DD122007C321188C7
:102FA80001330B4341E080221201934246D023D8DB
:102FB800A022D20093423DD06B4A9B18012B00D926
:102FC80089E72300220079331B78783212781B02B4
:102FD8002100134322006068763240687731070089
:102FE800127820000978B847002800D173E74368B1
:102FF800A3660368E3661BE090221201934222D085
:103008005A4A934200D066E7594BA3660223E36607
:103018000023B2E7230076331B78012B00D05AE750
:10302800220002217C3213888B431380A566E56653
:10303800256766E74F4BA566E5669EE723007F3365
:10304800A3660123D6E72378042B11D1FFF700FEEE
:103058002000FFF785FEFFF700FE230003217F33E2
:103068001D70636821701B68002B01D020009847F1
:10307800230076331B78002B0BD022007F3213708D
:103088000423237063681B68002B02D002212000F0
:1030980098470023A366E3666FE723000F21783380
:1030A8001B78200019405BB2002B0ADA00F02EFBD7
:1030B800012804D0022800D00DE72F4BA5E72F4B9D
:1030C800A3E700F00DFBF3E7230076331B78002B12
:1030D80000D000E7230078331B780F221900114035
:1030E8001342D6D05BB22000002B02DA00F0BCFB02
:1030F800CFE700F0A3FBCCE7230076331B78002B47
:1031080000D0E8E6230078331B780F22190011401D
:103118001342BED05BB22000002B02DA00F07CFB29
:10312800B7E700F065FBB4E714233370FFF790FDB1
:103138002B002A0000212000FFF730FEFFF78DFD4D
:10314800DAE6002D06D015233370FFF781FDE36E14
:10315800A26EEFE70B233370FFF77AFD2B002A00EE
:103168002900E9E60203000000FAFFFF020C000054
:10317800C2520008312C0008BE520008C052000894
:1031880070B50600643604003078002840D0063850
:10319800C3B20F2B34D80F2832D8FDF761F8393174
:1031A800310825323131313131313131393923006A
:1031B8007B331A78013B1B78E06E12021343984266
:1031C80012D2E368198AFDF7E5F80D1E0CD1FFF756
:1031D8003FFD2B002A0029002000FFF703FEFFF720
:1031E8003CFD0A2333700BE014233370FFF730FDE6
:1031F800002320001A001900FFF7D0FDFFF72DFD6E
:1032080070BD236F002B01D0200098470023E9E709
:103218000021200000F000FB0021200000F0E8FA67
:1032280063681B68002B02D00621200098470623FC
:10323800D8E770B5050064352B780400142B29D025
:1032480019D8062B06D002D8002B03D070BD093B35
:10325800022BFBD80021200000F0DEFA002120001C
:1032680000F0C6FA63681B68002B02D00621200014
:103278009847062318E0152BE8D10A3B2B70FFF777
:10328800E7FC002320001A001900FFF7ABFDFFF749
:10329800E4FCDBE7C3689B695B68002BD6D1036F4E
:1032A800002B00D0984700232B70CFE70B4B30B58D
:1032B8001B6D0B4CC0001B19C018038889181B19FB
:1032C80094B244808C1A002A00DC30BD60782578DE
:1032D800000228431880023A0233F3E7005C0040FA
:1032E800006000407346F0B5764C87B0059300F057
:1032F80007FC656C6B0504D5734B74486364FFF772
:1033080095FD2B0508D50823226C704813432364C8
:103318006F4B6364FFF7A6FDEB040BD5A36C1B048E
:1033280006D40822236C694893432364FFF7ABFD56
:10333800684B6364AB0507D564484368DB68002BBA
:1033480000D09847644B636480231B021D4206D15A
:1033580000F0ECFB059801F03DF807B0F0BD0F2632
:10336800584B2E40B500ED182B6858480293B31CF3
:103378009B00C3185B680193029B1B0626D52A682D
:103388005649019B0A4080215B6909020A432A6069
:10339800D9685A681F688A18BF1ABC461F685A60DD
:1033A80097422CD0019A128A624500D962469868E1
:1033B800DA6041189960F0B2FFF778FF2A68484B45
:1033C8001A4030235A40474B13432B608022029BFC
:1033D800120213425FD02B68404A1A4080231343DD
:1033E8002B60F3B20493029B1B0514D53748B31C1A
:1033F8009B00C3185B685B68049998474BE00122FF
:10340800B240038993430381019B9B68002BDDD065
:10341800F1B29847DAE7019B33489A69F10093685B
:103428000293236D1B185B18998809180391DB8890
:103438008C469B059B0D1900029801292DD8029FE7
:103448000399BC465808400009188444834202D0B6
:103458006046098801709168C91891605168C91857
:1034680051601168C91A11609189013989B2918135
:10347800019A528A9A4201D8002918D10122B240F1
:103488001248438993434381B31C9B00C3185B686C
:10349800DB68002BB0D1656C56E767463F88023978
:1034A80007703F0A477002270230BC44C5E72A6804
:1034B8000E4B1A40C0239B015A400A4B13432B6002
:1034C800E9E7C046005C0040FFFBFFFFE42A00205C
:1034D800FFF7FFFFFFEFFFFFFFFDFFFF0F07FFFFF6
:1034E800BF87FFFF80800000006000408FB7FFFFAC
:1034F80010B50248FFF7BAFB10BDC046E42A002009
:10350800037810B5012B0ED0074B98420BD11F2022
:1035180000F0E2F90322054B05491A64054BDA6904
:103528000A40DA61DB6910BDE42A0020005C004033
:10353800FFFF7FFF0010024080227E300378134394
:10354800014AD3647047C046005C00408B1C9B0056
:10355800C318F7B55C68032322681340032B56D0C1
:103568005A4253415B022E4A2E4E126DCD009219DB
:10357800AD186269002A13D00700002208376A8054
:10358800FA6F0192228A0132160001229643320014
:10359800019E9219FA676A46968820222E80134364
:1035A800A269002A18D0648A661E3E2C32D91F22CE
:1035B80032430132521196021B4A3243012692B21B
:1035C8000830EA800134C26FB443A41892B2C467C9
:1035D800AA8080229201134311488A001218802081
:1035E8001468C001044200D0034340201468044218
:1035F80000D003430D48194301400D480D4C0143C9
:103608001160116823404B4003431360F7BDC0238A
:10361800DB00A8E701223243013252109202CDE7C3
:10362800005C0040006000400080FFFF0F07FFFFC4
:103638008080000070780000002180230B4A10B5BC
:1036480011655164D3644368DB685C4263419E241E
:103658005B4224025B021B191364030040220833F7
:10366800DA67034BC360FFF771FF10BD005C0040D1
:10367800C4520008017870B50400012914D10B4B1D
:1036880098420ED180220A4B1204D869094D024390
:10369800DA61DB691F202964023100F0FDF800239C
:1036A8002B642000FFF7C8FF70BDC046E42A002045
:1036B80000100240005C0040402301220830C3672C
:1036C8000548064993005B181968013201431960DF
:1036D8001860082AF5D1704780800000005C00401F
:1036E800084B8900C958C0220B00920113401800EA
:1036F800114205D0044A9B181800431E9841013016
:103708007047C046005C004000F0FFFF074B89008F
:10371800C95830220B0013401800114204D0103B46
:103728001800431E984101307047C046005C0040B5
:10373800084B09481B6DC9001B18C9188B881B1832
:103748001000083019880233118002329042F9D1F2
:103758007047C046005C0040006000408B1C9B0026
:10376800C018426870B595690C00286801230028C4
:1037780005D0518A40180138FCF786FD83B2AB8129
:10378800064BA400E4182268054B1A40C0239B018D
:103798005A40044B1343236070BDC046005C004090
:1037A8008FB7FFFF808000008B1C9B0010B5C018EE
:1037B80042680C005369128A19688A4200D90A00C3
:1037C80020009968DA60FFF771FD064BA400E41841
:1037D8002268054B1A4030235A40044B1343236098
:1037E80010BDC046005C0040BF87FFFF808000001E
:1037F800064B8900C9180A68054B1A4080235B01EB
:103808005A40044B13430B607047C046005C0040AD
:103818008FB7FFFF80800000054B8900C9180A6830
:10382800044B1A4010235A40034B13430B60704754
:10383800005C0040BF87FFFF80800000C022074B6C
:103848008900C9180B6892011340934205D00B6890
:10385800034A1A40034B13430B607047005C004057
:10386800BF87FFFF80A000003022084B8900C918DD
:103878000B681340934207D00A68054B1A4020236F
:103888005A40044B13430B607047C046005C00402D
:10389800BF87FFFF808000000322F0B5FF26C02508
:1038A8000240D2009640890191400A4F83089B004C
:1038B800DB19AD005C591F22B4430C435C51012352
:1038C80002409340C02240098000C0195200835032
:1038D8000360F0BD00E100E01F23012203409A408D
:1038E80030B543090B4C0C4D9B0019195B19DA676D
:1038F800C0235B00CA5003218308084088409B000E
:103908001B19C024FC318140A4001A598A431A515A
:1039180030BDC04600E100E004E100E000230122E0
:103928000848094910B5036043604C6810312360AA
:10393800D40001320351082AF7D1044B093A5A60DE
:1039480010BDC046B8170020F85200080000024019
:10395800F0B585B0040002910092039300F0FCF8E2
:10396800062C0AD801221700A7401E4B19683942B5
:1039780007D00025280005B0F0BD1B4800F020FB4B
:10398800F7E71A4E20010190351801340098E40039
:1039980039431960E050164903981C19606048695A
:1039A80002434A614A69009A002A0BD05B68AA68F8
:1039B8001A4203D1E87B0299FFF76EFF094B5A6858
:1039C80017435F600F20019BF1184B68497B1A6809
:1039D80082431A60019AB0580E228A40426000223F
:1039E8001A60C7E7B8170020E8520008F852000824
:1039F80000100240F8B504000D0016001F0072B652
:103A080000F038F83B00320029002000FFF7A0FF43
:103A1800040000F03FF862B62000F8BD10B5026857
:103A2800447B11680E23E140194043681B68194222
:103A38000CD0837B0800A04001335060044ADB00AF
:103A48009C58002C02D0D3185868A04710BDC04617
:103A5800B817002010B5744600F052F80448FFF774
:103A6800DDFF00F063F8200000F0B4FC10BDC04694
:103A7800F852000810B5054C636DA26D134302D0CF
:103A8800034800F09DFA0123A36510BD742B0020A4
:103A98006853000810B5064C636D002B02D1A36D66
:103AA800002B02DC034800F08BFA0023A36510BD4D
:103AB800742B00206D53000810B5064C636D002B65
:103AC80002DDA36D002B02D0034800F079FA012330
:103AD800A36510BD742B00207253000810B5064C66
:103AE800636D002B02DDA36D002B02DC034800F0A0
:103AF80067FA0023A36510BD742B002077530008D4
:103B080010B572B6074C636D002B02DBA36D002B5A
:103B180002D0054800F054FA636D0133636562B65C
:103B280010BDC046742B00207C53000810B572B637
:103B3800074C636D002B02DDA36D002B02D00548F6
:103B480000F03EFA636D013B636562B610BDC04686
:103B5800742B002081530008054B10B55A6D002ABC
:103B680002DB9B6D002B02DC024800F029FA10BD35
:103B7800742B002086530008054B10B55A6D002A97
:103B880002D19B6D002B02DC024800F019FA10BD2F
:103B9800742B00208C53000810B572B6FFF76AFF2B
:103BA80010BD10B5FFF776FF62B610BD70B5040002
:103BB8000D00FFF7D1FF002C02D10C4800F000FAED
:103BC800216A237E294321620A2B03D1E3690B4230
:103BD80006D170BD0B2BFCD1E36919408B42F8D19B
:103BE80000232000E36100F0C9F8F2E792530008CF
:103BF8000B4B70B5DE680400FFF7CEFF336A1D007B
:103C08002540234205D10A20F46100F0C7F8356A3F
:103C18002540336AAB433362FFF7C3FF280070BD0A
:103C2800742B0020F8B50F4B0400DE680F00FFF777
:103C3800B3FF336A1D00254023420ED1002F03D164
:103C4800FFF7AFFF2800F8BD39000A20F46100F043
:103C5800C5F80028F4DB356A2540336AAB43336284
:103C6800EEE7C046742B0020FEE70000F0B5002503
:103C78000400194B89B0056281620E00586000F09B
:103C88009FFB230010332361636101230127210077
:103C98005B42124AA3612C31200024606460A56055
:103CA8006562E56125656565A765813300F0B2F950
:103CB8007368E06043610A4B07760293F36802A8D1
:103CC80003933369059701930493064B079506936D
:103CD80000F0E6F909B0F0BD6C2B00209F530008F6
:103CE800A4530008713C0008024B5A6A10435862FA
:103CF8007047C046742B002000238268037603694E
:103D08001B6899689142FBD25A6803604260106050
:103D18005860704700238268037603691B689968B6
:103D28009142FBD85A68036042601060586070473F
:103D380070B50C0072B6FFF7BFFE207E052807D8C5
:103D4800FCF78EFA0C06060316100022E3691A60C7
:103D580001235B422000E361FFF7CEFFFFF7BEFEC1
:103D680062B670BDE569FFF7F7FEAB680133AB607B
:103D78006268236813605A60EAE7000010B504001F
:103D8800FFF7EAFE002C02D1034800F019F92000E1
:103D9800FFF7B2FF10BDC046B853000870B5050064
:103DA8000C4CE668FFF7E8FE357625682B685C6002
:103DB80023600123E5602B76EFF309837269243BC6
:103DC8009A4202D9044800F0FBF831002800FCF7B9
:103DD800AFF970BD742B0020A953000870B50D0011
:103DE8000F4B86B0DE680400FFF7C6FE6B1C13D0CD
:103DF800330029000B4A684600F026FA2000FFF736
:103E0800CDFFFFF7A9FE009B002B02D0684600F00B
:103E180037FAF06906B070BD2000FFF7BFFFF8E77A
:103E2800742B0020393D0008F8B504000D00114E30
:103E3800F768FFF7A1FEA368BA68E561934203D863
:103E48002000FFF759FFF8BD3800FFF763FF012393
:103E580005002376F460EFF309834269243B9A4214
:103E680002D9054800F0ACF829002000FCF760F9F9
:103E7800E9E7C046742B0020A9530008044BDA6810
:103E8800196890688B689842804140427047C046E4
:103E9800742B00200D4B70B51C68D86822685360DD
:103EA8001A6001222276DC60FFF734FF0500EFF389
:103EB80009834269243B9A4202D9054800F080F8F8
:103EC80029002000FCF734F970BDC046742B00208F
:103ED800A953000870B5064CE568FFF74DFE236846
:103EE8009A68AB689A4201D9FFF7D4FF70BDC04603
:103EF800742B002070B504000D00002801D00029A3
:103F080002DA034800F05CF8A5602460646070BDC4
:103F1800C453000870B504000D00FFF72DFE002CF7
:103F280002D10D4800F04CF80020A3685A1EA26088
:103F3800824203DA854202D1A360013870BD074B83
:103F48006268DB682900DC611C605A600520136028
:103F58006360FFF743FFF1E7D4530008742B002098
:103F680010B50400FFF7F8FD002C02D1084800F056
:103F780027F8A3680133A360002B07DC20680368D7
:103F880023605C600023C361FFF7F8FE10BDC046E4
:103F9800E6530008012310B5064C07492370002397
:103FA80006486360FFF762FE02232370FFF772FD85
:103FB80062B610BD6C2B0020F8530008742B00204B
:103FC80072B60322024B1865024B1A70FEE7C04610
:103FD800742B00206C2B002010B5FFF7BDFD00F0FE
:103FE8008DF910BD10B572B6FFF744FD10BD10B5C0
:103FF800FFF750FD62B610BD10B5041E02D104488B
:10400800FFF7DEFF21000820FFF7E8FE10BDC046DD
:104018000C5400088B6002230B83002308610800FE
:104028000B62704710B50400FFF796FD002C02D113
:104038001848FFF7C5FF072162680A4207D1A3683D
:104048000B4204D19A4202D29B1AA72B02D81148DC
:10405800FFF7B6FFE368FF2B02D82369002B02D1D4
:104068000C48FFF7ADFFA368626818002838426162
:1040780022694C3BC3601A6162695A61064A1A6236
:10408800E368064A836002230376002302614376CD
:10409800036210BD1854000859010008742B002051
:1040A80010B5FFF7BFFFFFF769FE10BDF8B50500B3
:1040B8000C0016001F00002809D0A72907D9030003
:1040C8000B435B0703D1FF2A01D8002F02D10F4809
:1040D800FFF776FF283C2C19FFF784FF2300069A88
:1040E800243B6561E3605A61094A1F611A62022331
:1040F80000212383074B2000A66023612162FFF77C
:1041080093FEFFF774FF2000F8BDC0462E54000848
:1041180059010008742B002010B5034BDB68D861E7
:104128000F20FFF73BFE10BD742B002010B50400D4
:10413800FFF758FF2000FFF7EFFF10BD10B5040090
:10414800FFF750FF2000FFF757FFFFF750FF10BDA4
:1041580010B503689C68A2420CD85C688A600B6042
:104168004C602160596099688A1A9A6001235B4201
:10417800836010BD1B68121BECE770B504000D00CE
:10418800022900D2022502266019FEF7FCFCFEF780
:10419800E9FC041BA54203D8013635000400F3E707
:1041A800022E02D90120FFF79FFD70BD114B70B59B
:1041B800D96114008260104A0D0042601A690260D9
:1041C80050601861022C00D202242819FEF7CEFC98
:1041D8000226FEF7C7FC401B844204D80136A81902
:1041E800FEF7D1FCF5E7022E02D90120FFF77CFD8E
:1041F80070BDC046742B0020842B0020F8B5050044
:104208000C00FEF7AFFC0E4B0E4F1A69BA4205D1EF
:10421800010022002800FFF7C9FFF8BDDB69C31AB7
:10422800E618B34200D926009368B34202D92100A8
:10423800FFF7A3FF320029003800FFF789FFECE7FA
:10424800742B0020842B0020F8B504000D00160004
:104258001F00FFF781FC002C03D0002E01D0002D99
:1042680002D10648FFF7ACFE002329002761E6606B
:1042780020006361FFF7C2FFF8BDC0464054000844
:1042880070B50400FFF768FC002C02D11848FFF74E
:1042980097FE184D2B699C420CD023686268A16870
:1042A80013605A609A6852189A6000232360013B91
:1042B800AB6170BD2368104A2B615A6000232360EC
:1042C8002B69934202D1FEF759FCF2E79968A2687C
:1042D8008A189A60FEF746FC2B69E9699B68421ABE
:1042E8009342E6D9C918091AFFF747FFE1E7C04624
:1042F8004B540008742B0020842B0020F7B5FFF7DF
:104308002BFC294D2C69FEF72DFCEA69A168274F83
:10431800831A99423FD85318EB6162680193236866
:1043280013605A60002323602B69BB4201D1FEF75A
:1043380025FCFFF7D3FB62B620002169E3689847A4
:1043480072B6FFF7B9FB6369002BDAD0FEF70AFCF7
:10435800019B6269C31A060000939A420BD202209D
:10436800FFF7C2FC00222B69BB4208D131002000B4
:10437800FFF71CFFF7BD019B121AD218F3E7009B49
:104388000099D318994200D913001A002100380067
:10439800FFF7DEFEB5E72B69BB42EBD05118091ACF
:1043A800FFF7EBFEE6E7C046742B0020842B0020C5
:1043B800EFF30983203383F3098862B6704700005E
:1043C800024A0349136A0B401362704700ED00E08C
:1043D800FFFF00FF10B50F300FD072B6EFF309845E
:1043E800203C84F3098880235B04E361FFF746FDE2
:1043F800024B002800D1024BA36110BD6B010008DD
:1044080076010008704700000748022905D00020FF
:10441800032903D0012900D104487047032AFCD896
:104428000348D2008018F8E798540008C0540008E0
:10443800DC540008030010B508000449D2025B18D8
:10444800D90200F051FC002010BDC0462000010038
:10445800F7B5234B0191C0181700C40272B6FFF7D5
:1044680009FBFDF7F3FAFDF7E5FAFFF713FB62B670
:10447800FDF7B8FA0026F5022D19BE4219D028001A
:10448800FDF7F2FA002812D029001648FDF7C2FEFF
:10449800E1204000FFF752FE012472B6FFF7EAFA66
:1044A800FDF7D4FAFFF7F6FA62B62000FEBD013632
:1044B800E1E72600AE420DD0019B30001B1B995945
:1044C800FDF7F0FA002803D00748FDF7A3FEDFE761
:1044D8000436EFE70548FDF78BFA0024DDE7C04610
:1044E80020000100FC540008115500089411000038
:1044F8000300743319780200A12910D159780020DB
:10450800FE290BD19979DB791B020B43012B05D1CD
:104518000A491067087018009166D3667047002032
:104528002129FBD15A78FF2AF8D1D8799A79000243
:10453800104343425841C0B2F0E7C046E828002083
:1045480037B50400012905D0022907D028480029D9
:1045580001D037BD2748FDF773FEFAE772B6FFF7BB
:10456800ABFA254D20002A000121FEF7D3FB2A00D3
:1045780020000121FEF7CEFB0122204B1A700623F2
:104588006A465371FFF7E8FA1D4C2500AC352B68D5
:10459800002B22DDFFF7E0FA21002B689431013B64
:1045A8002B600B6800221800083008601A705A70D7
:1045B8009A70DA706A4612791A716A4652795A7193
:1045C8006A4692799A716A46D279DA710D4B9842A5
:1045D80000D30C600C48FFF7C3FC80210B4BC900CB
:1045E8001868FFF7E3FAFFF779FA62B6B1E7C04651
:1045F8005055000858550008E85500081C080020C8
:1046080010090020A0090020A8090020EC2800209B
:1046180070B5224C0500637CA27C0E00207DE17CF5
:10462800FDF7B7FA2860A17DE07DFDF7AFFA2968AC
:1046380002000B183080202B11D91948FDF7EAFD2C
:104648000F21184B01249A788A43110005220A4346
:104658009A7021221A7300225A73200070BD617A61
:10466800237A09021943A37AC2021B041943E37A85
:1046780000241B060B439342EFD00B48FDF7CAFDFD
:104688000F21084B9A785C738A43110005220A436C
:104698009A70202201341A73DFE7C046F028002000
:1046A80061550008C52A00208055000810B572B66B
:1046B800FFF702FA8021044B09021868FFF776FA1F
:1046C800FFF70CFA62B610BDEC28002010B572B6E0
:1046D800FFF7F2F98021044B49021868FFF766FAE0
:1046E800FFF7FCF962B610BDEC28002013B5802155
:1046F800154A89025369C0200B4353619023DB0597
:104708001C68000420431860506901435161C022AD
:10471800196892040A437F211A600C4B0C481A78D6
:104728008A43110070220A431A700A22D421DA71CE
:104738000023763200934900064BFFF7B7FC064B7F
:104748001860FEF78FFA13BD00100240C52A00203A
:104758001029002025480008EC28002010B5094C35
:10476800094AA36D09481340A365FFF7E7FC084908
:104778000848FEF78BFA8023A26D1B021343A3653A
:1047880010BDC046005C0040FF7FFFFFDE03000055
:10479800D8550008E42A0020044A10B5936D04494E
:1047A80004480B409365FEF795FA10BD005C004085
:1047B800FF7FFFFFE42A002070B504000D0072B6E9
:1047C800FFF758F92B00220001210548FEF70AFBE4
:1047D800FFF760F962B601204042FFF709FA70BDA1
:1047E800E42A002070B504000D0072B6FFF742F904
:1047F8002B00220001210748FEF7D0FAFFF74AF9FB
:1048080062B6802004494002FFF70CFA434258413F
:10481800400070BDE42A002078690000F0B585B03A
:1048280001204042FFF7E4F98023DB00040018422E
:104838000BD072B6FFF71EF91F230121CE4ACF48CD
:10484800FEF7ACFAFFF726F962B6E303E8D5CA4CDF
:10485800E17B35290AD8192919D8C948032900D173
:10486800C0E0122900D193E0002933D0C548FDF7F4
:10487800D1FC0F21C24B9A788A43110005220A43C2
:104888009A7020221A7300225A730132D6E0080067
:104898001A381B28EAD80023FBF7ECFCC90164008E
:1048A800E8FFCC00D201E8FFE8FFE8FFE8FF0001DD
:1048B800E8FFAC00E8FFE8FF8A01E8FF1C01E8FF19
:1048C800E8FFE8FFE8FFD201E8FFE8FFE8FFE8FFBC
:1048D800E8FFD20155224225AB4B21721A70023AE9
:1048E8005A709D70DA70657922792D021543A27984
:1048F800617212041543E279A17212062A43150A5D
:104908001A715D71150C120EDA71A04A9D71157835
:10491800E172197259729972D972002D17D00F224B
:104928001973837801739343837041730D219648FB
:10493800FFF742FF72B6FFF79DF81F2322000121FF
:104948008E48FEF72BFAFFF7A5F862B668E7022251
:104958000F211A73837845738B431A433A23827065
:104968000373E3E70322E37C1340022B0BD10022FD
:10497800864B1A700F21824B9A788A439A700022CC
:104988001A735A735AE0032BF4D101227F4BF0E7D4
:10499800A17CE07CFDF7FAF8237C051CDB071AD51F
:1049A800072800D90725ADB229007948FFF704FF89
:1049B800637A217A1B020B43A17A09040B43E17A3B
:1049C80009061943491B0B0A217263720B0C090E65
:1049D800A372E172CEE7242800D92425ADB22900BC
:1049E8006C48E3E7E37C1D1C122B00D91225ADB2FD
:1049F8002900DBE71F220821674803704370837092
:104A0800C27003714371C3718171FFF7D5FE627A79
:104A1800237A12021A43A37A1B041A43E37A1B0669
:104A28001343083B1A0A62721A0C2372A2721B0EF5
:104A3800E3729FE75948FDF7EDFB06225521422511
:104A48000020514B1970023959709D70D9706579E1
:104A580021792D020D43A17909040D43E179090655
:104A680029430D0A19715D710D0C090E9D71D971DB
:104A7800824200D0E8E01A73617A227A090211436F
:104A8800A27A12041143E27A12060A43110A1A7230
:104A98005972110C120E9972DA7247E72021082216
:104AA8003F48C1711E3901720A31C27003714371E6
:104AB800837143728272C372FFF77EFE627A237A31
:104AC80012021A43A37A1B041A43E37A1B06134300
:104AD8000C3BA7E7227B7F2A0BD90F21284B9A781A
:104AE8008A43110005220A439A7020221A73012270
:104AF800A4E702AA961C310003A803933380FFF7AA
:104B080087FD0122002899D13588002D00D131E791
:104B18008023ED025B019D4200D91D002900214838
:104B2800EF0AFFF75FFE002803D01F48FDF772FB6E
:104B3800DDE73A001B490398FFF78AFC002801D0FB
:104B48001A48F3E7627A237A12021A43A37A1B04FB
:104B58001A43E37A1B0613435D1B2B0A63722B0C63
:104B6800A37233882572DB1B3380039B2D0EDB1960
:104B7800E5720393C8E7C046F0280020E42A002025
:104B8800C52A0020BD550008B82A00201C080020AE
:104B9800495500081D550008D41800208E550008F6
:104BA800DC180020E8180020A1550008AB550008C3
:104BB80002AA961C310003A803933380FFF728FD4F
:104BC8000122002800D039E73388002B00D1D1E634
:104BD8001D1C022B00D902251F4FADB2EB022A0083
:104BE800390003980193FFF725FC00281DD13800F0
:104BF8000199FFF7E1FD627A237A12021A43A37A38
:104C08001B041A43E37A1B061343019A9B1A1A0AD8
:104C1800237262721A0C1B0EE3723388A2725B1B3A
:104C28003380039B5D190395CEE70C487EE7E37C50
:104C38001D1C082B00D90825ADB229000848B5E687
:104C480023726372A372F3E6022218721A735872FF
:104C58009872D8726AE6C046E8180020B455000871
:104C68004155000810B500F035F810BD10B5041E08
:104C780000D10134200000F023F8002807D100F00B
:104C88000BF8002801D100F00DF88047F2E710BDBD
:104C980010B500F007F80000014B18687047C046CF
:104CA800D82A0020062010B500F026F9012000F0CF
:104CB80065F90000014B18687047C04620080020BD
:104CC80010B5034B0100186800F07CF810BDC04611
:104CD8002008002010B5034B0100186800F028F8E0
:104CE80010BDC04620080020002310B59A4200D10C
:104CF80010BDCC5CC4540133F8E710B5884202D922
:104D08008B18984203D3002307E08B5C8354013A45
:104D1800FBD210BDCC5CC45401339A42FAD1F8E7F7
:104D280003008218934200D1704719700133F9E7E4
:104D380070B50500002910D00C1F2368002B00DA7D
:104D4800E418280000F0FAF81D4A1368002B05D172
:104D580063601460280000F0F9F870BDA34208D918
:104D6800216860188342F3D118685B684118216094
:104D7800EEE71A005B68002B01D0A342F9D911684D
:104D88005018A0420BD120680918501811608342AE
:104D9800E0D118685B68411811605360DAE7A042F7
:104DA80002D90C232B60D5E721686018834203D110
:104DB80018685B684118216063605460CAE7C046A0
:104DC800DC2A0020F8B50323CD1C9D4308350600D6
:104DD8000C2D1FD20C25A9421ED8300000F0AEF8C9
:104DE80025490A681400002C1AD1244F3B68002B6F
:104DF80004D12100300000F043F838602900300069
:104E080000F03EF8431C2BD10C233000336000F037
:104E18009DF803E0002DDEDA0C2333600020F8BD96
:104E280023685B1B19D40B2B03D92360E418256076
:104E380003E06368A2420ED10B60300000F086F8F0
:104E4800200007220B30231D9043C21A9842E6D057
:104E58001B1AA350E3E75360EFE722006468C2E738
:104E68000323C41C9C43A042E1D0211A300000F067
:104E780007F8431CDBD1C7E7DC2A0020E02A002022
:104E8800002370B5064D040008002B60FCF78AFC6F
:104E9800431C03D12B68002B00D0236070BDC04693
:104EA800DC2B002070B504000D001F2904D916233F
:104EB80003600120404270BD436C002B04D08A007F
:104EC8009B181A68002A08D1200000F031F82A003F
:104ED8000100200000F01AF8EDE70020012AEAD0CE
:104EE800511C03D1162301302360E4E70024280075
:104EF8001C6090472000DEE710B5034B01001868DE
:104F0800FFF7D0FF10BDC04620080020002370B571
:104F1800064D0400080011002B6000F027F8431C20
:104F280003D12B68002B00D0236070BDDC2B002040
:104F380010B500F013F810BD7047704710B502485F
:104F4800FFF7FAFF10BDC046D42B002010B5024869
:104F5800FFF7F3FF10BDC046D42B002058220120D4
:104F6800014B40421A607047DC2B00205822012078
:0E4F7800014B40421A607047DC2B0020FEE720
:044F8800F8B5C04672
:044F8C00F8B5C0466E
:104F900000000048030000000300000000000000C3
:104FA00000000000110000000000000000000000F0
:104FB00001020304060708090000000001020304BF
:104FC00002000000020000000300000004000000D6
:104FD00005000000060000000800000009000000B5
:104FE0000A0000000C0000004F6B0D0A0050696EB3
:104FF00067004F666600436D64556E6B6E6F776E2B
:105000000D0A00202C0042746E0D0055534220639F
:105010006F6E6E6563740D004873693438204661A5
:10502000696C0D00487369204661696C0D00555329
:105030004220646973636F6E6E6563740D0055532F
:10504000422072656164790D003230323230343181
:10505000335F31303533004176616461000D255393
:105060002025530D00466C61736844757261746944
:105070006F6E5F6D7300536F756E64566F6C756DF8
:1050800065537461727400536F756E64566F6C75FE
:105090006D655265616479004D6F64654166746544
:1050A000724669726500537461727432526561644C
:1050B0007900526561647932507265737300507281
:1050C0006573733246697265004F666649664E6F56
:1050D0007446697265640000000000000000000072
:1050E000550D0008B9080008350800080000000048
:1050F0000100000001000000B400000000000000FA
:105100000000000001000000B400000000000000EA
:105110000100000001000000B400000000000000D9
:105120000000000001000000B400000000000000CA
:105130000100000001000000B400000000000000B9
:1051400000000000030000000000000076656374AA
:105150006F723A3A5F4D5F64656661756C745F614A
:105160007070656E64004144432063616C69622025
:105170006661696C0D000D486172644661756C74FE
:105180000D00414842467265713D25754D487A3B98
:1051900020415042467265713D25754D487A0D009B
:1051A0000000000000000000AD230008C126000838
:1051B000F52600087523000865220008612700080D
:1051C000D8F5FFFF00000000C9260008FD260008F2
:1051D000D4F5FFFF00000000952300085D230008C0
:1051E00019280008F8560008E02B0020E02B0020CA
:1051F000E02B0020F856000800000000000000002E
:1052000000000000F8560008000000000000000048
:1052100000000000F8560008000000000000000038
:1052200000000000F8560008000000000000000028
:1052300000000000F8560008000000000000000018
:1052400000000000F8560008000000000000000008
:1052500000000000F85600080000000000000000F8
:10526000000000007573625374617274007573629C
:1052700053746F7000757362496E6974456E647023
:105280006F696E74490075736244697361626C651D
:10529000456E64706F696E74734900757362537400
:1052A000617274526563656976654900757362530E
:1052B000746172745472616E736D69744900000098
:1052C0000100000000000000A92E0008893100083C
:1052D0003B32000840004000A0170020A01700202B
:1052E00001000000B0170020646D615374726561A5
:1052F0006D416C6C6F634900000002400800024081
:105300000100000000000009000002401C000240F3
:10531000060000000004010A0000024030000240C4
:10532000060000000008020A00000240440002409B
:1053300078000000000C030B0000024058000240FF
:10534000780000000010040B000002406C000240D6
:10535000780000000014050B0000024080000240AD
:10536000780000000018060B5356233400535623D0
:1053700035005356233600535623370053562338EF
:1053800000535623390053562331300053562331EE
:10539000310063684576745369676E616C49006DCE
:1053A00061696E0069646C6500737461636B206F82
:1053B000766572666C6F77006368536368526561E7
:1053C00064794900636853656D4F626A6563744927
:1053D0006E697400636853656D5761697454696DD3
:1053E000656F75745300636853656D5369676E61CB
:1053F0006C49006330000000F353000800040020F3
:1054000000080020F8170020B018002063685468D6
:1054100064536C65657053006368546864437265D7
:1054200061746553757370656E6465644900636883
:105430005468644372656174655374617469630090
:1054400063685654446F5365744900636856544406
:105450006F52657365744900060309000400140364
:105460005700610072005300610062006500720025
:1054700073001A034D006100730073002000730075
:1054800074006F0072006100670065000C0301008A
:10549000020003000400050020000000A0540008E2
:1054A0000902200001010080320904000002080600
:1054B000500007050102400000070581024000007E
:1054C00012000000C8540008120110010000004042
:1054D000BB211200010001020301000006000000D0
:1054E00058540008140000005E5400081A00000020
:1054F000725400080C0000008C5400080D506167C5
:1055000065202558204572617365206661696C0DC0
:10551000005772697465204661696C0D0000800453
:10552000021F00000057617253616265724D617322
:105530007353746F726167652020202020303030F3
:105540003200000000000000000000000300808323
:105550005573625273740D00557362416464720D29
:10556000004F7574204F662052616E67653A204186
:105570006464722025752C204C656E2025750D0005
:1055800057726F6E67206C656E6774680D00436DAF
:105590006453656E64446961676E6F737469630D0B
:1055A00000526376206661696C0D00577220666157
:1055B000696C0D005264206661696C0D004D5343A7
:1055C0006D64202558206E6F7420737570706F7233
:1055D0007465640D0000000049450008114400088E
:1055E000F944000800000000020000000000000074
:1055F000B5460008D546000840004000B418002019
:10560000C41800200200000000000000000000009C
:10561000000000000000000000000000000000008A
:10562000000000000000000000000000000000007A
:10563000000000000000000000000000000000006A
:10564000000000000000000000000000000000005A
:10565000000000000000000000000000000000004A
:0C5660000000000000000000000000003E
:08566C00CCADFF7F010000003E
:1056740005000000100000005908000800000000A8
:105684000000000000000000E02B002001000000EA
:1056940024080020000000002C5600084C56000886
:1056A4000C5600080000000000000000000000008C
:1056B40000000000000000000000000000000000E6
:1056C40000000000000000000000000000000000D6
:1056D40000000000000000000000000000000000C6
:1056E40000000000000000000000000000000000B6
:0456F40000000000B2
:0400000508000131BD
:00000001FF
