:020000040800F2
:10000000000400202D010008C13A00080D16000868
:100010002F0100082F0100082F0100082F01000800
:100020002F0100082F0100082F0100082F010008F0
:100030002F0100082F0100082F0100082F010008E0
:100040002F0100082F0100082F0100082F010008D0
:100050002F0100081D16000851160008851600081B
:100060002F010008353200080D240008352400084F
:100070002F0100082F0100082F0100088525000826
:100080002F0100082F0100082F0100082F01000890
:100090002F0100082F0100082F0100082F01000880
:1000A0002F0100082F0100082F0100087D1E000805
:1000B000C11E0008051F00082F010008852B00083D
:1000C0000D0100080D060008550B0008D10D0008B1
:1000D000DD11000815190008E5000008A90C00084A
:0400E0000D120008F5
:1000E40010B5064C2378002B07D1054B002B02D00A
:1000F400044800E000BF0123237010BD80080020E5
:100104000000000064440008044B10B5002B03D029
:100114000349044800E000BF10BDC04600000000D1
:1001240084080020644400082AE000F000F8FEE798
:10013400F0B544464D4656465F46F0B46B46CB6038
:10014400C3689D46F0BCA046A946B246BB46F0BD76
:1001540003F08EF862B6281CA047002003F06CFB65
:10016400FEE703F075F803F01BFA03F081F8024A86
:10017400024B1360FEE7C04604ED00E0000000807F
:1001840072B6244880F30888234880F30988022043
:1001940080F31488BFF36F8F02F008F901F0A6FB17
:1001A4001E481F491B4A914202DA08600431FAE7EB
:1001B4001C49194A914202DA08600431FAE71A49E3
:1001C4001A4A1B4B9A4204DA08681060043104325C
:1001D400F8E700201749184A914202DA086004310E
:1001E400FAE702F0E7F802F0E2F8144C144DAC42DE
:1001F40003DA216888470434F9E700F03DFB114C29
:10020400114DAC4203DA216888470434F9E70F49F9
:1002140008470000000400200008002055555555EB
:1002240000000020000400206444000800080020AE
:100234007C08002080080020E0180020C00000088E
:10024400D8000008D8000008E4000008B52300081E
:100254000023C25C0133002AFBD1581E7047000002
:1002640002B4714649084900095C49008E4402BC45
:100274007047C046002243088B4274D303098B4263
:100284005FD3030A8B4244D3030B8B4228D3030C62
:100294008B420DD3FF22090212BA030C8B4202D304
:1002A4001212090265D0030B8B4219D300E0090A2C
:1002B400C30B8B4201D3CB03C01A5241830B8B4235
:1002C40001D38B03C01A5241430B8B4201D34B031E
:1002D400C01A5241030B8B4201D30B03C01A524183
:1002E400C30A8B4201D3CB02C01A5241830A8B4208
:1002F40001D38B02C01A5241430A8B4201D34B02F1
:10030400C01A5241030A8B4201D30B02C01A524154
:10031400CDD2C3098B4201D3CB01C01A5241830908
:100324008B4201D38B01C01A524143098B4201D342
:100334004B01C01A524103098B4201D30B01C01A6D
:100344005241C3088B4201D3CB00C01A52418308E7
:100354008B4201D38B00C01A524143088B4201D314
:100364004B00C01A5241411A00D201465241104674
:100374007047FFE701B5002000F006F802BDC04653
:100384000029F7D076E770477047C046002B11D19B
:10039400002A0FD1002900D1002802D00021C9432E
:1003A400081C07B4024802A14018029003BDC046CD
:1003B400D9FFFFFF03B4684601B5029800F02EF898
:1003C400019B9E4602B00CBC7047C046F0B51504B4
:1003D4002D0C0F0001002E00C64684460004140CA8
:1003E400000C090C46434D43604361434019340CEF
:1003F400241800B5A54203D9802040028046414418
:10040400250C6D18614659437A4330044919240474
:10041400000C2018891880BCB846F0BDF0B55746CA
:100424004E464546DE46E0B504000D009246994628
:1004340083B08B4230D82DD04946504600F0D8F8CE
:1004440029000600200000F0D3F8331A9846203B18
:100454009B4633D45A465346934042461F00534664
:1004640093401E00AF423AD8AF4200D178E05B46D9
:10047400A41BBD41002B00DA75E00022002300928A
:10048400019301235A46934001930123424693402A
:10049400009328E08242CFD90022002300920193E6
:1004A4000C9B002B01D01C605D600098019903B087
:1004B400F0BCBB46B246A946A046F0BD4246202346
:1004C4009B1A5246DA40414613004A468A401700B6
:1004D40042461F43534693401E00AF42C4D90022F4
:1004E4000023009201934346002BD9D0FB077208E6
:1004F4001A4346467B080EE0AB4201D1A2420CD817
:10050400A41A9D41012024196D410021013E2418A3
:100514004D41002E06D0AB42EED9013E24196D4167
:10052400002EF8D1009801995B4600196941002B0F
:1005340024DB2B005A464446D3402A00E2401C00E8
:100544005B461500002B2ADB26009E403300260064
:100554004746BE403200801A9941009001919FE7BE
:10056400A342BCD883E74246202300219B1A0022E1
:10057400009101920122DA40019286E7424620234B
:100584009B1A2A0046469A402300F34044461343EC
:100594002A00E2401C005B461500002BD4DA4246D8
:1005A4002F002023260097409B1ADE403B00334354
:1005B400CDE7C0461C2101231B04984201D3000C43
:1005C40010391B0A984201D3000A08391B099842C2
:1005D40001D30009043902A2105C40187047C046D8
:1005E40004030202010101010000000000000000F8
:1005F40010B5002903D1FFF7DDFF203002E0081C0D
:10060400FFF7D8FF10BDC046074B084A08499A6156
:100614005A620122D96106219A6200221984273183
:100624009A8519639A8670479C080020000400404C
:1006340000080048012210B5036A818E046B8A40C9
:100644005968C9B2002904D1A262083303620020A8
:1006540010BDA261F9E700008023034ADB01516960
:100664004B4053617047C046000400480123818E0B
:10067400026B8B409362704710B5036801491B6895
:10068400984710BD9C3F000873B50600FC36040073
:100694001E49B06901F042F9002803D12000FFF798
:1006A400EBFF73BD1A49B06901F038F9051E12D188
:1006B400621D1849FF3201F04BF90028EED02A00E0
:1006C40001A903F01DFC019B80B21B78002BE5D12E
:1006D400114B9860E2E71149B06901F01FF9002855
:1006E400F6D00F49B06901F019F9002807D10D4B74
:1006F4000D489968DA681B6801F052FAD1E723685B
:1007040020001B6809499847CBE7C046A13F000871
:10071400A63F0008A93F000800740040AC3F000851
:10072400B03F000800240140B43F0008D23F000855
:10073400F0B589B0002306AE7371069372B602F069
:1007440087FD01214348494202F06AFF002824D171
:1007540041490A009032136818005D781F789C782C
:100764002D0224042F432743DC78083024063C431D
:10077400106006945C791F79240227439C79DB7905
:1007840024043C431B0623437360904200D311604E
:10079400324802F06BFF02F023FF02F069FD62B6FB
:1007A4007379012B21D10393346804ABDD1D290037
:1007B400200001F063FC0028BCD1294B294AE3182E
:1007C40001935B7A2F78A518002B15D00023019A8A
:1007D4005372AB6001F07EFEAB682861082F15D11F
:1007E400002BE2D0013BAB60DFE7042BA2D13178D0
:1007F4001D4801F0D5F99DE72B69029301F06AFECB
:10080400029BC21A194B9A42E0D8E3E70D2F01D09C
:100814000A2F16D1002BC8D0A3210022E318090106
:100824005A54B3231B01E2186018114901F090F8DF
:10083400019B039A68615A720E4BE018FFF724FF7C
:10084400B2E7FE2BB1D85A1CAA60A322E318120106
:100854009F54AAE770090020D80800207C090020D2
:100864002F0B00002C0B0000DF3F0008DE0300000C
:10087400A93F00082C0A000070B53E4C0022082154
:10088400200001F00BF8200000F076FF01F0B4FD29
:1008940002F006FF384B12211A00903213601A003E
:1008A40036489432136002F0ABFE0021344802F063
:1008B400A7FE344801F08AFC334A3449344801F035
:1008C4006FF9200000F0FAFF00F056FA8023314C53
:1008D400DB026269304813436361304B304D1A6860
:1008E40002401A6080221968520511431960596840
:1008F4002940596059682B4D5960D9680140D96025
:10090400D968D960996801409960996828000A43B8
:100914009A6000F0DBFD2800234900F0ABFF234A76
:100924002349936A92695B189B00D31800225A6387
:10093400802361699B020B4390216361C023C90535
:1009440008689B0003430B608023E1699B050B430C
:100954000121E361E369174B174C19602000174923
:100964009A6000F081FBFA212000890000F0DCFA93
:10097400FFF7DEFE98160020D80800207C0900202E
:1009840070090020C0090020E73F0008F53F000877
:10099400FB3F000800100240FFFFFFCF00040048A7
:1009A400FFBFFFFFB408002000093D009C080020A1
:1009B400FFFFFF3F0074004068160020000800207D
:1009C40070B504002600AC360D0002F0B3FC3368A9
:1009D4000220002B37DD02F0ADFC21003368943196
:1009E4000A68013B3360130008330B6068782B7886
:1009F40000021843AB781B041843EB781B0603432F
:100A0400180A13705070180C1B0E9070D37068790C
:100A14002B7900021843AB791B041843EB791B06AE
:100A24000343180A13715071180C1B0ED371230061
:100A340090710A6890339A4200D30C602000983079
:100A440002F014FE002070BD70B5002304000F4AAC
:100A540008000021FFF7BAFC00230D4A251D801869
:100A64005941FA2200239200FFF790FC060002F09D
:100A740061FC6368002B02D0280002F087FF31007C
:100A840028002300034A02F065FF70BD1027000010
:100A9400E7030000ED12000870B5040002F04AFC00
:100AA4006368002B07D002F045FC6368002B02D07A
:100AB400201D02F06BFF01256D42236A187804287B
:100AC400FDD8FFF7CDFB030A13243200236820006E
:100AD4009B6898470128F0D170BD59680833236298
:100AE4000029EAD02000FFF7AFFFF5E75B68E26971
:100AF400DB00D318236223002D331B78002B04D092
:100B0400210012482831FFF75BFF0121EAE72300A7
:100B14002D331B78002B04D021000C482831FFF71B
:100B24004FFF0023E3612362D6E7626A013201D1F9
:100B34005A686262626A002A03D1083365622362DA
:100B4400BBE7E369013A23626262B6E7D808002092
:100B54003E4B70B51A00903213601A000020002139
:100B64009432186059601360E123394A5B021360C0
:100B7400384B092153609023DB05936013610A23EA
:100B84009382083BD3619033136285235B015362E4
:100B94001300033028331870812000242E4B9181D8
:100BA4000839DA6091612D4A00011A502C485C60C2
:100BB4001A502C4A9C6099542B4A86B09C5004329B
:100BC4009C502A4A9C50B32212019C50284A9C50A3
:100BD400284A9C50284A9C5408329C50274A284949
:100BE4001A60284A284D99502849294A281D9950A5
:100BF4002100202202F0EAFF01235B426B622B00FA
:100C04002D331C70234BAC622B630E23AB862B005D
:100C140036331C70204B2B606D462A001F4B43CB90
:100C240043C243CB43C21E4E1820B460F460346107
:100C340002F073FF0400183418222900B0603461F4
:100C440002F0A8FFF46006B070BDC046D8080020CA
:100C54000415002000380140C0090020D0090020FC
:100C640014080000180800001C08000024080000F4
:100C74003C0B0000340B0000380B000074400008EB
:100C840094400008280A000088090020A4400008B5
:100C94002C0A0000000400480C4000086C3F0008C7
:100CA40000080020034B10B59868002801D002F01A
:100CB40030FF10BD00080020F8B5012404252700EA
:100CC400104911480B688A6889881E698F40037827
:100CD4003E4210D0012B01D0042B0AD10323037010
:100CE400002A01D021009047B420800002F0ACFD1E
:100CF400E5E70223F3E7023B012B01D80570EFE798
:100D04000470EDE758160020641600209023DB05DC
:100D1400984206D18023134A9B0251690B435361C5
:100D24007047114B984204D180230E4ADB0251696B
:100D3400F4E70E4B984204D180230A4A1B035169FD
:100D4400ECE70B4B984204D18023064A5B035169BC
:100D5400E4E7084B9842E3D18023024ADB0351695C
:100D6400DCE7C046001002400004004800080048C8
:100D7400000C00480014004873B5104B1C689E79A1
:100D840020009D88FFF7C2FF03236D00EDB2AB4046
:100D9400AE40226894219A432260E26849009A4353
:100DA400E260E368064A1E430023E66013700548C8
:100DB40000938022044B02F0FFFC73BD5816002000
:100DC4006416002030150020BD0C00089022054B4D
:100DD400D2051A6000229A8002329A71024A9A60FD
:100DE4007047C046581600202D1200081022084BE8
:100DF40099681143996099681142FCD1022299685B
:100E04000A439A60012299681142FCD17047C04696
:100E140000240140020070B50F2502CA4B681C680B
:100E2400AC431C604D7B0C680E21A940616001003D
:100E3400C4691031944218D1C1610462020028329D
:100E44001278002A0CD0C26911685268D960521A0B
:100E540052105A60064A1A60012219680A431A603D
:100E6400436A002B00D0984770BDC2610162E5E778
:100E74008225000010B572B602F00CFA0348FFF7A1
:100E8400C9FF02F019FA62B610BDC0466816002008
:100E94008023034ADB0311680B4313607047C04689
:100EA4000827014037B51C4C0500A368DB0701D5B2
:100EB400FFF79CFF8023A2681B061343A360A3686B
:100EC400002BFCDB00230193019B622B03D8C0465B
:100ED400019B0133F7E7012322681A432260A268C9
:100EE4001A43A26022681A42FCD0E2680B490A4005
:100EF400E260E2680A490A40E969E26008682A682F
:100F040049685268091A4910D06051600549116056
:100F140011680B43136037BD00240140FFDFFFFF5E
:100F2400FFF3FFFF8225000070B50E000400FFF7F9
:100F3400B9FF134B1349DA6801250A40DA60DA680D
:100F44002834DA608022D968D2000A43DA600422A5
:100F5400996825700C4C0A439A60200000F058FAF6
:100F64003100200000F072FC7021226853689BB2AB
:100F74008B4350390B43536013681D43156070BD98
:100F8400002401403FFEFFFF94160020F7B5060041
:100F94000C1E15D04368026827499F1A82687D1089
:100FA400D21A491B521094420BD819002200002077
:100FB400013A08800231002AFAD164001B197360D7
:100FC400F7BDA14202D21D4802F0B9FD2000AC4297
:100FD40000D228004019854203D88023DB059842BB
:100FE40000D3154843001800019302F096FD230036
:100FF40000220090C719013B3A800237002BFAD136
:1010040037687368DA1B002A07DD3900009802F09C
:10101400CAFD380002F07DFD01E0002FF9D1009AED
:10102400009B9446641964001C193360019B74602E
:101034006344B360C4E7C046FFFFFF3F18400008A5
:1010440010B503684468E21A5210914203D9891A10
:10105400FFF79CFF10BD9142FCD249005918A142F0
:10106400F8D04160F6E700008023F0B500270E00B9
:101074004C4C9B00E26885B01A430190E260E26840
:1010840049494A4D0A40E260E268A2690198134363
:10109400A361A3692F61FFF7FBFEB268F3689B1A93
:1010A400434A9B105A43019B1100181D0292FFF7FB
:1010B400C7FF019802991030FFF7C2FFAF62029B8D
:1010C4009F4240D00C227A43B3689A181368002BCD
:1010D40015D051688C469021C9058B4217D18021C7
:1010E40060698902014361611968032003916146C3
:1010F40089B249008840010003980843186001231D
:101104009268A96A93400B43AB620137D7E7294938
:101114008B4203D180216069C902E3E726498B42EF
:1011240003D1802160690903DCE724498B4203D1A0
:10113400802160694903D5E721498B42D4D18020BD
:101144006169C003CEE733686B6173680293029AE6
:10115400019B5A628023AA681B061343AB60194B98
:10116400AA68002A07DA013B002BF9D1164800F0DF
:1011740017FD05B0F0BD0123AA681A43AA602A68C6
:101184001A42FCD00023114A1800092102F020F869
:10119400019B0F4A186043689A600E4A1A60032341
:1011A400EB60E6E700100240FFFDFFFF0024014072
:1011B400ABAAAAAA0004004800080048000C004892
:1011C4000014004819F6000032400008790E0008A7
:1011D4004024014082250000084B0022191DD961DA
:1011E400190010315A609A60DA601A615A619A6182
:1011F4005A621962024A034B1A607047681600204B
:10120400002C01409416002010B5064C20690028DB
:1012140001D002F07EFC6068002801D002F079FC65
:1012240010BDC04668160020F0B50024042785B020
:1012340000900191019B9C4244D2009B1B5D032BB7
:101244003DD102AB5F710023029372B602F000F845
:1012540002F070F81C4D2E00AC363368002B29DDEB
:1012640002F068F82A0033689432013B3360136853
:1012740002A81900007808311160187002A840789B
:10128400587002A88078987002A8C078D87002A814
:101294000079187102A84079587102A88079987170
:1012A40002A8C079D871094B994200D31560084847
:1012B40002F0DCF902F094F901F0DAFF62B60134CD
:1012C400E4B2B7E705B0F0BDD808002068090020F3
:1012D4007009002010B572B601F0DCFF10BD10B526
:1012E40001F0EAFF62B610BD10B50C00FFF7F2FF83
:1012F400236820001B689847FFF7F1FF10BD00002A
:10130400F0B59024E405A0423BD180242F4DA402E3
:101314006E6934436C6103244D00AC400768E643B6
:10132400A7430224AC40076007683C4304600124DF
:101334008C40002A45D14268A2434260C2683240D0
:10134400C260C268C260826816400122AA408660F8
:101354008468224382608C00072902D90C00083C6F
:10136400A40007228A4289414942890040180F217A
:10137400A140A340026A8A430262026A13430362E1
:10138400F0BD134CA04204D18024104DE4026E69D8
:10139400BFE7104CA04204D180240C4D24036E6995
:1013A400B7E70D4CA04204D18024084D64036E6954
:1013B400AFE70A4CA042AED18024044DE4036E6929
:1013C400A7E7426814434460B8E7C04600100240EF
:1013D4000004004800080048000C004800140048BD
:1013E40003000321084A033310688B430749C318D9
:1013F40010B58B4206D902F0B3FB0C230360012025
:10140400404210BD1360FCE7140800200040002097
:101414000368254A934207D18022244B120199691B
:101424000A439A619B6909E08022D205934206D15E
:1014340001221E4BD9690A43DA61DB6970471C4AF1
:10144400934203D1194B0222D969F4E7194A934212
:1014540003D1164B1022D969EDE7174A934203D101
:10146400124B2022D969E6E7144A934204D1802220
:101474000E4B5200D969DEE7114A934204D180220F
:101484000A4B52029969CBE70E4A934204D1802257
:10149400064B92029969C3E70B4A9342CED180224C
:1014A400024BD2029969BBE7002C014000100240B4
:1014B40000040040001000400014004000200040E0
:1014C40000400140004401400048014010B50400C0
:1014D400FFF79EFFC02322681B025364A369D362F3
:1014E400237D013B59424B4121690633481E0328A1
:1014F4000BD8FEF7B5FE02181F2791691B010B4399
:1015040093610123116A0B43136201231168194388
:1015140011602C498A421DD1627D21896068DB18E3
:10152400FFF7EEFE10BD91691B030B439361116A33
:101534001023E8E7D1691B010B43D3618023116AAF
:101544005B00E0E7D1691B030B43D3618023116A7D
:101554005B01D8E71C498A420BD19023606821893A
:10156400627DDB05984202D0184B984217D10123C3
:10157400D6E717498A4208D1902360682189627DA1
:10158400DB0598420BD10423CAE712498A4208D1E9
:1015940060682189627D9024E405A042C0D10023C3
:1015A400BEE70D4B9A4202D00C4B9A42BAD190231B
:1015B40060682189627DDB05984201D10523AFE78C
:1015C4000223ADE7002C0140000400400004004861
:1015D4000020004000400140004401400048014018
:1015E4008022084B10B599689143996011000278E4
:1015F400002A06D0DC690C42FCD092B21A85013074
:10160400F5E710BD0038014010B50248FFF7E8FFC8
:1016140001BEFEE74240000810B5744601F05EFECC
:10162400FFF758FE074B1B68002B00D09847032296
:10163400054B5A61FFF753FE01F066FE200002F0ED
:101644004FFA10BDAC1600200004014010B57446DA
:1016540001F044FEFFF73EFE074B1B68002B00D051
:1016640098470C22054B5A61FFF739FE01F04CFEF6
:10167400200002F035FA10BDB0160020000401402D
:1016840010B5744601F02AFEFFF724FE074B1B68D1
:10169400002B00D09847064B064A5A61FFF71FFEFD
:1016A40001F032FE200002F01BFA10BDB416002037
:1016B40000040140F0FF00000122084B19680A43AE
:1016C40002211A60064A1868084204D1013A002A25
:1016D400F9D1012070470020FCE7C0460010024009
:1016E4000F2700001E4B10B558680007800F022812
:1016F4000AD0032831D00138431E9841194B404287
:101704001840194BC01810BD0F20D96A5A680140FF
:10171400920C02400131941C824200D11024C02258
:1017240080205B6852021340400283420DD008D8E7
:10173400002B10D080220D481202934206D0604341
:10174400E1E7934205D00948F9E70748FEF792FD1F
:10175400F5E70748FAE70748F1E70548D3E7C04645
:101764000010024000F7C2FF001BB70000127A000D
:10177400006CDC0200093D00F0B5040087B01C4E8B
:101784001C4F02AD31001022280002F003FA7B68DE
:1017940020001B061B0FED5CFFF7A4FF3100E8409F
:1017A4000822A06005001031684602F0F3F96A4689
:1017B4007B6811495B055B0FD35CDD405A1E934186
:1017C400013323740D4BE560D868FEF753FD802385
:1017D4000122DB051968013891431960596A98623E
:1017E4005A61596219680A431A6007B0F0BDC046CD
:1017F400843F0008001002401027000098160020C3
:10180400034B044A5B68D0685B0500D54000704711
:10181400001002409816002070B505000C00016805
:101824000948FFF7EDFF2E68B16A0131FEF722FD8A
:1018340021000500FEF71EFD00231A00A5425A41AF
:10184400801AF062736270BD9816002070B50D00A6
:10185400040001680648FFF7D3FF2900FEF70AFDDC
:101864002368000C290098622000FFF7D5FF70BDA3
:101874009816002070B50D00040001680648FFF7B3
:10188400BFFF29000600FEF7F5FC0023AE425B41D2
:101894002268C31A936270BD98160020054810B5DB
:1018A4004368054C120223401A4309011143416065
:1018B40010BDC046001002400FF8FFFF70B5084D80
:1018C4000849E868FEF7D6FC06490400A868FEF754
:1018D400D1FC22000100044800F062F970BDC0464A
:1018E4009816002040420F004E4000080122074B8A
:1018F40019680A431A60022219681142FCD00122B5
:1019040099690A439A619B697047C0460010024076
:101914000122014B1A7470479816002070B5050017
:1019240000208D4213D004002A5D1300413B1600B1
:10193400192B00D820360B5D18004138192800D81F
:101944002033F01A9E4202D10134002AECD170BD3A
:10195400F0B5002802D1106800280FD00300180049
:101964000D00047801332E78002E03D00135B442E3
:10197400F9D1F4E7002C07D120001460F0BD2F004A
:101984000FE00134002E04D11C00013325781F0020
:101994000C002678B542F4D1002DF0D00021013B93
:1019A40019701760EAE7F0B505000E00170000246F
:1019B40087B000930CAB1B78019330003900FEF71D
:1019C400DFFC03000800C2B231001E0013003733ED
:1019D400DBB2092802D813003033DBB202AA013487
:1019E40003321355B942E8D226002B68009A1B68CB
:1019F40096420BD2280001999847002802D00C2067
:101A040007B0F0BD0136F0E7002CF9D003AB013C80
:101A1400E15C2B6828001B6898470028F4D0EEE7A7
:101A2400F0B50B000500140087B019785A1C049215
:101A3400002905D12B6828005B68984707B0F0BDE2
:101A4400252904D02B6828001B6898473FE05A7862
:101A54000392302A14D1023304930026049B19788C
:101A64005F1C0B00303BDBB20497092B03D92A29F6
:101A740009D108CCDBB20A2256439E193B00EEE79B
:101A840020230393E9E72E290BD139787B1C0A0024
:101A9400303A0493092A02D92A2902D104341F00B6
:101AA400F3E7632935D015D8412954D003D8252923
:101AB400C8D0049BB9E753292ED05829F9D1039BE8
:101AC40010220093330002CC2800FFF76CFF00289B
:101AD400EFD0AFE773291FD014D8642901D0692946
:101AE400E7D180CC002F07DA2B682D2128001B6852
:101AF400984700289ED17F42039B0A220093390015
:101B04003300E1E77529D4D1039B0A220093330003
:101B1400D9E702CCC9B295E727683800FEF798FBED
:101B240005903978002907D02B6828001B680137F5
:101B340098470028F5D07DE7059BF61A002E01DCB6
:101B44000434B6E72B6828001B6803999847013EC4
:101B54000028F3D06EE700262368A7680393636820
:101B64000593059B9E4201DB0C34A2E7002E0DD1A8
:101B7400039B1022995D3023280000932E3BFFF72E
:101B840012FF002800D055E70136EAE7002FEFD016
:101B94002B6828001B68F9B298470028E8D049E769
:101BA4000FB413B504AB10CB019372B601F050FB24
:101BB4002100019A0448FFF733FF01F059FB62B694
:101BC40013BC08BC04B01847E8130020F7B51E0086
:101BD400364B0192C35C0400002B00D1FEE7C568BC
:101BE40080206B68DF690742FCD00F221868304FF1
:101BF40038401860A36858680768974307601F68EF
:101C04005B7B9C460E236246934020227B60019BB3
:101C1400C16043606B6A934303600123026813430A
:101C2400036000F057FC3E22E36805005B68300067
:101C34001A85002100231F4AFEF7C8FB00231E4A11
:101C440080185941FA2200239200FEF79FFB0600F8
:101C5400A3685B685868002805D000F03BFC401B73
:101C64008642F5D202200F25A26853681968A94359
:101C74001960557B11680E22AA404A600F4AA218C7
:101C8400DA60802292005A60E268516A19605168F1
:101C940080220D68D2012A430A600021084AA1501B
:101CA400012219680A431A60FEBDC04618080000E4
:101CB400FFBFFFFF10270000E70300002808000013
:101CC4002408000008B4034B9C46034BC01A08BC0C
:101CD4006047C046D11B00082C0A00000EB403B5AF
:101CE400054B03AA02CAC0180192FFF799FE02B07D
:101CF40008BC03B01847C046280A000008B4034BC8
:101D04009C46034BC01A08BC6047C046E11C00084F
:101D14002C0A000073B504008B032FD501236A46F7
:101D2400537101F007FB164D2E00AC363368002BBF
:101D340024DD01F0FFFA2A0033689432013B33605A
:101D44001368200A1900083111605870200C98702B
:101D5400684600791C70187168464079240E5871E1
:101D640068468079DC7098716846C079D871054BF3
:101D7400994200D31560044801F078FC73BDC04655
:101D8400D80800206809002070090020F7B508ACC5
:101D9400257890240193E405A0423FD18024314E5C
:101DA400A40277693C43746103244E00B440036881
:101DB400E743A3430224B440036003681C43046064
:101DC40001248C40002A49D14268A2434260019B0D
:101DD400C268B3403A40C260C2681343C3608368B8
:101DE4001F400123B34087608268134383608A00E5
:101DF400072902D90A00083A920007238B42894135
:101E04004942890040180F219140036A8B430362C1
:101E14002B009340016A0B430362F7BD124CA042AE
:101E240004D180240F4EE4027769BBE70F4CA04233
:101E340004D180240B4E24037769B3E70C4CA042F1
:101E440004D18024074E64037769ABE7094CA042B0
:101E5400AAD18024034EE4037769A3E742681443BC
:101E64004460B4E700100240000400480008004841
:101E7400000C00480014004810B5744601F02EFA16
:101E840072B601F007FA0A4B0A4AD9691A620A4B78
:101E94001868002802D003681B68984701F00CFA00
:101EA40062B601F031FA200001F01AFE10BDC046FE
:101EB400003801405F1B1200B816002010B57446AC
:101EC40001F00CFA72B601F0E5F90A4B0A4AD96935
:101ED4001A620A4B1868002802D003681B689847E6
:101EE40001F0EAF962B601F00FFA200001F0F8FD02
:101EF40010BDC046004400405F1B1200BC16002009
:101F040010B5744601F0EAF972B601F0C3F90A4B50
:101F14000A4AD9691A620A4B1868002802D0036871
:101F24001B68984701F0C8F962B601F0EDF920008A
:101F340001F0D6FD10BDC046004800405F1B1200F2
:101F4400C016002081231B01C158C2180D4B10B5C7
:101F5400C358521A934200D91300822212018350AB
:101F6400002B0ED00024084BC45443685B68D9602E
:101F740082585A60C268126A1A60012219680A43B8
:101F84001A6010BD1C0800001808000010B50F24CA
:101F9400436859680A68A2430A60597B1A680E2389
:101FA4008B40536082230C491B01C25843589B1A2F
:101FB40043500C394458A2184418A24206D2425045
:101FC400002B06D10122054BC25410BD0200103271
:101FD400F5E7FFF7B7FFF8E71C0800001808000052
:101FE40010B5FFF7D3FF10BD30B580240C4A0300B1
:101FF400855824010C20A54211D20A481C58651C9E
:102004001D50217081211C58090159188C4202D39A
:10201400190010311950002099580131995030BDE0
:102024001C0800001408000010B5FFF7DDFF10BD08
:1020340008B4034B9C46034BC01A08BC6047C04617
:102044002D200008280A0000034B10B5C35C002BA8
:1020540001D0FFF777FF10BD1808000010B5FFF797
:10206400F3FF10BD08B4034B9C46034BC01A08BCD5
:102074006047C04661200008280A00008268030007
:10208400526830B5506880220D4D92005C59121A86
:10209400121B02D58020800012180B20002A0DD0BC
:1020A400621C5A51074A1C19A418227800200A708D
:1020B400802259599200914200DB585130BDC046EC
:1020C4002408000028080000F0B585B01F000E00A9
:1020D4000192040000F0FEF9002102AB254AD971F7
:1020E400050000233800FEF771F90023224A801806
:1020F4005941FA2200239200FEF748F9070002AB87
:10210400D91D2000FFF7BAFF00F0E4F9401B874215
:1021140001D202202BE002ABDB793E2BEFD1174B2F
:10212400E35C002B00D1FEE78023E0684168CA69C4
:102134001A42FCD00F216268006A53681C688C4301
:102144001C60557B14680E22AA40019D6260DE600B
:102154005D600225A843186001201D6828431860AB
:1021640058680028FCD11D688D431D60626005B06D
:10217400F0BDC04610270000E70300001808000067
:1021840008B4034B9C46034BC01A08BC6047C046C6
:10219400CD2000082C0A0000C36810B512CB074BF1
:1021A4009C4202D0064B9C4204D10648FEF762F8DA
:1021B400E06010BD044BD868F8E7C0460038014021
:1021C4000044004000127A0098160020C368F7B556
:1021D400654A0400986899898618721E96410023FE
:1021E400F6B21A000096FFF7D1FDE36828331B7896
:1021F400032B02D15D48FFF75FFAE1685C4B486846
:102204000325C218531E9A4112019540594B283197
:102214001F6BAF431F6309781F6B91400A003A4359
:102224001A63554A904200D079E080229969D2011C
:102234000A439A619B69514B1C602000FFF7ACFF75
:102244000022E06843685A604D4B62689A4205D1A7
:1022540080234C4A9B0011680B431360230009211F
:10226400494A806900F0B4FFE36841685A686060D5
:10227400100028308860186A0860012143482154FE
:102284000C201060B430906090221869D2059042FE
:102294005CD03F4A904200D10026998A01230096DF
:1022A4001A00FFF773FD3B4BA2689A4205D18023C5
:1022B400344ADB0011680B4313600023E0681A0002
:1022C4000921C06900F084FFE16842684B68A0609E
:1022D4001800243090603048496A2018D06080206B
:1022E4008000506011600121106801431160A02238
:1022F400596812050A435A6080221968D2010A43B8
:102304001A601D4A934223D10F211B2000F0D4FEF2
:10231400E3685A68012311680B431360F7BD1F4A31
:10232400904207D18022D96992020A43DA61DB69BB
:102334001B4B81E71B4A904200D07EE78022D9697B
:10234400D2020A43DA61DB69174B75E70E00A4E792
:10235400124A934202D10F211C20D7E7114A93421B
:10236400D6D10F211D20D1E700FCFFB7981600201D
:1023740000C8FEBF0010024000380140B81600201B
:10238400D441000800000140E51F000818080000BF
:1023940000040048E441000828080000004400400C
:1023A400BC16002000480040C0160020704770474B
:1023B400FEE70000F0B5082400250E4A53681668AD
:1023C40019009068884210D8DE1E0021B04203D361
:1023D4000330C11A890889005B18D168994207D86B
:1023E400013C1032002CE9D1F0BD80CE80C1E9E778
:1023F40020C3F3E7B040000810B500F037F800F050
:10240400E9F800F063F810BD10B5744600F066FFFB
:10241400054800F0F1FE054800F0EEFE00F074FF00
:10242400200001F05DFB10BDB4410008C441000868
:1024340010B5744600F052FF084800F0DDFE08486D
:1024440000F0DAFE074800F0D7FE074800F0D4FE9B
:1024540000F05AFF200001F043FB10BDD4410008F6
:10246400E4410008F441000804420008144B154AF2
:10247400996A10B50A43FC219A629A6AC9030A4010
:102484009A629A6A1A69012252421A611A690022EE
:102494001A611A69D9680C4A0A438021DA60DA6839
:1024A400C9030A40DA60DA688022D96952050A430E
:1024B400DA61DB6900F020FE01F02AFB10BDC046A2
:1024C40000100240FFFF81FFFFFFBFFF10B500F0C7
:1024D40017F810BD8023DB05586A7047802300225B
:1024E400DB0558631A610232DA60704780230022E8
:1024F400DB05DA6070478023DB0558637047000012
:1025040010B50124104B1149DA692243DA61104AEB
:10251400DB699368234393600E4BD868FDF7AAFEEA
:1025240080230122DB05013852429862DA620022DC
:1025340002219A610F205A63DA605A605C611C6060
:1025440000F0BAFD10BDC046001002401027000084
:1025540000580140981600208022D2051369D168E2
:1025640010B50B40D9B2C94311619B0707D572B6A8
:1025740000F090FE01F0B6F800F09EFE62B610BDC9
:1025840010B5744600F0AAFEFFF7E6FF00F0BCFEAB
:10259400200001F0A5FA10BD0200030010B50400EC
:1025A400763212787E331A7000F0F8FB63681B6889
:1025B400002B02D00121200098470323237010BD73
:1025C40010B572B600F066FE10BD10B500F074FED2
:1025D40062B610BD10B500F0D9FB10BD0123020096
:1025E4000100037000232C32436048311360D3612F
:1025F40004328A42FAD183607047000010B50400A7
:1026040000F098FE002C02D1094801F05FF8A2689E
:10261400084B20001340A360002323616361A3617E
:10262400E36123626362A36200F056FC10BDC046FE
:102634003041000801000100F8B504000D00170046
:102644001E0000F077FE002C01D0072D02D90B48A4
:1026540001F03CF80122AA406389290013430022B7
:102664006381AB1C9B00E3185B6820009B699F603F
:102674001E605A6000F082FCF8BDC0464541000867
:10268400F8B504000D0017001E0000F053FE002CE6
:1026940001D0072D02D90B4801F018F80122AA40F5
:1026A40023892900134300222381AB1C9B00E318D8
:1026B4005B6820005B699F601E605A6000F084FCC8
:1026C400F8BDC04656410008022370B503700300EC
:1026D400002504006433C5678560C56005614561F4
:1026E4008561C5610562456285621D7000F0D6FB97
:1026F40063681B68AB4202D029002000984770BD74
:1027040003000278803310B51A7005230370436800
:1027140004001B68002B01D0042198470023A36008
:1027240010BD030010B580331B78037043681B6829
:10273400002B01D00521984710BD0000F7B5060015
:10274400643633780400002B01D000233370270053
:1027540074373A002000019700F0FAFB63689B6825
:10276400002B18D1019B1A78602315001D401A42D2
:1027740034D00021200000F05FFC0021200000F094
:1027840047FC63681B68002B02D006212000984791
:1027940006233370F7BD200098470028E2D02300B9
:1027A4007B331A78013B1B7812021343E26E9A4280
:1027B40000D9E366019BE56E1B787F2B00D80EE100
:1027C400002D00D1FEE009233370FFF7F9FE00214C
:1027D400E36EA26E2000FFF753FFFDE023007F218C
:1027E40075331B780A401B021343854A934200D178
:1027F400D0E026D880225200934259D00DD8012B24
:1028040050D0022B00D196E0002BB2D122007C32B2
:10281400A2660222E2662367C1E781225200934244
:1028240000D19FE0FF32FF329342A2D123007633DE
:102834001B78012B9DD122007C32118801330B437C
:1028440041E080221201934246D023D8A022D20034
:1028540093423DD06B4A9B18012B00D989E7230092
:10286400220079331B78783212781B02210013433B
:1028740022006068763240687731070012782000C1
:102884000978B847002800D173E74368A366036852
:10289400E3661BE090221201934222D05A4A9342EB
:1028A40000D066E7594BA3660223E3660023B2E730
:1028B400230076331B78012B00D05AE72200022133
:1028C4007C3213888B431380A566E566256766E72B
:1028D4004F4BA566E5669EE723007F33A36601237D
:1028E400D6E72378042B11D1FFF76AFE2000FFF707
:1028F40085FEFFF76AFE230003217F331D706368A2
:1029040021701B68002B01D02000984723007633E8
:102914001B78002B0BD022007F321370042323700A
:1029240063681B68002B02D0022120009847002313
:10293400A366E3666FE723000F2178331B7820003A
:1029440019405BB2002B0ADA00F0F0FA012804D037
:10295400022800D00DE72F4BA5E72F4BA3E700F08B
:10296400CFFAF3E7230076331B78002B00D000E77F
:10297400230078331B780F22190011401342D6D05C
:102984005BB22000002B02DA00F07EFBCFE700F000
:1029940065FBCCE7230076331B78002B00D0E8E6F8
:1029A400230078331B780F22190011401342BED044
:1029B4005BB22000002B02DA00F03EFBB7E700F028
:1029C40027FBB4E714233370FFF7FAFD2B002A002A
:1029D40000212000FFF730FEFFF7F7FDDAE6002DB7
:1029E40006D015233370FFF7EBFDE36EA26EEFE71D
:1029F4000B233370FFF7E4FD2B002A002900E9E6DE
:102A04000203000000FAFFFF020C00006C41000802
:102A14009D250008684100086A41000870B5060059
:102A2400643604003078002840D00638C3B20F2B37
:102A340034D80F2832D8FDF713FC39313108253248
:102A44003131313131313131393923007B331A7825
:102A5400013B1B78E06E12021343984212D2E368E2
:102A6400198AFDF78DFC0D1E0CD1FFF7A9FD2B0073
:102A74002A0029002000FFF703FEFFF7A6FD0A2322
:102A840033700BE014233370FFF79AFD002320000A
:102A94001A001900FFF7D0FDFFF797FD70BD236FF3
:102AA400002B01D0200098470023E9E700212000F3
:102AB40000F0C2FA0021200000F0AAFA63681B6843
:102AC400002B02D00621200098470623D8E770B5D2
:102AD400050064352B780400142B29D019D8062B53
:102AE40006D002D8002B03D070BD093B022BFBD8C3
:102AF4000021200000F0A0FA0021200000F088FA54
:102B040063681B68002B02D0062120009847062327
:102B140018E0152BE8D10A3B2B70FFF751FD002379
:102B240020001A001900FFF7ABFDFFF74EFDDBE7AD
:102B3400C3689B695B68002BD6D1036F002B00D060
:102B4400984700232B70CFE70B4B30B51B6D0B4C14
:102B5400C0001B19C018038889181B1994B244803B
:102B64008C1A002A00DC30BD6078257800022843E6
:102B74001880023A0233F3E7005C00400060004032
:102B84007346F0B5764C87B0059300F0A7FB656CEF
:102B94006B0504D5734B74486364FFF795FD2B05EF
:102BA40008D50823226C7048134323646F4B636475
:102BB400FFF7A6FDEB040BD5A36C1B0406D4082277
:102BC400236C694893432364FFF7ABFD684B63644C
:102BD400AB0507D564484368DB68002B00D09847F1
:102BE400644B636480231B021D4206D100F08CFBFE
:102BF400059800F075FF07B0F0BD0F26584B2E4026
:102C0400B500ED182B6858480293B31C9B00C318F9
:102C14005B680193029B1B0626D52A685649019BD3
:102C24000A4080215B6909020A432A60D9685A680C
:102C34001F688A18BF1ABC461F685A6097422CD076
:102C4400019A128A624500D962469868DA6041188E
:102C54009960F0B2FFF778FF2A68484B1A40302396
:102C64005A40474B13432B608022029B12021342AB
:102C74005FD02B68404A1A40802313432B60F3B281
:102C84000493029B1B0514D53748B31C9B00C3183F
:102C94005B685B68049998474BE00122B240038962
:102CA40093430381019B9B68002BDDD0F1B29847CD
:102CB400DAE7019B33489A69F10093680293236D24
:102CC4001B185B18998809180391DB888C469B05AF
:102CD4009B0D1900029801292DD8029F0399BC4627
:102CE4005808400009188444834202D06046098889
:102CF40001709168C91891605168C91851601168D0
:102D0400C91A11609189013989B29181019A528A53
:102D14009A4201D8002918D10122B24012484389AD
:102D240093434381B31C9B00C3185B68DB68002B8F
:102D3400B0D1656C56E767463F88023907703F0A91
:102D4400477002270230BC44C5E72A680E4B1A407C
:102D5400C0239B015A400A4B13432B60E9E7C0464A
:102D6400005C0040FFFBFFFFE4170020FFF7FFFFBC
:102D7400FFEFFFFFFFFDFFFF0F07FFFFBF87FFFF11
:102D840080800000006000408FB7FFFF10B502484C
:102D9400FFF724FC10BDC046E417002080227E30DB
:102DA40003781343014AD3647047C046005C004073
:102DB4008B1C9B00C318F7B55C680323226813407F
:102DC400032B56D05A4253415B022E4A2E4E126DAB
:102DD400CD009219AD186269002A13D007000022B1
:102DE40008376A80FA6F0192228A013216000122A2
:102DF40096433200019E9219FA676A469688202209
:102E04002E801343A269002A18D0648A661E3E2CC1
:102E140032D91F2232430132521196021B4A3243E5
:102E2400012692B20830EA800134C26FB443A41878
:102E340092B2C467AA8080229201134311488A0087
:102E4400121880201468C001044200D003434020BB
:102E54001468044200D003430D48194301400D484F
:102E64000D4C01431160116823404B400343136030
:102E7400F7BDC023DB00A8E7012232430132521020
:102E84009202CDE7005C0040006000400080FFFF3C
:102E94000F07FFFF8080000070780000002180236E
:102EA4000B4A10B511655164D3644368DB685C4216
:102EB40063419E245B4224025B021B1913640300DA
:102EC40040220833DA67034BC360FFF771FF10BD7C
:102ED400005C004070410008402301220830C367B1
:102EE4000548064993005B181968013201431960CB
:102EF4001860082AF5D1704780800000005C00400B
:102F0400084B8900C958C0220B00920113401800D5
:102F1400114205D0044A9B181800431E9841013001
:102F24007047C046005C004000F0FFFF074B89007B
:102F3400C95830220B0013401800114204D0103B32
:102F44001800431E984101307047C046005C0040A1
:102F5400084B09481B6DC9001B18C9188B881B181E
:102F64001000083019880233118002329042F9D1DE
:102F74007047C046005C0040006000408B1C9B0012
:102F8400C018426870B595690C00286801230028B0
:102F940005D0518A40180138FDF76CF983B2AB8132
:102FA400064BA400E4182268054B1A40C0239B0179
:102FB4005A40044B1343236070BDC046005C00407C
:102FC4008FB7FFFF808000008B1C9B0010B5C018DA
:102FD40042680C005369128A19688A4200D90A00AF
:102FE40020009968DA60FFF7AFFD064BA400E418EF
:102FF4002268054B1A4030235A40044B1343236084
:1030040010BDC046005C0040BF87FFFF8080000009
:10301400064B8900C9180A68054B1A4080235B01D6
:103024005A40044B13430B607047C046005C004099
:103034008FB7FFFF80800000054B8900C9180A681C
:10304400044B1A4010235A40034B13430B60704740
:10305400005C0040BF87FFFF80800000C022074B58
:103064008900C9180B6892011340934205D00B687C
:10307400034A1A40034B13430B607047005C004043
:10308400BF87FFFF80A000003022084B8900C918C9
:103094000B681340934207D00A68054B1A4020235B
:1030A4005A40044B13430B607047C046005C004019
:1030B400BF87FFFF808000000322F0B5FF26C025F4
:1030C4000240D2009640890191400A4F83089B0038
:1030D400DB19AD005C591F22B4430C435C5101233E
:1030E40002409340C02240098000C019520083501E
:1030F4000360F0BD00E100E0002301220848094913
:1031040010B5036043604C6810312360D400013271
:103114000351082AF7D1044B093A5A6010BDC0463E
:10312400DC160020A441000800000240F0B585B080
:10313400040002910092039300F0FCF8062C0AD8D4
:1031440001221700A7401E4B1968394207D00025F9
:10315400280005B0F0BD1B4800F0B8FAF7E71A4E96
:1031640020010190351801340098E40039431960B6
:10317400E050164903981C196060486902434A618B
:103184004A69009A002A0BD05B68AA681A4203D1E4
:10319400E87B0299FFF790FF094B5A6817435F6079
:1031A4000F20019BF1184B68497B1A6882431A600F
:1031B400019AB0580E228A40426000221A60C7E782
:1031C400DC16002094410008A441000800100240CD
:1031D400F8B504000D0016001F0072B600F038F8B0
:1031E4003B00320029002000FFF7A0FF040000F09C
:1031F4003FF862B62000F8BD10B50268447B116840
:103204000E23E140194043681B6819420CD0837BAC
:103214000800A04001335060044ADB009C58002C95
:1032240002D0D3185868A04710BDC046DC16002051
:1032340010B5744600F052F80448FFF7DDFF00F0C3
:1032440063F8200000F04CFC10BDC046A441000807
:1032540010B5054C636DA26D134302D0034800F012
:1032640035FA0123A36510BD741800201442000828
:1032740010B5064C636D002B02D1A36D002B02DC4C
:10328400034800F023FA0023A36510BD741800203E
:103294001942000810B5064C636D002B02DDA36DC6
:1032A400002B02D0034800F011FA0123A36510BDDE
:1032B400741800201E42000810B5064C636D002BE4
:1032C40002DDA36D002B02DC034800F0FFF90023AC
:1032D400A36510BD741800202342000810B572B60F
:1032E400074C636D002B02DBA36D002B02D0054855
:1032F40000F0ECF9636D0133636562B610BDC0463E
:10330400741800202842000810B572B6074C636D8B
:10331400002B02DDA36D002B02D0054800F0D6F986
:10332400636D013B636562B610BDC046741800202E
:103334002D420008054B10B55A6D002A02DB9B6D27
:10334400002B02DC024800F0C1F910BD7418002003
:1033540032420008054B10B55A6D002A02D19B6D0C
:10336400002B02DC024800F0B1F910BD74180020F3
:1033740038420008FEE70000F0B500250400194BB0
:1033840089B0056281620E00586000F09FFB230043
:103394001033236163610123012721005B42124A38
:1033A400A3612C31200024606460A5606562E5613E
:1033B40025656565A765813300F0B2F97368E0603F
:1033C40043610A4B07760293F36802A803933369B7
:1033D400059701930493064B0795069300F0E6F9CD
:1033E40009B0F0BD6C1800203E42000843420008BA
:1033F40079330008024B5A6A104358627047C0463A
:103404007418002000238268037603691B68996896
:103414009142FBD25A680360426010605860704762
:1034240000238268037603691B6899689142FBD87C
:103434005A680360426010605860704770B50C00B1
:1034440072B6FFF727FF207E052807D8FCF708FF90
:103454000C06060316100022E3691A6001235B427E
:103464002000E361FFF7CEFFFFF726FF62B670BDD1
:10347400E569FFF75FFFAB680133AB6062682368FF
:1034840013605A60EAE7000010B50400FFF752FF2A
:10349400002C02D1034800F019F92000FFF7B2FF15
:1034A40010BDC0465742000870B505000C4CE668D4
:1034B400FFF750FF357625682B685C602360012395
:1034C400E5602B76EFF309837269243B9A4202D9B3
:1034D400044800F0FBF831002800FCF729FE70BD19
:1034E400741800204842000870B50D000F4B86B0D8
:1034F400DE680400FFF72EFF6B1C13D03300290095
:103504000B4A684600F026FA2000FFF7CDFFFFF7CC
:1035140011FF009B002B02D0684600F037FAF069D7
:1035240006B070BD2000FFF7BFFFF8E77418002055
:1035340041340008F8B504000D00114EF768FFF798
:1035440009FFA368BA68E561934203D82000FFF736
:1035540059FFF8BD3800FFF763FF01230500237608
:10356400F460EFF309834269243B9A4202D9054887
:1035740000F0ACF829002000FCF7DAFDE9E7C046CA
:103584007418002048420008044BDA6819689068EF
:103594008B689842804140427047C04674180020AE
:1035A4000D4B70B51C68D868226853601A600122FC
:1035B4002276DC60FFF734FF0500EFF309834269EC
:1035C400243B9A4202D9054800F080F829002000E3
:1035D400FCF7AEFD70BDC0467418002048420008D8
:1035E40070B5064CE568FFF7B5FE23689A68AB68CA
:1035F4009A4201D9FFF7D4FF70BDC0467418002069
:1036040070B504000D00002801D0002902DA034837
:1036140000F05CF8A5602460646070BD634200083B
:1036240070B504000D00FFF795FE002C02D10D4883
:1036340000F04CF80020A3685A1EA260824203DA0C
:10364400854202D1A360013870BD074B6268DB6814
:103654002900DC611C605A60052013606360FFF779
:1036640043FFF1E7734200087418002010B504000A
:10367400FFF760FE002C02D1084800F027F8A36889
:103684000133A360002B07DC2068036823605C60BF
:103694000023C361FFF7F8FE10BDC0468542000851
:1036A400012310B5064C07492370002306486360C4
:1036B400FFF762FE02232370FFF7DAFD62B610BD46
:1036C4006C180020984200087418002072B6032277
:1036D400024B1865024B1A70FEE7C04674180020AE
:1036E4006C18002010B5FFF725FE00F08DF910BD11
:1036F40010B572B6FFF7ACFD10BD10B5FFF7B8FDFD
:1037040062B610BD10B5041E02D10448FFF7DEFFF7
:1037140021000820FFF7E8FE10BDC046AC420008B7
:103724008B6002230B830023086108000B6270473F
:1037340010B50400FFF7FEFD002C02D11848FFF776
:10374400C5FF072162680A4207D1A3680B4204D16E
:103754009A4202D29B1AA72B02D81148FFF7B6FF50
:10376400E368FF2B02D82369002B02D10C48FFF732
:10377400ADFFA368626818002838426122694C3B97
:10378400C3601A6162695A61064A1A62E368064AAA
:10379400836002230376002302614376036210BD33
:1037A400B8420008550100087418002010B5FFF74E
:1037B400BFFFFFF769FE10BDF8B505000C00160049
:1037C4001F00002809D0A72907D903000B435B0772
:1037D40003D1FF2A01D8002F02D10F48FFF776FF4B
:1037E400283C2C19FFF784FF2300069A243B6561CB
:1037F400E3605A61094A1F611A620223002123838C
:10380400074B2000A66023612162FFF793FEFFF7B8
:1038140074FF2000F8BDC046CE42000855010008E0
:103824007418002010B5034BDB68D8610F20FFF734
:103834003BFE10BD7418002010B50400FFF758FFBC
:103844002000FFF7EFFF10BD10B50400FFF750FF95
:103854002000FFF757FFFFF750FF10BD10B50368B6
:103864009C68A2420CD85C688A600B604C60216042
:10387400596099688A1A9A6001235B42836010BD7B
:103884001B68121BECE770B504000D00022900D27E
:10389400022502266019FEF72EFEFEF71BFE041B0E
:1038A400A54203D8013635000400F3E7022E02D9FD
:1038B4000120FFF79FFD70BD114B70B5D961140055
:1038C4008260104A0D0042601A69026050601861FB
:1038D400022C00D202242819FEF700FE0226FEF76D
:1038E400F9FD401B844204D80136A819FEF703FEF3
:1038F400F5E7022E02D90120FFF77CFD70BDC0461A
:103904007418002084180020F8B505000C00FEF798
:10391400E1FD0E4B0E4F1A69BA4205D10100220097
:103924002800FFF7C9FFF8BDDB69C31AE618B342E4
:1039340000D926009368B34202D92100FFF7A3FF00
:10394400320029003800FFF789FFECE774180020E3
:1039540084180020F8B504000D0016001F00FFF7BE
:10396400E9FC002C03D0002E01D0002D02D1064822
:10397400FFF7ACFE002329002761E66020006361A5
:10398400FFF7C2FFF8BDC046E042000870B504006E
:10399400FFF7D0FC002C02D11848FFF797FE184D12
:1039A4002B699C420CD023686268A16813605A603A
:1039B4009A6852189A6000232360013BAB6170BD82
:1039C4002368104A2B615A60002323602B699342B9
:1039D40002D1FEF78BFDF2E79968A2688A189A6013
:1039E400FEF778FD2B69E9699B68421A9342E6D990
:1039F400C918091AFFF747FFE1E7C046EB42000880
:103A04007418002084180020F7B5FFF793FC294DA3
:103A14002C69FEF75FFDEA69A168274F831A994272
:103A24003FD85318EB6162680193236813605A60AE
:103A3400002323602B69BB4201D1FEF757FDFFF73A
:103A44003BFC62B620002169E368984772B6FFF731
:103A540021FC6369002BDAD0FEF73CFD019B62690F
:103A6400C31A060000939A420BD20220FFF7C2FC4D
:103A740000222B69BB4208D131002000FFF71CFF54
:103A8400F7BD019B121AD218F3E7009B0099D318D3
:103A9400994200D913001A0021003800FFF7DEFE16
:103AA400B5E72B69BB42EBD05118091AFFF7EBFEBF
:103AB400E6E7C0467418002084180020EFF3098359
:103AC400203383F3098862B670470000024A034931
:103AD400136A0B401362704700ED00E0FFFF00FF24
:103AE40010B50F300FD072B6EFF30984203C84F385
:103AF400098880235B04E361FFF746FD024B00283D
:103B040000D1024BA36110BD6701000872010008D7
:103B1400704710B500F034F810BD10B5041E00D184
:103B24000134200000F022F8002807D100F00AF840
:103B3400002801D100F00CF88047F2E710BD10B561
:103B440000F006F8014B18687047C046D8170020EB
:103B5400062010B500F026F9012000F0FFF900005E
:103B6400014B18687047C0461808002010B5034B75
:103B74000100186800F07CF810BDC0461808002049
:103B840010B5034B0100186800F028F810BDC046BA
:103B940018080020002310B59A4200D110BDCC5C57
:103BA400C4540133F8E710B5884202D98B189842FF
:103BB40003D3002307E08B5C8354013AFBD210BD8E
:103BC400CC5CC45401339A42FAD1F8E7030082185A
:103BD400934200D1704719700133F9E770B50500BD
:103BE400002910D00C1F2368002B00DAE4182800E9
:103BF40000F094F91D4A1368002B05D1636014602A
:103C0400280000F093F970BDA34208D92168601818
:103C14008342F3D118685B6841182160EEE71A000B
:103C24005B68002B01D0A342F9D911685018A04257
:103C34000BD120680918501811608342E0D118682C
:103C44005B68411811605360DAE7A04202D90C2383
:103C54002B60D5E721686018834203D118685B683C
:103C64004118216063605460CAE7C046DC17002035
:103C7400F8B50323CD1C9D43083506000C2D1FD237
:103C84000C25A9421ED8300000F048F925490A68DD
:103C94001400002C1AD1244F3B68002B04D12100BE
:103CA400300000F043F838602900300000F03EF89E
:103CB400431C2BD10C233000336000F037F903E0B0
:103CC400002DDEDA0C2333600020F8BD23685B1B73
:103CD40019D40B2B03D92360E418256003E063682F
:103CE400A2420ED10B60300000F020F92000072220
:103CF4000B30231D9043C21A9842E6D01B1AA350DE
:103D0400E3E75360EFE722006468C2E70323C41CBF
:103D14009C43A042E1D0211A300000F007F8431C74
:103D2400DBD1C7E7DC170020E0170020002370B5C3
:103D3400064D040008002B60FDF752FB431C03D121
:103D44002B68002B00D0236070BDC046DC18002017
:103D540070B504000D001F2904D916230360012047
:103D6400404270BD436C002B04D08A009B181A6833
:103D7400002A08D1200000F031F82A0001002000B8
:103D840000F01AF8EDE70020012AEAD0511C03D113
:103D9400162301302360E4E7002428001C609047C8
:103DA4002000DEE710B5034B01001868FFF7D0FFD1
:103DB40010BDC04618080020002370B5064D04004D
:103DC400080011002B6000F0C1F8431C03D12B68DC
:103DD400002B00D0236070BDDC18002010B500F06B
:103DE400ADF810BDF0B587B01E00059001910292A8
:103DF400012B45D00800242B42D83F4B08229C4677
:103E0400030061461C78451C095D28000F0017401B
:103E14001142F5D12D2C3AD101272C789D1C002E6E
:103E240065D0102E09D1302C07D120222B78934352
:103E3400582B57D110266C780235304B3100FB18C3
:103E440018000393FCF79CFA00230122844618000F
:103E5400049152422100303909291DD80C00A64290
:103E640028DD002B24DB1300844506D302D10499FA
:103E7400A14202DB0123704320182C780135E9E7C5
:103E8400FFF76EFE16230360002007B0F0BD2B2C55
:103E9400C5D12C789D1CC2E721004139192901D8CC
:103EA400373CDCE721006139192903D8573CD6E7B0
:103EB4001300E2E7002B09DA2223059A0398136022
:103EC400029B002BE1D06B1E019307E0002F00D072
:103ED4004042029A002AD8D0002BF4D1029B019AC6
:103EE4001A60D2E73024002EA7D10836A5E7302C7B
:103EF4009BD00A26A1E7C046F9420008FFFFFF7FD6
:103F040010B513000A00010002480068FFF76AFFB9
:103F140010BDC046180800207047704710B502480D
:103F2400FFF7FAFF10BDC046D418002010B50248B0
:103F3400FFF7F3FF10BDC046D4180020582201201B
:103F4400014B40421A607047DC18002058220120BF
:0E3F5400014B40421A607047DC180020FEE767
:043F6400F8B5C046A6
:043F6800F8B5C046A2
:103F6C0000000048030000000300000000000000F7
:103F7C000000000011000000000000000000000024
:103F8C0001020304060708090000000001020304F3
:103F9C004F6B0D0A0050696E67004F6E00202C00AD
:103FAC004F66660061646300202043523D307825E3
:103FBC005820434647523D30782558204953523DAE
:103FCC00307825580D00436D64556E6B6E6F776EAF
:103FDC000D0A0042746E2025750D003230323230DD
:103FEC003430395F32303539004176616461000D0F
:103FFC0025532025530D0000000000000000000098
:10400C009D0A00087106000839060008766563747D
:10401C006F723A3A5F4D5F64656661756C745F618F
:10402C007070656E64004144432063616C6962206A
:10403C006661696C0D000D486172644661756C7443
:10404C000D00414842467265713D25754D487A3BDD
:10405C0020415042467265713D25754D487A0D00E0
:10406C000000000000000000191D00082D200008B1
:10407C0061200008E11C0008D11B0008CD200008BD
:10408C00D8F5FFFF0000000035200008692000086B
:10409C00D4F5FFFF00000000011D0008C91C00083A
:1040AC0085210008E0440008E0180020E0180020FA
:1040BC00E0180020E04400080000000000000000B0
:1040CC0000000000E04400080000000000000000B8
:1040DC0000000000E04400080000000000000000A8
:1040EC0000000000E0440008000000000000000098
:1040FC0000000000E0440008000000000000000088
:10410C0000000000E0440008000000000000000077
:10411C0000000000E0440008000000000000000067
:10412C000000000075736244697361626C65456ED2
:10413C0064706F696E747349007573625374617245
:10414C007452656365697665490075736253746171
:10415C0072745472616E736D6974490000000100D1
:10416C00000000000000000041270008212A000880
:10417C00D32A000840004000C4160020C4160020BA
:10418C0001000000D4160020646D615374726561E7
:10419C006D416C6C6F6349000000024008000240E6
:1041AC000100000000000009000002401C00024059
:1041BC00060000000004010A00000240300002402A
:1041CC00060000000008020A000002404400024001
:1041DC0078000000000C030B000002405800024065
:1041EC00780000000010040B000002406C0002403C
:1041FC00780000000014050B000002408000024013
:10420C00780000000018060B535623340053562335
:10421C003500535623360053562337005356233854
:10422C000053562339005356233130005356233153
:10423C0031006D61696E0069646C65007374616353
:10424C006B206F766572666C6F770063685363687A
:10425C0052656164794900636853656D4F626A65A4
:10426C006374496E697400636853656D5761697452
:10427C0054696D656F75745300636853656D53694C
:10428C00676E616C490063300000000092420008C8
:10429C00000400200008002020170020D817002060
:1042AC006368546864536C65657053006368546844
:1042BC006443726561746553757370656E6465648F
:1042CC004900636854686443726561746553746132
:1042DC007469630063685654446F53657449006392
:1042EC00685654446F526573657449000020202051
:1042FC00202020202020282828282820202020208A
:10430C002020202020202020202020202088101059
:10431C0010101010101010101010101010040404B5
:10432C000404040404040410101010101010414173
:10433C004141414101010101010101010101010161
:10434C000101010101010101101010101010424275
:10435C004242424202020202020202020202020231
:10436C0002020202020202021010101020000000D1
:10437C000000000000000000000000000000000031
:10438C000000000000000000000000000000000021
:10439C000000000000000000000000000000000011
:1043AC000000000000000000000000000000000001
:1043BC0000000000000000000000000000000000F1
:1043CC0000000000000000000000000000000000E1
:1043DC0000000000000000000000000000000000D1
:1043EC0000000000000000000000000000000000C1
:1043FC0000000000000000000000000000000000B1
:10440C0000000000000000000000000000000000A0
:10441C000000000000000000000000000000000090
:10442C000000000000000000000000000000000080
:10443C000000000000000000000000000000000070
:10444C000000000000000000000000000000000060
:08445C00C4BFFF7F0100000056
:10446400050000005D0600080000000000000000D8
:1044740000000000E01800201C08002000000000DC
:104484001C4400083C440008FC43000800000000F1
:104494000000000000000000000000000000000018
:1044A4000000000000000000000000000000000008
:1044B40000000000000000000000000000000000F8
:1044C40000000000000000000000000000000000E8
:0C44D400000000000000000000000000DC
:040000050800012DC1
:00000001FF
